:020000040800F2
:1000000000800020E9290008392A0008392A000860
:10001000392A0008392A0008392A0008000000009F
:100020000000000000000000000000002553000850
:10003000392A0008000000000D5600086D5600081F
:10004000392A0008392A0008392A0008392A000804
:10005000392A0008392A0008392A0008392A0008F4
:10006000392A0008392A0008392A0008392A0008E4
:10007000392A0008392A0008392A0008392A0008D4
:10008000392A000800000000392A0008392A00082F
:10009000392A00088D690008392A0008392A000821
:1000A000392A0008392A0008392A0008392A0008A4
:1000B000392A0008392A0008392A0008392A000894
:1000C000392A0008392A0008392A0008392A000884
:1000D000392A000821620008ED620008B9630008AF
:1000E000392A0008392A0008392A0008392A000864
:1000F000392A0008392A0008392A000800000000BF
:1001000000000000392A000800000000392A000819
:10011000392A000800000000B1250008392A00082B
:10012000392A0008392A0008392A0008392A000823
:10013000392A00080000000000000000392A0008E9
:10014000392A0008392A00080000000000000000D9
:10015000000000000000000000000000000000009F
:10016000000000000000000000000000392A000824
:10017000392A000800000000000000000000000014
:1001800000000000392A0008000000000000000004
:1001900000000000392A00080000000000000000F4
:1001A0000000000000000000392A0008392A000879
:1001B000392A0008392A0008392A000800000000FE
:1001C00000000000392A00080000000000000000C4
:0801D000392A0008392A000851
:1001D80081F0004102E000BF83F0004330B54FEAF0
:1001E80041044FEA430594EA050F08BF90EA020F5D
:1001F8001FBF54EA000C55EA020C7FEA645C7FEAF0
:10020800655C00F0E2804FEA5454D4EB5555B8BF12
:100218006D420CDD2C4480EA020281EA030382EA83
:10022800000083EA010180EA020281EA0303362D15
:1002380088BF30BD11F0004F4FEA01314FF4801CE8
:100248004CEA113102D0404261EB410113F0004FFA
:100258004FEA03334CEA133302D0524263EB4303B1
:1002680094EA050F00F0A780A4F10104D5F1200E4F
:100278000DDB02FA0EFC22FA05F2801841F10001AA
:1002880003FA0EF2801843FA05F359410EE0A5F17E
:1002980020050EF1200E012A03FA0EFC28BF4CF0AF
:1002A800020C43FA05F3C01851EBE37101F0004565
:1002B80007D54FF0000EDCF1000C7EEB00006EEB72
:1002C8000101B1F5801F1BD3B1F5001F0CD34908FC
:1002D8005FEA30004FEA3C0C04F101044FEA445253
:1002E80012F5800F80F09A80BCF1004F08BF5FEADA
:1002F800500C50F1000041EB045141EA050130BDBA
:100308005FEA4C0C404141EB0101013C28BFB1F5CB
:10031800801FE9D291F0000F04BF01460020B1FA16
:1003280081F308BF2033A3F10B03B3F120020CDAE9
:100338000C3208DD02F1140CC2F10C0201FA0CF0C7
:1003480021FA02F10CE002F11402D8BFC2F1200C2C
:1003580001FA02F120FA0CFCDCBF41EA0C019040E2
:10036800E41AA2BF01EB0451294330BD6FEA04042B
:100378001F3C1CDA0C340EDC04F11404C4F1200216
:1003880020FA04F001FA02F340EA030021FA04F328
:1003980045EA030130BDC4F10C04C4F1200220FA7F
:1003A80002F001FA04F340EA0300294630BD21FABD
:1003B80004F0294630BD94F0000F83F4801306BF83
:1003C80081F480110134013D4EE77FEA645C18BF77
:1003D8007FEA655C29D094EA050F08BF90EA020F0E
:1003E80005D054EA000C04BF1946104630BD91EA06
:1003F800030F1EBF0021002030BD5FEA545C05D109
:100408004000494128BF41F0004130BD14F5800447
:100418003CBF01F5801130BD01F0004545F0FE41BB
:1004280041F470014FF0000030BD7FEA645C1ABFF0
:10043800194610467FEA655C1CBF0B46024650EA27
:10044800013406BF52EA033591EA030F41F4002153
:1004580030BD00BF90F0000F04BF0021704730B5D9
:100468004FF4806404F132044FF000054FF00001AE
:1004780050E700BF90F0000F04BF0021704730B56F
:100488004FF4806404F1320410F0004548BF404244
:100498004FF000013EE700BF42004FEAE2014FEA99
:1004A80031014FEA02701FBF12F07F4393F07F4F74
:1004B80081F06051704732F07F4208BF704793F077
:1004C8007F4F04BF41F40021704730B54FF460748A
:1004D80001F0004521F000411CE700BF50EA01028D
:1004E80008BF704730B54FF000050AE050EA010236
:1004F80008BF704730B511F0004502D5404261EBA6
:1005080041014FF4806404F132045FEA915C3FF4E6
:10051800D8AE4FF003025FEADC0C18BF03325FEA83
:10052800DC0C18BF033202EBDC02C2F1200300FA34
:1005380003FC20FA02F001FA03FE40EA0E0021FA59
:1005480002F11444BDE600BF4A0011D212F50012B0
:1005580011D20DD56FF47873B3EB62520ED44FEA13
:10056800C12343F0004343EA505323FA02F0704793
:100578004FF00000704750EA013002D14FF0FF30D1
:1005880070474FF0000070470348044B834202D085
:10059800034B03B1184770471000002010000020DB
:1005A800000000000548064B1B1AD90F01EBA301F8
:1005B800491002D0034B03B11847704710000020C0
:1005C800100000200000000010B5064C237843B945
:1005D800FFF7DAFF044B13B10448AFF3008001239F
:1005E800237010BD1000002000000000686B000898
:1005F80008B5054B1BB105490548AFF30080BDE8B8
:100608000840FFF7CFBF00BF000000001400002023
:10061800686B000880B485B000AF78607B6803F031
:100628000703FB600C4BDB68BB60BA684FF6FF033F
:100638001340BB60FB681A02BB68134343F0BF63F7
:1006480043F40033BB60044ABB68D36000BF14376F
:10065800BD465DF8047B704700ED00E080B582B0D0
:1006680000AF786004214FF0904005F057FB034637
:10067800002B0DD000224FF480714FF0904005F010
:100688003BFB4FF07D004FF0000103F09DFDE9E7D3
:1006980001224FF480714FF0904005F02DFB4FF090
:1006A8007D004FF0000103F08FFDDBE780B582B0DD
:1006B80000AF786008214FF0904005F02FFB03460B
:1006C800002B0CD0002201214FF0904005F014FBC4
:1006D8004FF07D004FF0000103F076FDEAE70122BC
:1006E80001214FF0904005F007FB4FF07D004FF0DF
:1006F800000103F069FDDDE780B584B002AF01F0C9
:10070800A3FF002301224FF480714FF0904005F0C1
:10071800C7FA0023012201214FF0904005F0C0FAEA
:100728000123002204214FF0904005F0B9FA01237B
:10073800002208214FF0904005F0B2FA002005F0A1
:1007480015FB05F0EFFC034683F00103DBB2002B39
:1007580001D005F063FB1A491A4805F0A5FE0346C7
:1007680083F00103DBB2002B01D005F057FB002317
:1007780001930323009300234FF47A72124913481C
:1007880003F0CFFB78600023019303230093002339
:100798004FF47A720E490F4803F0C3FB78607B6808
:1007A800012B01D005F03AFB0320FFF733FF03F0DC
:1007B800B9FD05F033FB012318460837BD4680BD57
:1007C80040420F0000640040806B00086506000886
:1007D800846B0008B506000880B582B000AF786069
:1007E800396005F01BFB00BF0837BD4680BD00001F
:1007F80080B487B000AF7860396000237B6164E122
:100808003B681A6801217B6901FA03F31340FB6016
:10081800FB68002B00F056813B685B6803F003031C
:10082800012B05D03B685B6803F00303022B30D132
:100838007B689B683B617B695B00032202FA03F3D8
:10084800DB433A6913403B613B68DA687B695B00CC
:1008580002FA03F33A6913433B617B683A699A6089
:100868007B685B683B6101227B6902FA03F3DB4327
:100878003A6913403B613B685B681B0903F001025E
:100888007B6902FA03F33A6913433B617B683A696F
:100898005A603B685B6803F00303032B09D13B688C
:1008A8005B6803F00303032B1BD13B689B68012B98
:1008B80017D07B68DB683B617B695B00032202FA27
:1008C80003F3DB433A6913403B613B689A687B69F1
:1008D8005B0002FA03F33A6913433B617B683A69A8
:1008E800DA603B685B6803F00303022B23D17B6962
:1008F800DA087B68083253F822303B617B6903F0E1
:1009080007039B000F2202FA03F3DB433A69134003
:100918003B613B681A697B6903F007039B0002FA95
:1009280003F33A6913433B617B69DA087B68083251
:10093800396943F822107B681B683B617B695B005F
:10094800032202FA03F3DB433A6913403B613B6835
:100958005B6803F003027B695B0002FA03F33A6900
:1009680013433B617B683A691A603B685B6803F430
:100978004033002B00F0A6805B4B1B6E5A4A43F0B5
:1009880001031366584B1B6E03F00103BB60BB6881
:10099800564A7B699B08023352F823303B617B69D6
:1009A80003F003039B000F2202FA03F3DB433A69C7
:1009B80013403B617B68B3F1904F1FD07B684C4A72
:1009C800934219D07B684B4A934213D07B684A4ABA
:1009D80093420DD07B68494A934207D07B68484AC6
:1009E800934201D105230AE0062308E0042306E028
:1009F800032304E0022302E0012300E000237A69D4
:100A080002F00302920093403A6913433B6137496D
:100A18007B699B0802333A6941F82320394B9B686C
:100A28003B61FB68DB433A6913403B613B685B68A9
:100A380003F48013002B03D03A69FB6813433B612E
:100A4800304A3B6993602F4BDB683B61FB68DB43B3
:100A58003A6913403B613B685B6803F40013002B61
:100A680003D03A69FB6813433B61264A3B69D3606C
:100A7800244B5B683B61FB68DB433A6913403B618D
:100A88003B685B6803F40033002B03D03A69FB68CA
:100A980013433B611B4A3B6953601A4B1B683B611C
:100AA800FB68DB433A6913403B613B685B6803F4CE
:100AB8008033002B03D03A69FB6813433B61114A2A
:100AC8003B6913607B6901337B613B681A687B690A
:100AD80022FA03F3002B7FF493AE00BF00BF1C374C
:100AE800BD465DF8047B70470010024000000140DD
:100AF8000004004800080048000C004800100048A6
:100B0800001400480004014080B485B000AF78604C
:100B18000B467B807B681A697B881340002B02D0C8
:100B28000123FB7301E00023FB73FB7B184614379A
:100B3800BD465DF8047B704780B483B000AF786031
:100B48000B467B8013467B707B78002B03D07A881A
:100B58007B689A6102E07A887B689A6200BF0C37EA
:100B6800BD465DF8047B704780B485B000AF7860FF
:100B78000B467B807B685B69FB607A88FB68134067
:100B88001A04FB68D9437B880B401A437B689A6137
:100B980000BF1437BD465DF8047B704780B400AFD2
:100BA80000BFBD465DF8047B704780B582B000AFDA
:100BB80078607B68002B01D1012349E07B6893F8BA
:100BC8003D30DBB2002B06D17B68002283F83C2045
:100BD800786800F041F87B68022283F83D207B6842
:100BE8001A687B6804331946104600F021FA7B68BE
:100BF800012283F848207B68012283F83E207B6825
:100C0800012283F83F207B68012283F840207B681B
:100C1800012283F841207B68012283F842207B6807
:100C2800012283F843207B68012283F844207B68F3
:100C3800012283F845207B68012283F846207B68DF
:100C4800012283F847207B68012283F83D20002396
:100C580018460837BD4680BD80B483B000AF7860C1
:100C680000BF0C37BD465DF8047B704780B485B083
:100C780000AF78607B6893F83D30DBB2012B01D080
:100C880001234AE07B68022283F83D207B681B68C9
:100C9800DA687B681B6842F00102DA607B681B68CF
:100CA800214A934218D07B681B68B3F1804F13D058
:100CB8007B681B681D4A93420ED07B681B681C4AE0
:100CC800934209D07B681B681A4A934204D07B6818
:100CD8001B68194A934215D17B681B689A68174BA1
:100CE8001340FB60FB68062B15D0FB68B3F5803F0B
:100CF80011D07B681B681A687B681B6842F0010288
:100D08001A6008E07B681B681A687B681B6842F0F9
:100D180001021A6000E000BF002318461437BD46E0
:100D28005DF8047B704700BF002C014000040040C0
:100D38000008004000340140004001400700010065
:100D480080B584B000AF78607B681B68DB68FB60A7
:100D58007B681B681B69BB60BB6803F00203002B40
:100D680020D0FB6803F00203002B1BD07B681B68B4
:100D78006FF002021A617B6801221A777B681B6890
:100D88009B6903F00303002B03D0786800F031F966
:100D980005E0786800F023F9786800F034F97B689A
:100DA80000221A77BB6803F00403002B20D0FB68ED
:100DB80003F00403002B1BD07B681B686FF0040250
:100DC8001A617B6802221A777B681B689B6903F4A7
:100DD8004073002B03D0786800F00BF905E07868C1
:100DE80000F0FDF8786800F00EF97B6800221A77A9
:100DF800BB6803F00803002B20D0FB6803F008034E
:100E0800002B1BD07B681B686FF008021A617B6897
:100E180004221A777B681B68DB6903F00303002B45
:100E280003D0786800F0E5F805E0786800F0D7F8B6
:100E3800786800F0E8F87B6800221A77BB6803F04E
:100E48001003002B20D0FB6803F01003002B1BD0ED
:100E58007B681B686FF010021A617B6808221A779A
:100E68007B681B68DB6903F44073002B03D0786848
:100E780000F0BFF805E0786800F0B1F8786800F095
:100E8800C2F87B6800221A77BB6803F00103002BC5
:100E98000CD0FB6803F00103002B07D07B681B68AC
:100EA8006FF001021A61786801F074FBBB6803F007
:100EB8008003002B04D1BB6803F40053002B0CD033
:100EC800FB6803F08003002B07D07B681B686FF476
:100ED80002521A61786801F07BFBBB6803F48073E7
:100EE800002B0CD0FB6803F08003002B07D07B6835
:100EF8001B686FF480721A61786801F073FBBB6835
:100F080003F04003002B0CD0FB6803F04003002BD8
:100F180007D07B681B686FF040021A61786800F0A0
:100F28007CF8BB6803F02003002B0CD0FB6803F0AF
:100F38002003002B07D07B681B686FF020021A6122
:100F4800786801F03BFBBB6803F48013002B0CD0DE
:100F5800FB6803F48013002B07D07B681B686FF4D1
:100F680080121A61786801F047FBBB6803F400132C
:100F7800002B0CD0FB6803F40013002B07D07B6810
:100F88001B686FF400121A61786801F03FFBBB68B8
:100F980003F48003002B0CD0FB6803F48003002BC0
:100FA80007D07B681B686FF480021A61786801F0CB
:100FB80037FBBB6803F40003002B0CD0FB6803F479
:100FC8000003002B07D07B681B686FF400021A61CE
:100FD800786801F02FFB00BF1037BD4680BD80B494
:100FE80083B000AF786000BF0C37BD465DF8047B66
:100FF800704780B483B000AF786000BF0C37BD463F
:101008005DF8047B704780B483B000AF786000BFA0
:101018000C37BD465DF8047B704780B483B000AFE1
:10102800786000BF0C37BD465DF8047B7047000050
:1010380080B485B000AF786039607B681B68FB605E
:101048007B683F4A93420FD07B68B3F1804F0BD047
:101058007B683C4A934207D07B683B4A934203D063
:101068007B683A4A934208D1FB6823F07003FB601F
:101078003B685B68FA681343FB607B68304A9342BD
:101088001BD07B68B3F1804F17D07B682D4A934201
:1010980013D07B682C4A93420FD07B682B4A93422B
:1010A8000BD07B682A4A934207D07B68294A93422F
:1010B80003D07B68284A934208D1FB6823F4407325
:1010C800FB603B68DB68FA681343FB60FB6823F04E
:1010D80080023B685B691343FB603B689A687B68E6
:1010E800DA623B681A687B689A627B68144A9342A2
:1010F8000FD07B68154A93420BD07B68144A934201
:1011080007D07B68134A934203D07B68124A934204
:1011180003D13B681A697B681A637B681B6843F0D4
:1011280004027B681A607B6801225A617B68FA684E
:101138001A6000BF1437BD465DF8047B704700BFD6
:10114800002C014000040040000800400034014029
:1011580000400140004401400048014080B588B08B
:1011680000AF78607B68002B01D10123FEE27B6829
:101178001B6803F00103002B75D0974B9B6803F0A5
:101188000C03BB61944BDB6803F003037B61BB6911
:101198000C2B02D17B69032B02D0BB69082B0BD126
:1011A8008D4B1B6803F40033002B5BD07B685B68B6
:1011B800002B57D10123D9E27B685B68B3F5803FE8
:1011C80006D1854B1B68844A43F4803313601DE0C5
:1011D8007B685B68B3F5A02F0CD17F4B1B687E4AF8
:1011E80043F4802313607C4B1B687B4A43F48033B1
:1011F80013600BE0784B1B68774A23F48033136045
:10120800754B1B68744A23F4802313607B685B6802
:10121800002B13D001F042FA386108E001F03EFAE1
:1012280002463B69D31A642B01D903239EE26A4B19
:101238001B6803F40033002BF0D014E001F02EFA01
:10124800386108E001F02AFA02463B69D31A642B98
:1012580001D903238AE2604B1B6803F40033002B97
:10126800F0D100E000BF7B681B6803F00203002B8D
:1012780075D0594B9B6803F00C03BB61564BDB6878
:1012880003F003037B61BB690C2B02D17B69022B42
:1012980002D0BB69042B1FD14F4B1B6803F480633A
:1012A800002B05D07B68DB68002B01D101235DE2B0
:1012B800494B5B6823F0FE427B681B691B06464965
:1012C80013434B60454B1B68184601F0EBF8034687
:1012D800002B43D0012349E27B68DB68002B23D035
:1012E8003D4B1B683C4A43F48073136001F0D6F908
:1012F800386108E001F0D2F902463B69D31A022BA3
:1013080001D9032332E2344B1B6803F48063002BBA
:10131800F0D0314B5B6823F0FE427B681B691B06EB
:101328002D4913434B601AE02B4B1B682A4A23F4C0
:101338008073136001F0B2F9386108E001F0AEF98A
:1013480002463B69D31A022B01D903230EE2224B32
:101358001B6803F48063002BF0D100E000BF7B68BA
:101368001B6803F00803002B41D07B685B69002BE6
:101378001CD0194BD3F89430174A43F00103C2F834
:10138800943001F08BF9386108E001F087F90246E2
:101398003B69D31A022B01D90323E7E10E4BD3F89B
:1013A800943003F00203002BEFD020E00A4BD3F86F
:1013B8009430094A23F00103C2F8943001F06EF921
:1013C80038610DE001F06AF902463B69D31A022B35
:1013D80006D90323CAE100BF001002400000002024
:1013E8008C4BD3F8943003F00203002BEAD17B68CE
:1013F8001B6803F00403002B00F0A6800023FB7792
:10140800844B9B6D03F08053002B01D1012300E036
:101418000023002B0DD07F4B9B6D7E4A43F08053F9
:1014280093657C4B9B6D03F08053FB60FB68012345
:10143800FB77794B1B6803F48073002B18D1764B2C
:101448001B68754A43F48073136001F027F938610B
:1014580008E001F023F902463B69D31A022B01D9AF
:10146800032383E16C4B1B6803F48073002BF0D0DB
:101478007B689B68012B08D1664BD3F89030654A8E
:1014880043F00103C2F8903024E07B689B68052B89
:1014980010D1604BD3F890305E4A43F00403C2F891
:1014A80090305C4BD3F890305A4A43F00103C2F8AD
:1014B80090300FE0574BD3F89030564A23F0010391
:1014C800C2F89030534BD3F89030524A23F00403BB
:1014D800C2F890307B689B68002B16D001F0DEF8CC
:1014E80038610AE001F0DAF802463B69D31A41F2A2
:1014F8008832934201D9032338E1464BD3F8903020
:1015080003F00203002BEDD015E001F0C7F83861B5
:101518000AE001F0C3F802463B69D31A41F2883267
:10152800934201D9032321E13A4BD3F8903003F0D9
:101538000203002BEDD1FB7F012B05D1354B9B6DB1
:10154800344A23F0805393657B681B6803F02003BB
:10155800002B3CD07B689B69002B1CD02D4BD3F80B
:1015680098302C4A43F00103C2F8983001F096F8FD
:10157800386108E001F092F802463B69D31A022B61
:1015880001D90323F2E0234BD3F8983003F0020388
:10159800002BEFD01BE01F4BD3F898301D4A23F0E7
:1015A8000103C2F8983001F079F8386108E001F0D9
:1015B80075F802463B69D31A022B01D90323D5E0FB
:1015C800144BD3F8983003F00203002BEFD17B685B
:1015D800DB69002B00F0C9800E4B9B6803F00C03FD
:1015E8000C2B00F083807B68DB69022B5ED1094BF2
:1015F8001B68084A23F08073136001F04FF83861C4
:101608000CE001F04BF802463B69D31A022B05D9CE
:101618000323ABE00010024000700040554B1B68EC
:1016280003F00073002BECD1524BDA68524B134095
:101638007A68116A7A68526A013A120111437A6823
:10164800926A120211437A68126B5208013A5205E3
:1016580011437A68526B5208013A520611437A686C
:10166800D26AD2060A4343491343CB60414B1B68F5
:10167800404A43F0807313603E4BDB683D4A43F0B9
:101688008073D36001F00AF8386108E001F006F8C9
:1016980002463B69D31A022B01D9032366E0354B76
:1016A8001B6803F00073002BF0D05EE0314B1B6821
:1016B800304A23F08073136000F0F0FF386108E0CF
:1016C80000F0ECFF02463B69D31A022B01D9032331
:1016D8004CE0284B1B6803F00073002BF0D1254B1E
:1016E800DA682449254B1340CB603EE07B68DB6910
:1016F800012B01D1012339E01E4BDB687B617B693B
:1017080003F003027B681B6A9A422CD17B6903F0C1
:10171800F0027B685B6A013B1B019A4223D17B691B
:1017280003F4FE427B689B6A1B029A421BD17B69C9
:1017380003F078427B68DB6ADB069A4213D17B6947
:1017480003F4C0027B681B6B5B08013B5B059A4294
:1017580009D17B6903F0C0627B685B6B5B08013B66
:101768005B069A4201D0012300E000231846203787
:10177800BD4680BD001002400C809F01FCFFEEFEBC
:1017880080B586B000AF7860396000237B617B68E4
:10179800002B01D101231EE1914B1B6803F00F03BD
:1017A8003A689A4210D98E4B1B6823F00F028C4975
:1017B8003B6813430B608A4B1B6803F00F033A68BE
:1017C8009A4201D0012306E17B681B6803F00103FC
:1017D800002B73D07B685B68032B29D1814B1B6876
:1017E80003F00073002B01D10123F4E000F0BAF9F3
:1017F80038613B697C4A93423FD97A4B9B6803F036
:10180800F003002B09D07B681B6803F00203002B50
:1018180033D07B689B68002B2FD1724B9B6823F0D9
:10182800F003704A43F08003936080237B6124E0D7
:101838007B685B68022B07D16A4B1B6803F4003393
:10184800002B09D10123C6E0664B1B6803F48063B3
:10185800002B01D10123BEE000F0CEF838613B69CE
:10186800614A934209D95F4B9B6823F0F0035D4AB4
:1018780043F08003936080237B615A4B9B6823F07D
:1018880003027B685B68574913438B6000F006FFCF
:10189800F8600AE000F002FF0246FB68D31A41F242
:1018A8008832934201D9032395E04E4B9B6803F09D
:1018B8000C027B685B689B009A42EBD17B681B68D3
:1018C80003F00203002B23D07B681B6803F004039A
:1018D800002B05D0434B9B68424A43F4E063936076
:1018E8007B681B6803F00803002B07D03D4B9B68FF
:1018F80023F47C533B4A43F4E0639360394B9B6881
:1019080023F0F0027B689B68364913438B6008E03C
:101918007B69802B05D1334B9B68324A23F0F00357
:1019280093602F4B1B6803F00F033A689A421DD24D
:101938002B4B1B6823F00F0229493B6813430B60AC
:1019480000F0ACFEF8600AE000F0A8FE0246FB6872
:10195800D31A41F28832934201D903233BE0204B4A
:101968001B6803F00F033A689A42EDD17B681B6845
:1019780003F00403002B08D01A4B9B6823F4E062A1
:101988007B68DB68174913438B607B681B6803F02F
:101998000803002B09D0134B9B6823F460527B6823
:1019A8001B69DB000F4913438B6000F025F80246E2
:1019B8000C4B9B681B0903F00F030C49CB5C03F02D
:1019C8001F0322FA03F30A4A13600A4B1B681846DE
:1019D80000F068FD034618461837BD4680BD00BFB5
:1019E800002002400010024000B4C404A86B0008A4
:1019F800080000200000002080B487B000AF2C4B06
:101A08009B6803F00C03042B02D12A4B3B6147E08F
:101A1800274B9B6803F00C03082B02D1264B3B6134
:101A28003EE0234B9B6803F00C030C2B36D1204B74
:101A3800DB6803F00303FB601D4BDB681B0903F045
:101A48000F030133BB60FB68032B0CD11A4ABB6838
:101A5800B2FBF3F3164AD268120A02F07F0202FBC5
:101A680003F37B610CE0134ABB68B2FBF3F3104A43
:101A7800D268120A02F07F0202FB03F37B6100BF07
:101A88000B4BDB685B0E03F0030301335B007B60E9
:101A98007A697B68B2FBF3F33B6101E000233B61A9
:101AA8003B6918461C37BD465DF8047B704700BF8C
:101AB800001002400024F40040787D0180B400AF9B
:101AC800034B1B681846BD465DF8047B704700BF92
:101AD8000800002080B500AFFFF7F0FF0246064B74
:101AE8009B681B0A03F007030449CB5C03F01F0340
:101AF80022FA03F3184680BD00100240B86B0008B4
:101B080080B483B000AF786039607B680F221A60B8
:101B1800124B9B6803F003027B685A600F4B9B686B
:101B280003F0F0027B689A600C4B9B6803F4E06258
:101B38007B68DA60094B9B68DB0803F4E0627B682A
:101B48001A61074B1B6803F00F023B681A6000BF5D
:101B58000C37BD465DF8047B704700BF001002409B
:101B68000020024080B487B000AF1E4BDB6803F052
:101B780003033B611B4BDB681B0903F00F030133B5
:101B8800FB603B69032B0CD1174AFB68B2FBF3F3EC
:101B9800144AD268120A02F07F0202FB03F37B6147
:101BA8000CE0124AFB68B2FBF3F30E4AD268120A41
:101BB80002F07F0202FB03F37B6100BF094BDB6885
:101BC8005B0E03F0030301335B00BB607A69BB68FB
:101BD800B2FBF3F37B607B6818461C37BD465DF8A3
:101BE800047B70470010024040787D010024F40017
:101BF80080B584B000AF78607B68002B01D10123E9
:101C080047E17B6893F85C30DBB2002B06D17B6838
:101C1800002283F85D20786800F044F97B681B682F
:101C28009A697B681B6822F010029A6100F036FD01
:101C3800F86012E000F032FD0246FB68D31A0A2B66
:101C48000BD97B681B6E43F001027B681A667B68C0
:101C5800032283F85C2001231BE17B681B689B69D6
:101C680003F00803082BE5D07B681B689A697B683A
:101C78001B6842F001029A6100F010FDF86012E062
:101C880000F00CFD0246FB68D31A0A2B0BD97B68BF
:101C98001B6E43F001027B681A667B68032283F897
:101CA8005C200123F5E07B681B689B6903F0010356
:101CB800002BE5D07B681B689A697B681B6842F03B
:101CC80002029A617B681B68744A934203D1744A82
:101CD8007B685B6813607B681B7C012B08D17B6881
:101CE8001B689A697B681B6822F040029A6107E0CA
:101CF8007B681B689A697B681B6842F040029A619E
:101D08007B685B7C012B08D17B681B689A697B68C0
:101D18001B6842F480429A6107E07B681B689A69F5
:101D28007B681B6822F480429A617B689B7C012B4C
:101D380008D17B681B689A697B681B6822F480520B
:101D48009A6107E07B681B689A697B681B6842F4A4
:101D580080529A617B681B689B6923F440717B6899
:101D68009A687B681B680A439A617B681B689A6952
:101D78007B681B6822F0A4029A617B681B681A6959
:101D88007B681B6822F010021A617B68DB68012BF4
:101D980008D17B681B689A697B681B6842F004025B
:101DA8009A612CE07B68DB68002B28D07B68DB68B5
:101DB800022B1CD07B681B689A697B681B6842F001
:101DC80080029A617B681B681A697B681B6842F00D
:101DD80010021A617B68DB68032B10D17B681B68D3
:101DE8009A697B681B6842F020029A6107E07B6869
:101DF8001B689A697B681B6842F020029A617B68BD
:101E08009B69013B5A067B68DB69013B1B021A434D
:101E18007B681B6A013B42EA03017B685B69013B03
:101E28001A047B681B680A43DA617B689B68B3F510
:101E3800407F15D17B689B6A5A1E7B68DB6A013B31
:101E48001B021A437B681B6B013B1B0142EA03011F
:101E58007B685B6A013B1A047B681B680A43DA608B
:101E68007B681B68D3F8C0107B68DA6B7B681B68DB
:101E78000A43C3F8C020786800F0BEFA7B680022E5
:101E88009A657B6800221A667B68012283F85C20C9
:101E9800002318461037BD4680BD00BF00640040CF
:101EA8000065004080B483B000AF786000BF0C3795
:101EB800BD465DF8047B704780B485B000AFF8601C
:101EC800B9607A603B60FB6893F85C30DBB2012B49
:101ED80016D1FB681B68D3F8803023F03F01BB683C
:101EE8001A017B689B001A433B685B001A43BB6975
:101EF8001A43FB681B680A43C3F88020002306E0E6
:101F0800FB681B6E43F00402FB681A66012318463F
:101F18001437BD465DF8047B704780B483B000AFCA
:101F2800786039607B6893F85C30DBB2012B0BD1A9
:101F38007B681B681B6A23F003017B681B683A688F
:101F48000A431A62002306E07B681B6E43F0040212
:101F58007B681A66012318460C37BD465DF8047B7A
:101F6800704780B483B000AF78607B6893F85C30CA
:101F7800DBB2012B10D17B68022283F85C207B68DE
:101F88001B689A697B681B6822F001029A617B686A
:101F980000221A66002306E07B681B6E43F00402E9
:101FA8007B681A66012318460C37BD465DF8047B2A
:101FB8007047000080B48BB000AFF860B9607A60F9
:101FC8003B600023FB61FB6893F85C30FB76FB7E8B
:101FD800022B40F0E880BB68402B37D1FB681B68B8
:101FE800D3F8903003F00F03002B07D1FB681B6E6A
:101FF80043F48072FB681A660123DBE0FB681B6808
:10200800D3F8903003F08073B3F1807F0AD1FB6876
:102018001B68D3F8803003F40073B3F5007F01D157
:102028000123FB61FB681B68D3F890301B0A03F09F
:102038000303FA691344FB61FB68996CFA69134658
:10204800DB001344DB000B447B6236E0FB681B6853
:10205800D3F8983003F00F03002B07D1FB681B6EF1
:1020680043F48072FB681A660123A3E0FB681B68CF
:10207800D3F8983003F08073B3F1807F0AD1FB68FE
:102088001B68D3F8803003F48073B3F5807F01D1E7
:102098000123FB61FB681B68D3F898301B0A03F027
:1020A8000303FA691344FB61FB68D96CFA691346A8
:1020B800DB001344DB000B447B627B6A1B6803F084
:1020C80080427B685A607B685B68002B07D17B6A1B
:1020D8001B689B0CC3F30A027B681A6005E07B6AE5
:1020E8001B6823F060427B681A607B6A1B6803F0F8
:1020F80000527B689A607B6A1B6803F000427B6829
:102108001A617B6A04337B627B6A1B689AB27B68BC
:10211800DA617B6A1B681B0C03F00F027B68DA60CC
:102128007B6A1B6803F480127B685A617B6A1B68B0
:1021380003F400127B689A617B6A1B681B0E03F02C
:102148007F027B681A627B6A1B68DA0F7B685A62B7
:102158007B6A04337B627B6A7B6100233B620AE013
:102168007A693B6A1A4439683B6A0B4412781A70D8
:102178003B6A01333B627B68DB68114AD35C1A46D1
:102188003B6A9342ECD3BB68402B05D1FB681B68C4
:10219800FA69C3F8942004E0FB681B68FA69C3F87D
:1021A8009C20002306E0FB681B6E43F00802FB68D6
:1021B8001A66012318462C37BD465DF8047B704724
:1021C800986B000880B487B000AFF860B9607A6097
:1021D800FB6893F85C30FB75FB7D012B02D0FB7D1F
:1021E800022B16D17B68012B09D1FB681B68996DFE
:1021F800BB68DA43FB681B680A409A6507E0FB681E
:102208001B68996DFB681B68BA680A439A650023C6
:1022180006E0FB681B6E43F00202FB681A660123A6
:1022280018461C37BD465DF8047B704780B487B0FC
:1022380000AFF860B9607A60FB6893F85C30FB75B2
:10224800FB7D012B03D0FB7D022B40F0C880FB688F
:102258001B689B6D3B61BB6803F00703002B04D030
:102268003B6903F00103002B3BD0BB6803F0380344
:10227800002B04D03B6903F00203002B31D0BB686C
:1022880003F4E073002B04D03B6903F00403002B34
:1022980027D0BB6803F4F053002B04D03B6903F04C
:1022A8000803002B1DD0BB6803F46043002B04D047
:1022B8003B6903F01003002B13D0BB6803F44033D1
:1022C800002B04D03B6903F02003002B09D0BB6826
:1022D80003F47C03002B0CD03B6903F04003002B74
:1022E80007D1FB681B68DA6DFB681B6842F00102C6
:1022F800DA65BB6803F00703002B04D03B6903F0E1
:102308000103002B3BD1BB6803F03803002B04D03A
:102318003B6903F00203002B31D1BB6803F4E0737F
:10232800002B04D03B6903F00403002B27D1BB68C2
:1023380003F4F053002B04D03B6903F00803002B8F
:102348001DD1BB6803F46043002B04D03B6903F044
:102358001003002B13D1BB6803F44033002B04D0C7
:102368003B6903F02003002B09D1BB6803F47C030D
:10237800002B0CD03B6903F04003002B07D0FB680F
:102388001B68DA6DFB681B6842F00202DA65BB68FD
:1023980003F08003002B09D0FB681B68D3F8DC101E
:1023A800FB681B687A680A43C3F8DC20BB6803F43F
:1023B8008073002B09D0FB681B68D3F8E010FB681A
:1023C8001B687A680A43C3F8E020FB681B68596DEC
:1023D800FB681B68BA680A435A65002306E0FB6875
:1023E8001B6E43F00202FB681A66012318461C376D
:1023F800BD465DF8047B704780B485B000AF786057
:10240800274BBB607B68BA681A647B681B68D3F883
:10241800803023F4F8117B685B6B1A047B681B68B7
:102428000A43C3F88020BB6803F170027B685A64D2
:102438007B681B68D3F8803023F070617B689B6BE6
:102448001A067B681B680A43C3F88020BB6803F13F
:10245800B0027B689A64BB6803F5C4727B68DA646F
:10246800BB6803F518727B681A65BB6803F51E72B2
:102478007B685A65BB68FB6005E0FB6800221A6050
:10248800FB680433FB60BB6803F55473FA689A422F
:10249800F3D300BF00BF1437BD465DF8047B704717
:1024A80000A4004080B58EB000AF78600022796843
:1024B800362000F0B7F9362000F0CEF9304B9B6D8E
:1024C8002F4A43F0100393652D4B9B6D03F01003C7
:1024D800FB60FB6807F1100207F114031146184668
:1024E800FFF70EFB3B6AFB62FB6A002B03D1FFF789
:1024F800F1FA786304E0FFF7EDFA03465B007B63CB
:102508007B6B204AA2FB03239B0C013BBB621E4B47
:102518001E4A1A601C4B40F2E732DA601A4ABB6A5C
:102528005360194B00221A61174B00229A60164813
:10253800FEF73BFB034687F8333097F83330002B20
:1025480018D11148FEF792FB034687F8333097F805
:102558003330002B0ED17B680F2B08D80022796806
:10256800362000F05FF90A4A7B68136002E0012315
:1025780087F8333097F8333018463837BD4680BD72
:102588000010024083DE1B432C0000200010004096
:102598000000002080B582B000AF786000F06CF8D1
:1025A80000BF0837BD4680BD80B500AF0248FEF7C2
:1025B800C7FB00BF80BD00BF2C00002080B483B0E3
:1025C80000AF786000BF0C37BD465DF8047B7047EC
:1025D80080B483B000AF786000BF0C37BD465DF8AB
:1025E800047B704780B483B000AF786000BF0C37BD
:1025F800BD465DF8047B704780B483B000AF786057
:1026080000BF0C37BD465DF8047B704780B483B0CB
:1026180000AF786000BF0C37BD465DF8047B70479B
:1026280080B483B000AF786000BF0C37BD465DF85A
:10263800047B704780B483B000AF786000BF0C376C
:10264800BD465DF8047B704780B582B000AF0023BB
:10265800FB71032000F0DBF80F20FFF723FF034690
:10266800002B02D00123FB7101E0FEF797FAFB79FA
:1026780018460837BD4680BD80B400AF054B1A68C0
:10268800054B1B681344034A136000BFBD465DF841
:10269800047B7047780000200400002080B400AF5D
:1026A800034B1B681846BD465DF8047B704700BFA6
:1026B8007800002080B485B000AF78607B6803F0B4
:1026C8000703FB600C4BDB68BB60BA684FF6FF037F
:1026D8001340BB60FB681A02BB68134343F0BF6337
:1026E80043F40033BB60044ABB68D36000BF1437AF
:1026F800BD465DF8047B704700ED00E080B400AF94
:10270800044BDB681B0A03F007031846BD465DF857
:10271800047B704700ED00E080B483B000AF03464F
:10272800FB7197F90730002B0BDBFB7903F01F02D5
:10273800074997F907305B09012000FA02F241F8CE
:10274800232000BF0C37BD465DF8047B704700BFEF
:1027580000E100E080B483B000AF03463960FB714C
:1027680097F90730002B0ADB3B68DAB20C4997F976
:1027780007301201D2B20B4483F800230AE03B6809
:10278800DAB20849FB7903F00F03043B1201D2B215
:102798000B441A7600BF0C37BD465DF8047B7047C2
:1027A80000E100E000ED00E080B489B000AFF8601F
:1027B800B9607A60FB6803F00703FB61FB69C3F14A
:1027C8000703042B28BF0423BB61FB690433062BD2
:1027D80002D9FB69033B00E000237B614FF0FF3225
:1027E800BB6902FA03F3DA43BB681A407B699A4073
:1027F8004FF0FF317B6901FA03F3D9437B680B4043
:10280800134318462437BD465DF8047B704780B5EE
:1028180082B000AF78607868FFF74CFF00BF0837D8
:10282800BD4680BD80B586B000AF0346B9607A600A
:10283800FB73FFF763FF78617A68B9687869FFF717
:10284800B3FF024697F90F3011461846FFF782FF8B
:1028580000BF1837BD4680BD80B582B000AF0346C3
:10286800FB7197F907301846FFF756FF00BF083786
:10287800BD4680BD80B485B000AF78607B68002B12
:1028880041D14B4B1B6803F4C063B3F5806F31D162
:10289800474BD3F88030464A23F48073C2F880301F
:1028A800434B1B6823F4C063414A43F4007313602D
:1028B800404B1B68322202FB03F33F4AA2FB03236F
:1028C8009B0C0133FB6002E0FB68013BFB60384B6B
:1028D8005B6903F48063B3F5806F02D1FB68002B5A
:1028E800F2D1334B5B6903F48063B3F5806F58D141
:1028F800032357E02E4BD3F880302D4A23F48073FE
:10290800C2F880304DE07B68B3F5007F41D1284B99
:102918001B6803F4C063B3F5806F31D1244BD3F83F
:102928008030234A43F48073C2F88030204B1B6800
:1029380023F4C0631E4A43F4007313601D4B1B68E5
:10294800322202FB03F31C4AA2FB03239B0C013334
:10295800FB6002E0FB68013BFB60154B5B6903F41D
:102968008063B3F5806F02D1FB68002BF2D1104B66
:102978005B6903F48063B3F5806F12D1032311E020
:102988000B4BD3F880300A4A43F48073C2F8803086
:1029980007E0074B1B6823F4C063054A43F48063D0
:1029A8001360002318461437BD465DF8047B704752
:1029B800007000400800002083DE1B4380B400AF95
:1029C800064BD3F88830054A43F47003C2F88830C0
:1029D80000BFBD465DF8047B704700BF00ED00E016
:1029E8000D488546FFF7EAFF0C480D490D4A0023BC
:1029F80002E0D458C4500433C4188C42F9D30A4AAC
:102A08000A4C002301E013600432A242FBD304F015
:102A180025F8FDF771FEFEE7008000200000002089
:102A280010000020DC6B000810000020B85F0020B8
:102A3800FEE780B483B000AF78607B6803F10802DA
:102A48007B685A6079684FF0FF324FF0FF33C1E975
:102A580002237B6803F108027B681A617B6803F133
:102A680008027B685A617B6800221A6000BF0C3735
:102A7800BD465DF8047B704780B483B000AF7860D2
:102A88007B6800225A6100BF0C37BD465DF8047BA5
:102A9800704780B487B000AF786039603B68D3E98D
:102AA8000023C7E90223D7E90223B3F1FF3F08BF98
:102AB800B2F1FF3F03D17B685B697B6110E07B6803
:102AC80008337B6102E07B699B687B617B699B685B
:102AD800D3E90023D7E90201904271EB0303F2D254
:102AE8007B699A683B689A603B689B683A68DA60D9
:102AF8003B687A69DA607B693A689A603B687A6809
:102B08005A617B681B685A1C7B681A6000BF1C37B7
:102B1800BD465DF8047B704780B485B000AF78602F
:102B28007B685B69FB607B689B687A68D268DA605F
:102B38007B68DB687A6892689A60FB685B687A6889
:102B48009A4203D17B68DA68FB685A607B68002286
:102B58005A61FB681B685A1EFB681A60FB681B6891
:102B680018461437BD465DF8047B704780B586B0BB
:102B780000AF7860396001237B617B683B613B690A
:102B8800002B0BD14FF0500383F31188BFF36F8FE5
:102B9800BFF34F8FFB6000BF00BFFDE73B69002B11
:102BA8005DD03B695B6C002B59D03B699A6C3B69E3
:102BB8005B6C0021A3FB0223002B00D001210B46F4
:102BC800002B4CD102F0C2FC3B691A683B695B6C74
:102BD8003969896C01FB03F31A443B699A603B69C4
:102BE80000221A643B691A683B695A603B691A6893
:102BF8003B695B6C013B3969896C01FB03F31A443F
:102C08003B69DA603B69FF2283F84C203B69FF226D
:102C180083F84D203B68002B14D13B691B69002BBE
:102C28001AD03B691033184601F036FF0346002BD3
:102C380012D0164B4FF080521A60BFF34F8FBFF37C
:102C48006F8F09E03B6910331846FFF7F2FE3B69C6
:102C580028331846FFF7EDFE02F0AAFC01E0002336
:102C68007B617B69002B0BD14FF0500383F31188F4
:102C7800BFF36F8FBFF34F8FBB6000BF00BFFDE78F
:102C88007B6918461837BD4680BD00BF04ED00E0DB
:102C980080B58CB002AFF860B9607A603B60002301
:102CA8007B623B68002B0BD14FF0500383F31188F4
:102CB800BFF36F8FBFF34F8F3B6200BF00BFFDE7CD
:102CC800FB68002B31D03B68002B2ED07B68002B93
:102CD80002D0BB68002B28D07B68002B02D1BB68D0
:102CE800002B22D150237B617B69502B0BD04FF0F6
:102CF800500383F31188BFF36F8FBFF34F8FFB61CE
:102D080000BF00BFFDE77B693B687B627B6A0122ED
:102D180083F84E2097F830207B6A009313467A6830
:102D2800B968F86800F068F80EE07B6A002B0BD1F0
:102D38004FF0500383F31188BFF36F8FBFF34F8FAA
:102D4800BB6100BF00BFFDE77B6A18462837BD4658
:102D580080BD80B58AB002AFF860B9601346FB71D8
:102D68000023FB61FB68002B32D00021BA68FB68A6
:102D7800A3FB0223002B00D001210B46002B27D1F7
:102D8800FB68BA6802FB03F313F1510F20D8FB6804
:102D9800BA6802FB03F3BB61BB695033184602F003
:102DA800EDFCF861FB69002B21D0FB697B617B6935
:102DB80050337B61FB69002283F84E20FA79FB6966
:102DC800009313467A69B968F86800F015F80EE0C0
:102DD800FB69002B0BD14FF0500383F31188BFF32D
:102DE8006F8FBFF34F8F3B6100BF00BFFDE7FB69EB
:102DF80018462037BD4680BD80B584B000AFF86066
:102E0800B9607A60FB70BB68002B03D1BB69BA69F3
:102E18001A6002E0BB697A681A60BB69FA685A648A
:102E2800BB69BA689A640121B869FFF79FFE00BFC1
:102E38001037BD4680BD000080B590B000AFF86087
:102E4800B960C7E900230023FB63FB68BB63BB6B66
:102E5800002B0BD14FF0500383F31188BFF36F8F12
:102E6800BFF34F8F3B6300BF00BFFDE7BB68002B7C
:102E780003D1BB6B9B6C002B01D1012300E0002325
:102E8800002B0BD14FF0500383F31188BFF36F8FE2
:102E9800BFF34F8FFB6200BF00BFFDE7BB6C022B87
:102EA80003D1BB6B5B6C012B01D1012300E0002334
:102EB800002B0BD14FF0500383F31188BFF36F8FB2
:102EC800BFF34F8FBB6200BF00BFFDE702F044F8BD
:102ED8000346002B03D1D7E90023134301D1012373
:102EE80000E00023002B0BD14FF0500383F311882F
:102EF800BFF36F8FBFF34F8F7B6200BF00BFFDE74B
:102F080002F024FBBB6B1A6CBB6B5B6C9A4202D35E
:102F1800BB6C022B29D1BA6CB968B86B00F0CAFA3D
:102F28007863BB6B9B6A002B10D0BB6B28331846A9
:102F380001F0B2FD0346002B13D0414B4FF08052F5
:102F48001A60BFF34F8FBFF36F8F0AE07B6B002BC4
:102F580007D03B4B4FF080521A60BFF34F8FBFF33F
:102F68006F8F02F025FB012365E0D7E900231343A7
:102F780003D102F01DFB00235DE0FB6B002B06D1A3
:102F880007F11003184601F063FE0123FB6302F00A
:102F98000FFB01F013FA02F0D9FABB6B93F84C302F
:102FA8005BB2B3F1FF3F03D1BB6B002283F84C2027
:102FB800BB6B93F84D305BB2B3F1FF3F03D1BB6BF2
:102FC800002283F84D2002F0F3FA3A4607F1100385
:102FD8001146184601F054FE0346002B25D1B86B64
:102FE80000F060FB0346002B19D0BB6B03F1100106
:102FF800D7E90023084601F0DDFCB86B00F0EAFAD7
:1030080001F0EAF90346002B7FF47AAF0C4B4FF03E
:1030180080521A60BFF34F8FBFF36F8F70E7B86BA2
:1030280000F0D8FA01F0D8F96AE7B86B00F0D2FAE4
:1030380001F0D2F9002318464037BD4680BD00BFD5
:1030480004ED00E080B590B000AFF860B9607A6038
:103058003B60FB68BB63BB6B002B08D0BB68002BD5
:1030680003D1BB6B9B6C002B01D1012300E0002333
:10307800002B0BD14FF0500383F31188BFF36F8FF0
:10308800BFF34F8F7B6200BF00BFFDE7BB6B002B18
:1030980008D03B68022B03D1BB6B5B6C012B01D1C1
:1030A800012300E00023002B0BD14FF0500383F3E2
:1030B8001188BFF36F8FBFF34F8F3B6200BF00BF14
:1030C800FDE702F019FBEFF311824FF0500383F391
:1030D8001188BFF36F8FBFF34F8FFA61BB61FB6934
:1030E8007B63BB6B1A6CBB6B5B6C9A4202D33B680D
:1030F800022B47D1BB6B93F84D3087F83330BB6B4D
:103108001B6CFB623A68B968B86B00F0D3F997F9A1
:103118003330B3F1FF3F12D1BB6B9B6A002B2ED02B
:10312800BB6B2833184601F0B7FC0346002B26D0AA
:103138007B68002B23D07B6801221A601FE001F016
:1031480077FAB86297F93330BA6A9A4217D997F979
:1031580033307F2B0BD14FF0500383F31188BFF32B
:103168006F8FBFF34F8F7B6100BF00BFFDE797F8FC
:1031780033300133DBB25AB2BB6B83F84D200123E5
:10318800FB6301E00023FB637B6B3B613B6983F3DB
:10319800118800BFFB6B18464037BD4680BD80B51F
:1031A8008EB000AF786039607B683B633B6B002B67
:1031B80005D03B6B9B6C002B01D1012300E0002361
:1031C800002B0BD14FF0500383F31188BFF36F8F9F
:1031D800BFF34F8FFB6100BF00BFFDE73B6B002BC8
:1031E80009D03B6B1B68002B03D13B6B9B68002B02
:1031F80001D1012300E00023002B0BD14FF0500335
:1032080083F31188BFF36F8FBFF34F8FBB6100BF8C
:1032180000BFFDE702F070FAEFF311824FF05003A0
:1032280083F31188BFF36F8FBFF34F8F7A613B61D0
:103238007B69FB623B6B1B6CBB623B6B5B6CBA6A6A
:103248009A4243D23B6B93F84D3087F82730BB6ADC
:103258005A1C3B6B1A6497F92730B3F1FF3F12D120
:103268003B6B9B6A002B2ED03B6B2833184601F032
:1032780013FC0346002B26D03B68002B23D03B6869
:1032880001221A601FE001F0D3F9386297F927305C
:103298003A6A9A4217D997F927307F2B0BD14FF00A
:1032A800500383F31188BFF36F8FBFF34F8FFB6019
:1032B80000BF00BFFDE797F827300133DBB25AB2F1
:1032C8003B6B83F84D2001237B6301E000237B6384
:1032D800FB6ABB60BB6883F3118800BF7B6B184631
:1032E8003837BD4680BD000080B58EB000AFF860AD
:1032F800B960C7E9002300237B63FB683B633B6B32
:10330800002B0BD14FF0500383F31188BFF36F8F5D
:10331800BFF34F8FBB6200BF00BFFDE7BB68002B48
:1033280003D13B6B9B6C002B01D1012300E00023F0
:10333800002B0BD14FF0500383F31188BFF36F8F2D
:10334800BFF34F8F7B6200BF00BFFDE701F004FEB3
:103358000346002B03D1D7E90023134301D10123EE
:1033680000E00023002B0BD14FF0500383F31188AA
:10337800BFF36F8FBFF34F8F3B6200BF00BFFDE706
:1033880002F0E4F83B6B1B6CFB62FB6A002B1FD05E
:10339800B968386B00F0F8F8FB6A5A1E3B6B1A6480
:1033A8003B6B1B69002B0FD03B6B1033184601F0A9
:1033B80073FB0346002B07D03D4B4FF080521A6039
:1033C800BFF34F8FBFF36F8F02F0F2F801236BE06A
:1033D800D7E90023134303D102F0EAF8002363E09E
:1033E8007B6B002B06D107F11003184601F030FC67
:1033F80001237B6302F0DCF800F0E0FF02F0A6F89E
:103408003B6B93F84C305BB2B3F1FF3F03D13B6B9E
:10341800002283F84C203B6B93F84D305BB2B3F13C
:10342800FF3F03D13B6B002283F84D2002F0C0F828
:103438003A4607F110031146184601F021FC0346ED
:10344800002B24D1386B00F017F90346002B18D055
:103458003B6B03F12801D7E90023084601F0AAFADB
:10346800386B00F0B7F800F0B7FF0346002B87D1A0
:103478000F4B4FF080521A60BFF34F8FBFF36F8F1F
:103488007EE7386B00F0A6F800F0A6FF78E7386B07
:1034980000F0A0F800F0A0FF386B00F0EDF803464C
:1034A800002B3FF46DAF002318463837BD4680BD6A
:1034B80004ED00E080B586B000AFF860B9607A60CE
:1034C80000237B61FB681B6C3B61FB689B6C002BDA
:1034D8000DD1FB681B68002B4DD1FB689B68184613
:1034E80001F058FD7861FB6800229A6043E07B6830
:1034F800002B19D1FB685868FB689B6C1A46B968A1
:1035080003F0D0FAFB685A68FB689B6C1A44FB68A6
:103518005A60FB685A68FB689B689A422BD3FB6821
:103528001A68FB685A6026E0FB68D868FB689B6CE1
:103538001A46B96803F0B6FAFB68DA68FB689B6C50
:103548005B421A44FB68DA60FB68DA68FB681B6850
:103558009A4207D2FB689A68FB689B6C5B421A44E4
:10356800FB68DA607B68022B05D13B69002B02D02F
:103578003B69013B3B613B695A1CFB681A647B69E8
:1035880018461837BD4680BD80B582B000AF786058
:1035980039607B689B6C002B18D07B68DA687B6885
:1035A8009B6C1A447B68DA607B68DA687B689B6886
:1035B8009A4203D37B681A687B68DA607B68D968AB
:1035C8007B689B6C1A46386803F06CFA00BF0837B2
:1035D800BD4680BD80B584B000AF786001F0B6FF0D
:1035E8007B6893F84D30FB7311E07B689B6A002B76
:1035F80012D07B682833184601F04EFA0346002B98
:1036080001D001F0C7FBFB7B013BDBB2FB7397F9F1
:103618000F30002BE9DC00E000BF7B68FF2283F855
:103628004D2001F0C5FF01F091FF7B6893F84C3005
:10363800BB7311E07B681B69002B12D07B681033C9
:10364800184601F029FA0346002B01D001F0A2FB2D
:10365800BB7B013BDBB2BB7397F90E30002BE9DC77
:1036680000E000BF7B68FF2283F84C2001F0A0FF38
:1036780000BF1037BD4680BD80B584B000AF78600C
:1036880001F064FF7B681B6C002B02D10123FB60F7
:1036980001E00023FB6001F08BFFFB681846103740
:1036A800BD4680BD80B584B000AF786001F04EFFA4
:1036B8007B681A6C7B685B6C9A4202D10123FB60C1
:1036C80001E00023FB6001F073FFFB681846103728
:1036D800BD4680BD80B588B002AFF860C7E9002359
:1036E800FB687B6101F032FF7B6993F84C305BB279
:1036F800B3F1FF3F03D17B69002283F84C207B693B
:1037080093F84D305BB2B3F1FF3F03D17B690022E0
:1037180083F84D2001F04CFF7B691B6C002B09D10D
:103728007B6903F128013B6A0093D7E90023084627
:1037380001F068F97869FFF74DFF00BF1837BD46FB
:1037480080BD000080B58AB004AF00237B6100F023
:10375800EFFA1D4B1B68002B21D00023FB600023D0
:10376800BB603A1D07F1080107F10C03184601F088
:1037780059FD7968BB68FA6802920193092300939E
:1037880000230A461149124800F067FB0346114A14
:103798001360104B1B68002B01D001237B617B69F0
:1037A800002B0BD14FF0500383F31188BFF36F8FB9
:1037B800BFF34F8F3B6100BF00BFFDE77B69184631
:1037C8001837BD4680BD00BFB8000020886B0008D0
:1037D800B9380008BC0000202DE9B04388B004AF18
:1037E800F860C7E900230DE0FB68D3E90823D7E9AF
:1037F8000001841841EB0305C7E90045FB68DB6A53
:10380800F8689847FB68D3E90801D7E9002310EB6B
:10381800020841EB0309D7E90023CDE90223D7E9E0
:103828000A23CDE9002342464B46F86800F006F922
:103838000346002BD8D100BF00BF1037BD46BDE8F6
:10384800B083000080B588B002AFC7E90201C7E9BC
:103858000023164B1B681B691B697B617B69083356
:103868001846FFF759F97B6993F8303003F00403E1
:10387800002B09D0D7E90023CDE90023D7E902239B
:103888007869FFF7A9FF08E07B6993F8303023F0E7
:103898000103DAB27B6983F830207B69DB6A7869D7
:1038A800984700BF1837BD4680BD00BFB000002054
:1038B80080B586B000AF786007F10C03184600F0B9
:1038C80069F8C7E90401FB681A46D7E9040100F062
:1038D80005F800F009F900BFEEE70000F0B58BB07D
:1038E80002AFC7E902017A6000F068FD07F114032E
:1038F800184600F07BF8C7E906017B69002B3DD12B
:103908007B68002B10D1D7E90223D7E90601904242
:1039180071EB030308D300F05FFDD7E90623D7E96D
:103928000201FFF78FFF2BE07B68002B08D0164BB6
:103938001B681B68002B01D1012300E000237B607A
:10394800124B1E68D7E90201D7E90623841A61EBF6
:1039580003057B68009322462B463046FFF7BAFEE4
:1039680000F03AFD0346002B0AD1094B4FF0805274
:103978001A60BFF34F8FBFF36F8F01E000F02CFD8B
:1039880000BF2437BD46F0BDB4000020B8000020B9
:1039980004ED00E080B485B000AF7860124B1B687E
:1039A8001B68002B01D1012200E000227B681A600D
:1039B8007B681B68002B07D10B4B1B681B69D3E97D
:1039C8000023C7E9022305E04FF000024FF000038F
:1039D800C7E90223D7E90223104619461437BD4622
:1039E8005DF8047B704700BFB000002080B584B04C
:1039F80000AF786000F006FEC7E902010E4BD3E97C
:103A08000023D7E90201904271EB030305D200F0CD
:103A180065F97B6801221A6002E07B6800221A605F
:103A28000549D7E90223C1E90023D7E90223104653
:103A380019461037BD4680BDC0000020B0B586B01D
:103A480000AFF860C7E9002300237B61F968D7E974
:103A58000023C1E90223FB68FA689A61D7E90023C9
:103A6800D7E90A01904271EB030319D3D7E90A0198
:103A7800D7E90C23841A61EB0305FB68D3E9082313
:103A8800944275EB030302D301237B6123E0144BBB
:103A98001A68FB68083319461046FEF7FAFF1AE061
:103AA800D7E90A01D7E90C23904271EB03030AD244
:103AB800D7E90001D7E90C23904271EB030302D345
:103AC80001237B6107E0074B1A68FB680833194636
:103AD8001046FEF7DEFF7B6918461837BD46B0BDB5
:103AE800B4000020B00000202DE9B04F92B004AF20
:103AF80007F1080300221A605A609A60DA601A61B6
:103B08005A61D4E0BB68002BC0F2D180BB697B63EB
:103B18007B6B002B00F0CB807B6BDB69002B04D028
:103B28007B6B08331846FEF7F7FF3B1D1846FFF777
:103B38005DFFC7E90A01BB68013B082B00F2B480AE
:103B480001A252F823F000BF753B0008753B00083E
:103B5800073C00081B3C0008873C0008753B000830
:103B6800753B0008073C00081B3C00087B6B93F87A
:103B7800303043F00103DAB27B6B83F83020D7E9A9
:103B880004017B6BD3E90823841841EB0305D7E9CB
:103B98000423CDE90223D7E90A23CDE900232246ED
:103BA8002B46786BFFF74AFF0346002B7ED07B6BD2
:103BB80093F8303003F00403002B12D0D7E9040146
:103BC8007B6BD3E9082310EB020841EB0309D7E923
:103BD8000A23CDE9002342464B46786BFFF7FCFDEC
:103BE80008E07B6B93F8303023F00103DAB27B6B8B
:103BF80083F830207B6BDB6A786B984756E07B6BE9
:103C080093F8303023F00103DAB27B6B83F830206D
:103C18004DE07B6B93F8303043F00103DAB27B6BF5
:103C280083F83020D7E90423796BC1E908237B6B3B
:103C3800D3E9082313430BD14FF0500383F31188C2
:103C4800BFF36F8FBFF34F8F7B6200BF00BFFDE7ED
:103C58007B6BD3E90801D7E90A2310EB020A41EB91
:103C6800030BD7E90A23CDE90223D7E90A23CDE9D3
:103C7800002352465B46786BFFF7E0FE17E07B6B4C
:103C880093F8303003F00203002B03D1786B01F076
:103C9800ADFE0CE07B6B93F8303023F00103DAB211
:103CA8007B6B83F8302002E000BF00E000BF0A4BC6
:103CB800186807F108014FF000024FF00003FFF702
:103CC80013FB0346002B7FF41DAF00BF00BF38373E
:103CD800BD46BDE8B08F00BFB800002080B584B0F5
:103CE80000AF0EE0104B1B681B69D3E90023C7E93E
:103CF80000234FF0FF324FF0FF33D7E90001FFF701
:103D0800A1FD094B1B681B68002BEBD1064B1B68F8
:103D1800FB60064B1B68044A1360044AFB68136087
:103D280000BF1037BD4680BDB0000020B4000020A1
:103D380080B582B002AF01F009FC104B1B68002B64
:103D480016D10F48FEF775FE0E48FEF772FE0E4BB1
:103D58000B4A1A600D4B0B4A1A60002300930C4B58
:103D68000C4A18210A20FEF793FF0346034A136002
:103D780001F01EFC00BFBD4680BD00BFB80000209A
:103D88008000002098000020B0000020B40000202F
:103D9800B8010020C800002080B58EB004AFF860DC
:103DA800B9607A603B607B6B002B0BD14FF05003FE
:103DB80083F31188BFF36F8FBFF34F8F3B6200BF50
:103DC80000BFFDE7BB6B002B0BD14FF0500383F313
:103DD8001188BFF36F8FBFF34F8FFB6100BF00BF28
:103DE800FDE760237B617B69602B0BD04FF05003AC
:103DF80083F31188BFF36F8FBFF34F8FBB6100BF91
:103E080000BFFDE77B69BB6B002B1FD07B6B002BD2
:103E18001CD0BB6B7B6260220021786A02F016FE20
:103E28007B6A7A6BDA637B6A022283F85D2000235F
:103E380003937B6A0293FB6B01933B6B00933B6894
:103E48007A68B968F86800F08FF801E000237B62AF
:103E58007B6A18462837BD4680BD80B58AB004AF56
:103E6800F860B9607A603B6000233B6107F110039A
:103E78000393BB6A02937B6A01933B6A00933B6896
:103E88007A68B968F868FFF787FF78617B69002B63
:103E980002D0786900F002F93B6918461837BD4628
:103EA80080BD80B58AB004AFF860B9607A603B60C5
:103EB8007B689B00184601F061FC38613B69002B68
:103EC80013D0602001F05AFC78617B69002B08D080
:103ED80060220021786902F0B9FD7B693A69DA63EA
:103EE80005E0386901F082FD01E000237B617B6910
:103EF800002B11D07B69002283F85D2000230393F7
:103F08007B6902937B6A01933B6A00933B687A68FA
:103F1800B968F86800F028F87B6918461837BD4674
:103F280080BD80B588B002AFF860B9607A603B6048
:103F38007B6A01933B6A00933B687A68B968F868C2
:103F4800FFF7AFFF38613B69002B05D0386900F0F7
:103F5800A5F801237B6102E04FF0FF337B617B69A9
:103F680018461837BD4680BD2DE9B04388B000AF6C
:103F7800F860B9607A603B603B6CD86B7B689B00EB
:103F88001A46A52102F062FD3B6CDA6B7B6803F1EF
:103F98008043013B9B001344BB61BB6923F00703CB
:103FA800BB61BB6903F00703002B0BD04FF0500334
:103FB80083F31188BFF36F8FBFF34F8F7B6100BF0F
:103FC80000BFFDE7BB68002B1ED00023FB6112E099
:103FD800BA68FB69134419783A6CFB691344403397
:103FE8000A461A70BA68FB6913441B78002B06D07E
:103FF800FB690133FB61FB690F2BE9D900E000BFC6
:104008003B6C002283F84F20BB6B092B0BD94FF078
:10401800500383F31188BFF36F8FBFF34F8F3B615A
:1040280000BF00BFFDE7BB6B092B01D90923BB63A8
:104038003B6CBA6B9A633B6CBA6B1A653B6C083382
:104048001846FEF719FD3B6C20331846FEF714FDA1
:104058003B6C3A6C9A61BB6B00221C4615460023E8
:10406800D4F10A0863EB05093B6CC3E908893B6C8A
:104078003A6C1A633A68F968B86901F0EDF80246D3
:104088003B6C1A60FB6B002B02D0FB6B3A6C1A601E
:1040980000BF2037BD46BDE8B083000080B584B0BE
:1040A80000AF786001F052FA404B1B6801333F4A79
:1040B80013603F4B1B68002B09D13D4A7B68136096
:1040C8003A4B1B68012B10D100F088FE0DE0394BEC
:1040D8001B68002B09D1364B1B689A6B7B689B6B5E
:1040E8009A4202D8324A7B681360334B1B6801330B
:1040F800314A13607B689A6B304B1B689A4203D92C
:104108007B689B6B2D4A13607B689A6B2C4913461E
:104118005B001344DB000B4404331B68FB607B68C3
:10412800FA681A61FB68DA687B685A61FB68DB68C1
:104138007A6808329A607B6803F10802FB68DA60E3
:104148007B689A6B13465B001344DB001C4A1A44D5
:104158007B68DA617B689A6B194913465B001344E4
:10416800DB000B441B687A68926B591C1448134691
:104178005B001344DB000344196001F019FA0D4B8E
:104188001B68002B0ED00A4B1B689A6B7B689B6BD5
:104198009A4207D20B4B4FF080521A60BFF34F8FF1
:1041A800BFF36F8F00BF1037BD4680BD8803002066
:1041B800080200209C030020B00300209803002080
:1041C8001002002004ED00E080B584B000AFC7E91C
:1041D80000010023FB60D7E90023134319D000F046
:1041E800EDF8134B1B68012B0BD04FF0500383F3F2
:1041F8001188BFF36F8FBFF34F8FBB6000BF00BF45
:10420800FDE70022D7E9000100F068FF00F0E4F8BC
:10421800F860FB68002B07D1064B4FF080521A60FC
:10422800BFF34F8FBFF36F8F00BF1037BD4680BD00
:10423800C403002004ED00E080B590B004AF012372
:10424800FB6207F1100300221A605A609A60DA6074
:1042580000233B6200237B6213E02F4A7B6A1344EE
:10426800197807F110027B6A13440A461A7007F19D
:1042780010027B6A13441B78002B06D07B6A01333B
:104288007B627B6A0E2BE8D900E000BF07F11002C1
:104298007B6A134400221A700023BB6231E01F4B73
:1042A8003B620023FB600023BB603A1D07F1080155
:1042B80007F10C03184600F09BFF7868BB68FA68A2
:1042C80007F1100102920193002300930023024694
:1042D800386AFFF7C2FD02461149BB6A41F823203C
:1042E8000F4ABB6A52F82330002B02D00123FB622D
:1042F80001E00023FB62FB6A012B06D1BB6A013394
:10430800BB62BB6A002BCADD00E000BFFB6A18462F
:104318003037BD4680BD00BF906B0008B54D000822
:10432800C003002080B584B000AFFFF785FFF860B8
:10433800FB68012B02D1FFF705FAF860FB68012B37
:104348001DD14FF0500383F31188BFF36F8FBFF374
:104358004F8FBB6000BF15494FF0FF324FF0FF335E
:10436800C1E90023124B01221A6012494FF00002E2
:104378004FF00003C1E9002300F0F8FF0FE0FB68ED
:10438800B3F1FF3F0BD14FF0500383F31188BFF314
:104398006F8FBFF34F8F7B6000BF00BFFDE7064BF9
:1043A8001B6800BF1037BD4680BD00BFB8030020A2
:1043B8009C03002090030020C06B000880B400AF6D
:1043C800044B1B680133034A136000BFBD465DF808
:1043D800047B7047C4030020B0B58AB000AF002347
:1043E8007B6200233B6201F0B1F800237B617C4BC8
:1043F8001B68002B0BD14FF0500383F31188BFF3D8
:104408006F8FBFF34F8F7B6000BF00BFFDE7744B1A
:104418001B68013B724A1360714B1B68002B40F00C
:10442800D880704B1B68002B00F0D38090E06E4B57
:104438001B691B697B627B6A5B6B3B617B6A9B6A5E
:104448007A6AD26ADA607B6ADB6A7A6A926A9A6006
:104458003B695A687B6A20339A4203D17B6ADA6ADD
:104468003B695A607B6A00225A633B691B685A1E83
:104478003B691A607B6ADB69FB607B6A1B697A6A45
:104488005269DA607B6A5B697A6A12699A60FB68CA
:104498005A687B6A08339A4203D17B6A5A69FB6877
:1044A8005A607B6A0022DA61FB681B685A1EFB6847
:1044B8001A607B6A9A6B4D4B1B689A4203D97B6AD8
:1044C8009B6B4A4A13607B6A9A6B494913465B00A7
:1044D8001344DB000B4404331B68BB607B6ABA6877
:1044E8001A61BB68DA687B6A5A61BB68DB687A6AFA
:1044F80008329A607B6A03F10802BB68DA607B6A5B
:104508009A6B13465B001344DB00394A1A447B6AF2
:10451800DA617B6A9A6B364913465B001344DB0009
:104528000B441B687A6A926B591C314813465B002E
:104538001344DB00034419607B6A9A6B2D4B1B689C
:104548009B6B9A4204D92C4A7B69012142F82310BB
:10455800254B1B68002B7FF46AAF7B6A002B01D0C8
:1045680000F0DAFC254BD3E90023C7E90623D7E995
:10457800062313431BD000F067F80346002B04D032
:104588001D4A7B69012142F82310D7E90623541EEE
:1045980043F1FF35C7E90645D7E906231343EAD1B6
:1045A80016494FF000024FF00003C1E90023124AF8
:1045B8007B6952F82330002B0BD001233B620D4B53
:1045C8001B680F4B4FF080521A60BFF34F8FBFF339
:1045D8006F8F00F0EDFF3B6A18462837BD46B0BD27
:1045E800C40300208803002038030020980300201B
:1045F8001002002008020020A8030020A0030020C9
:1046080004ED00E080B582B000AF00F09FFF074BDB
:10461800D3E90023C7E9002300F0CAFFD7E9002344
:10462800104619460837BD4680BD00BF90030020DC
:1046380080B400AF034B1B681846BD465DF8047B89
:10464800704700BF88030020B0B58CB000AF0023CE
:10465800FB62864B1B68002B40F0F980844BD3E942
:104668000023541C43F10005C7E908458049D7E9F0
:104678000823C1E90023D7E90823134321D17D4B3F
:104688001B681B68002B0BD04FF0500383F3118875
:10469800BFF36F8FBFF34F8F3B6000BF00BFFDE7D5
:1046A800744B1B68FB61744B1B68724A1360724A37
:1046B800FB691360714B1B680133704A136000F08B
:1046C8002BFC6F4BD3E90023D7E90801904271EB2B
:1046D8000303C0F0B580674B1B681B68002B07D12C
:1046E80067494FF0FF324FF0FF33C1E90023A7E0DD
:1046F800604B1B681B691B69BB61BB69D3E902235B
:10470800C7E90423D7E90801D7E90423904271EBEC
:10471800030305D25A49D7E90423C1E900238FE0EE
:10472800BB69DB69FB60BB691B69BA695269DA60FE
:10473800BB695B69BA6912699A60FB685A68BB69A8
:1047480008339A4203D1BB695A69FB685A60BB694E
:104758000022DA61FB681B685A1EFB681A60BB6995
:104768005B6B002B1ED0BB695B6BBB60BB699B6A34
:10477800BA69D26ADA60BB69DB6ABA69926A9A6016
:10478800BB685A68BB6920339A4203D1BB69DA6AAD
:10479800BB685A60BB6900225A63BB681B685A1E13
:1047A800BB681A60BB699A6B364B1B689A4203D97F
:1047B800BB699B6B334A1360BB699A6B32491346DA
:1047C8005B001344DB000B4404331B687B60BB694C
:1047D8007A681A617B68DA68BB695A617B68DB684A
:1047E800BA6908329A60BB6903F108027B68DA602B
:1047F800BB699A6B13465B001344DB00224A1A44D8
:10480800BB69DA61BB699A6B1F4913465B001344A5
:10481800DB000B441B68BA69926B591C1A48134693
:104828005B001344DB0003441960BB699A6B174BA8
:104838001B689B6B9A427FF64EAF0123FB624AE7E7
:10484800134B1B68002B0BD00123FB6208E0114BB4
:10485800D3E90023501C43F100010E4BC3E90001CA
:10486800FB6A18463037BD46B0BD00BFC403002000
:10487800900300203003002034030020AC03002004
:10488800B80300209803002010020020080200202E
:10489800A8030020A003002080B586B000AF404BDD
:1048A8001B68002B03D03F4B01221A6073E03D4B7D
:1048B80000221A603C4B1B68DB6B3B614FF0A53351
:1048C800FB60394B1B681A68374B1B68DB6B9A42D5
:1048D80016D93B691B68FA689A4211D13B690433BF
:1048E8001B68FA689A420BD13B6908331B68FA685F
:1048F8009A4205D13B690C331B68FA689A4209D081
:10490800294B1B684033BB60274B1B68B9681846A6
:10491800FBF762FF254B1B687B6111E07B69002B6D
:104928000BD14FF0500383F31188BFF36F8FBFF3A0
:104938004F8F3B6000BF00BFFDE77B69013B7B6198
:104948001B497A6913465B001344DB000B441B6860
:10495800002BE3D07A6913465B001344DB00144A4A
:1049680013447B607B685B689A687B685A607B68E5
:104978005A687B6808339A4203D17B681A697B6856
:104988005A607B685B681B69074A1360074A7B6942
:104998001360054B1B6800BF1837BD4680BD00BFBC
:1049A800C4030020A8030020080200209803002068
:1049B8001002002080B586B000AFF860C7E9002378
:1049C800FB68002B0BD14FF0500383F31188BFF322
:1049D8006F8FBFF34F8F7B6100BF00BFFDE7084BB0
:1049E8001B6820331946F868FEF753F80122D7E907
:1049F800000100F073FB00BF1837BD4680BD00BF43
:104A08000802002080B586B000AFF860C7E900232F
:104A1800FB68002B0BD14FF0500383F31188BFF3D1
:104A28006F8FBFF34F8F3B6100BF00BFFDE7FB688F
:104A38005B687B61174B1B687A699A62154B1B6828
:104A48007A69D268DA62134B1A687B69DB682032AC
:104A58009A60104B1B6803F120027B69DA600D4BEA
:104A68001B68FA685A63FB681B685A1CFB681A6063
:104A78003B6A002B05D04FF0FF324FF0FF33C7E9F8
:104A880000233A6AD7E9000100F028FB00BF183775
:104A9800BD4680BD0802002080B48BB000AF7860AE
:104AA8007B681B691B693B623B6A002B0BD14FF08B
:104AB800500383F31188BFF36F8FBFF34F8FFB60F1
:104AC80000BF00BFFDE73B6A5B6BFB613B6A9B6A0B
:104AD8003A6AD26ADA603B6ADB6A3A6A926A9A6030
:104AE800FB695A683B6A20339A4203D13B6ADA6A07
:104AF800FB695A603B6A00225A63FB691B685A1EAD
:104B0800FB691A604C4B1B68002B62D13B6ADB695E
:104B18007B613B6A1B693A6A5269DA603B6A5B6986
:104B28003A6A12699A607B695A683B6A08339A4202
:104B380003D13B6A5A697B695A603B6A0022DA6191
:104B48007B691B685A1E7B691A603B6A9A6B3B4BF0
:104B58001B689A4203D93B6A9B6B384A13603B6ACD
:104B68009A6B374913465B001344DB000B4404334C
:104B78001B683B613B6A3A691A613B69DA683B6AC0
:104B88005A613B69DB683A6A08329A603B6A03F10A
:104B980008023B69DA603B6A9A6B13465B00134470
:104BA800DB00274A1A443B6ADA613B6A9A6B24495C
:104BB80013465B001344DB000B441B683A6A926B94
:104BC800591C1F4813465B001344DB00034419605B
:104BD8001BE01C4B5B68BB613B6ABA699A62BB69A4
:104BE800DA683B6ADA62BB69DB683A6A20329A6043
:104BF8003B6A03F12002BB69DA603B6A114A5A63D7
:104C0800104B1B6801330F4A13603B6A9A6B0E4BBB
:104C18001B689B6B9A4205D901237B620B4B0122CF
:104C28001A6001E000237B627B6A18462C37BD4678
:104C38005DF8047B704700BFC40300209803002080
:104C4800100200203803002008020020A8030020DA
:104C580080B483B000AF7860074B1A687B681A602D
:104C6800064BD3E900237968C1E9022300BF0C375A
:104C7800BD465DF8047B7047AC030020900300201C
:104C88002DE9B0438AB000AF786039607B68002BAB
:104C98000BD14FF0500383F31188BFF36F8FBFF32D
:104CA8004F8FFB6000BF00BFFDE73B68002B0BD1B7
:104CB8004FF0500383F31188BFF36F8FBFF34F8F0B
:104CC800BB6000BF00BFFDE700F040FC2F4BD3E9FD
:104CD8000023C7E906237B68D3E90223D7E9060145
:104CE800B0EB020861EB0309C7E904893B68D3E923
:104CF8000023B3F1FF3F08BFB2F1FF3F02D1002309
:104D08007B623BE07B681A68214B1B689A4212D091
:104D18007B68D3E90223D7E90601904271EB0303CC
:104D280009D301237B6239684FF000024FF000037A
:104D3800C1E9002322E03B68D3E90023D7E9040155
:104D4800904271EB030310D23B68D3E90001D7E925
:104D58000423841A61EB03053B68C3E900457868BE
:104D6800FFF776FF00237B6208E039684FF0000206
:104D78004FF00003C1E9002301237B6200F018FC17
:104D88007B6A18462837BD46BDE8B08390030020EB
:104D9800AC03002080B400AF034B01221A6000BFAF
:104DA800BD465DF8047B7047A803002080B582B03B
:104DB80000AF786000F052F8064B1B68012BF9D958
:104DC800054B4FF080521A60BFF34F8FBFF36F8FC0
:104DD800F0E700BF1002002004ED00E080B582B0CB
:104DE80000AF00237B600CE07A6813465B00134435
:104DF800DB00124A13441846FDF71BFE7B6801339B
:104E08007B607B68092BEFD90D48FDF712FE0D4832
:104E1800FDF70FFE0C48FDF70CFE0C48FDF709FEE8
:104E28000B48FDF706FE0B4B054A1A600A4B054A6C
:104E38001A6000BF0837BD4680BD00BF10020020C1
:104E4800000300201803002038030020500300202E
:104E580070030020300300203403002080B582B0A6
:104E680000AF19E000F072FB104B1B691B697B60F7
:104E78007B6808331846FDF74FFE0D4B1B68013B56
:104E88000B4A13600B4B1B68013B0A4A136000F086
:104E98008FFB786800F010F8064B1B68002BE1D1F7
:104EA80000BF00BF0837BD4680BD00BF50030020CB
:104EB800880300206803002080B584B000AF7860C4
:104EC8007B6893F85D30002B08D17B68DB6B184654
:104ED80000F08CFD786800F089FD19E07B6893F894
:104EE8005D30012B03D1786800F080FD10E07B680D
:104EF80093F85D30022B0BD04FF0500383F31188E9
:104F0800BFF36F8FBFF34F8FFB6000BF00BFFDE79C
:104F180000BF1037BD4680BD80B400AF0C4B1B6886
:104F28001B68002B07D10B494FF0FF324FF0FF33BE
:104F3800C1E9002307E0064B1B681B69D3E900237E
:104F48000449C1E9002300BFBD465DF8047B7047F2
:104F580030030020B803002080B483B000AF0B4BAF
:104F68001B68002B02D101237B6008E0084B1B68FB
:104F7800002B02D102237B6001E000237B607B6869
:104F880018460C37BD465DF8047B70479C0300202B
:104F9800C40300202DE9B04388B000AF78607B6877
:104FA800BB610023FB617B68002B00F08B80484BC2
:104FB8001B68BA699A420BD04FF0500383F31188EB
:104FC800BFF36F8FBFF34F8F3B6100BF00BFFDE79B
:104FD800BB695B6D002B0BD14FF0500383F3118835
:104FE800BFF36F8FBFF34F8FFB6000BF00BFFDE7BC
:104FF800BB695B6D5A1EBB695A65BB699A6BBB6915
:105008001B6D9A425ED0BB695B6D002B5AD1BB69A0
:1050180008331846FDF780FDBB691A6DBB699A63B2
:10502800BB699B6B00221C4615460023D4F10A0875
:1050380063EB0509BB69C3E90889BB699A6B254B12
:105048001B689A4203D9BB699B6B224A1360BB69F0
:105058009A6B214913465B001344DB000B4404336D
:105068001B687B61BB697A691A617B69DA68BB690D
:105078005A617B69DB68BA6908329A60BB6903F1D7
:1050880008027B69DA60BB699A6B13465B001344BC
:10509800DB00114A1A44BB69DA61BB699A6B0E4995
:1050A80013465B001344DB000B441B68BA69926B20
:1050B800591C094813465B001344DB00034419607C
:1050C8000123FB61FB6918462037BD46BDE8B08364
:1050D800080200209803002010020020B0B58CB010
:1050E80000AFC7E902017A603B4BD3E90023C7E967
:1050F8000A233A4B1B687B62394B1B683B62394B6E
:105108001B6808331846FDF707FDD7E90223B3F1FA
:10511800FF3F08BFB2F1FF3F25D17B68002B22D0AB
:10512800314B5B68FB612F4B1B68FA691A612D4B89
:105138001B68FA69D2685A612A4B1A68FB69DB68EE
:1051480008329A60274B1B6803F10802FB69DA6092
:10515800244B1B68244ADA61234B1B680133224A1B
:10516800136000BF33E0D7E90A01D7E902238418A6
:1051780041EB0305C7E904451A4B1968D7E904232D
:10518800C1E90223D7E90401D7E90A23904271EB68
:10519800030307D2134B1B6808331946386AFDF717
:1051A80078FC14E00F4B1B6808331946786AFDF742
:1051B80070FC0E4BD3E90023D7E90401904271EB50
:1051C800030304D20949D7E90423C1E9002300BF36
:1051D8003037BD46B0BD00BF90030020300300202B
:1051E800340300200802002070030020B8030020C8
:1051F80080B485B000AFF860B9607A60FB68074A90
:105208001A60BB68064A1A607B6880221A6000BF71
:105218001437BD465DF8047B704700BFC803002003
:105228002804002080B485B000AFF860B9607A60C7
:10523800FB68074A1A60BB68064A1A607B688022C6
:105248001A6000BF1437BD465DF8047B704700BF85
:10525800280600208806002080B485B000AFF860DA
:10526800B9607A60FB68043BFB60FB684FF08072B2
:105278001A60FB68043BFB60BB6823F00102FB6813
:105288001A60FB68043BFB600C4AFB681A60FB6809
:10529800143BFB607A68FB681A60FB68043BFB60A0
:1052A800FB686FF002021A60FB68203BFB60FB683A
:1052B80018461437BD465DF8047B7047C95200088C
:1052C80080B485B000AF00237B60134B1B68B3F13B
:1052D800FF3F0BD04FF0500383F31188BFF36F8F5C
:1052E800BFF34F8FFB6000BF00BFFDE74FF05003D7
:1052F80083F31188BFF36F8FBFF34F8FBB6000BF7D
:1053080000BF7B68002BFCD000BF00BF1437BD4630
:105318005DF8047B704700BF0C000020064B19683D
:105328000868B0E8F04F80F30988BFF36F8F4FF03B
:10533800000080F3118870470802002000BF00BFFA
:1053480008480068006880F308884FF0000080F380
:10535800148862B661B6BFF34F8FBFF36F8F00DF5B
:1053680000BF000008ED00E000BF00BF80B58CB0B2
:1053780000AF694B1B68694A93420BD14FF0500349
:1053880083F31188BFF36F8FBFF34F8F3B6200BF6A
:1053980000BFFDE7604B1B68614A93420BD14FF099
:1053A800500383F31188BFF36F8FBFF34F8F7B6276
:1053B80000BF00BFFDE75B4B1B68FB62FB6A2C3339
:1053C8001B68594A93420BD04FF0500383F311885E
:1053D800BFF36F8FBFF34F8FFB6100BF00BFFDE7C7
:1053E800FB6A38331B68514A93420BD04FF0500385
:1053F80083F31188BFF36F8FBFF34F8FBB6100BF7B
:1054080000BFFDE70023BB60494BBB62BB6A1B784A
:10541800DBB2FB73BB6AFF221A70BB6A1B78DBB274
:10542800FB71FB79DBB203F05003DAB2414B1A701F
:10543800404B1B78002B0BD14FF0500383F311889E
:10544800BFF36F8FBFF34F8F7B6100BF00BFFDE7D6
:10545800FB79DBB2DB4303F05003002B13D04FF092
:10546800500383F31188BFF36F8FBFF34F8F3B61F6
:1054780000BF00BFFDE7BB680133BB60FB79DBB24F
:105488005B00DBB2FB71FB79DBB203F08003802B9E
:10549800F1D0BB68082B03D1274B00221A6004E027
:1054A800BB68C3F10703244A1360234B1B681B0224
:1054B800214A1360204B1B6803F4E0631E4A136003
:1054C800FB7BDAB2BB6A1A701C4B1B681B4A43F49D
:1054D8007F031360194B1B68184A43F07F4313601E
:1054E800174B00221A6000F0DFF8164B00221A60F2
:1054F80000F0F6F8144B1B68134A43F0404313605E
:10550800FFF71EFFFFF7C8F9FFF7DAFE002318467A
:105518003037BD4680BD00BF00ED00E071C20F41CD
:1055280070C20F4108ED00E0255300080D56000831
:1055380000E400E0880800208C08002020ED00E04E
:105548001CED00E00C00002034EF00E080B483B0D4
:1055580000AF4FF0500383F31188BFF36F8FBFF391
:105568004F8F7B6000BF104B1B6801330E4A1360DE
:105578000D4B1B68012B10D10C4B1B68DBB2002BA9
:105588000BD04FF0500383F31188BFF36F8FBFF335
:105598004F8F3B6000BF00BFFDE700BF0C37BD4623
:1055A8005DF8047B704700BF0C00002004ED00E0AC
:1055B80080B483B000AF124B1B68002B0BD14FF0A7
:1055C800500383F31188BFF36F8FBFF34F8F7B6056
:1055D80000BF00BFFDE70A4B1B68013B084A136088
:1055E800074B1B68002B05D100233B603B6883F306
:1055F800118800BF00BF0C37BD465DF8047B7047BB
:105608000C000020EFF30980BFF36F8F134B1A686B
:105618001EF0100F08BF20ED108A20E9F04F10602F
:1056280009B44FF0500080F31188BFF34F8FBFF3D8
:105638006F8FFFF731F94FF0000080F3118809BC34
:1056480019680868B0E8F04F1EF0100F08BFB0ECFA
:10565800108A80F30988BFF36F8F70470802002013
:1056680000BF00BF80B582B000AF4FF0500383F396
:105678001188BFF36F8FBFF34F8F7B6000BFFEF7BA
:10568800E3FF0346002B03D0064B4FF080521A600D
:1056980000233B603B6883F3118800BF00BF0837D5
:1056A800BD4680BD04ED00E080B400AF084B002289
:1056B8001A60084B00221A60074B084A1A60044B0C
:1056C80007221A6000BFBD465DF8047B704700BF23
:1056D80010E000E018E000E014E000E0FF700200D5
:1056E800DFF80C00016841F47001016070470000A8
:1056F80088ED00E000BF00BF80B485B000AFEFF3D5
:105708000583FB60FB680F2B15D9184AFB68134407
:105718001B78FB72164B1B78FA7A9A420BD24FF021
:10572800500383F31188BFF36F8FBFF34F8F7B60F4
:1057380000BF00BFFDE70F4B1B6803F4E0620E4B90
:105748001B689A420BD94FF0500383F31188BFF3BB
:105758006F8FBFF34F8F3B6000BF00BFFDE700BFF7
:105768001437BD465DF8047B704700BFF0E300E0E6
:10577800880800200CED00E08C08002080B58EB071
:1057880000AF78600023FB620023BB627B68002BBC
:1057980022D00823DB437A689A421BD808227B6808
:1057A80013447B607B6803F00703002B14D07B68ED
:1057B80003F00703C3F108037B627B6ADB437A6863
:1057C8009A4204D87A687B6A13447B6004E0002319
:1057D8007B6001E000237B60FEF7F0FD7C4B1B68DB
:1057E800002B01D100F088F97B68002BC0F2D7802C
:1057F8007B68002B00F0D380764B1B687A689A424E
:1058080000F2CD80744B3B63734B1B687B637B6BEF
:10581800724A934205D37B6B714A934201D80123A4
:1058280000E00023002B29D14FF0500383F31188A7
:10583800BFF36F8FBFF34F8FFB6100BF00BFFDE762
:105848007B6B3B637B6B1B687B637B6B634A93421D
:1058580005D37B6B624A934201D8012300E0002301
:10586800002B0BD14FF0500383F31188BFF36F8FD8
:10587800BFF34F8FBB6100BF00BFFDE77B6B5B6869
:105888007A689A4203D97B6B1B68002BD8D1504B9E
:105898001B687A6B9A4200F082803B6B1B68082277
:1058A8001344FB62FB6A4D4A934205D3FB6A4C4A98
:1058B800934201D8012300E00023002B0BD14FF0C5
:1058C800500383F31188BFF36F8FBFF34F8F7B6152
:1058D80000BF00BFFDE77B6B1A683B6B1A607B6BF0
:1058E8005B687A689A420BD94FF0500383F31188AA
:1058F800BFF36F8FBFF34F8F3B6100BF00BFFDE762
:105908007B6B5A687B68D21A08235B009A4224D9B9
:105918007A6B7B6813443B623B6A03F00703002BF6
:105928000BD04FF0500383F31188BFF36F8FBFF391
:105938004F8FFB6000BF00BFFDE77B6B5A687B6839
:10594800D21A3B6A5A607B6B7A685A603B6B1A685A
:105958003B6A1A603B6B3A6A1A601E4B1A687B6B8B
:105968005B68D31A1B4A13601A4B1A681D4B1B68D5
:105978009A4203D2174B1B681A4A13607B6B5B6809
:10598800BB627B6B5B6843F000427B6B5A607B6B4E
:1059980000221A60144B1B680133134A1360FEF788
:1059A8001BFDFB6A03F00703002B0BD04FF05003DD
:1059B80083F31188BFF36F8FBFF34F8FBB6000BFB6
:1059C80000BFFDE7FB6A18463837BD4680BD00BFFB
:1059D800985800209C5800209058002090080020DB
:1059E8008F580020A0580020A458002080B588B007
:1059F80000AF78607B68FB617B68002B70D0082360
:105A08005B42FA691344FB61FB69BB61BB69364AB7
:105A1800934205D3BB69354A934201D8012300E07C
:105A28000023002B0BD14FF0500383F31188BFF3F1
:105A38006F8FBFF34F8F7B6100BF00BFFDE7BB696E
:105A48005B68002B0BDB4FF0500383F31188BFF327
:105A58006F8FBFF34F8F3B6100BF00BFFDE7BB698E
:105A68001B68002B0BD04FF0500383F31188BFF352
:105A78006F8FBFF34F8FFB6000BF00BFFDE7BB69AF
:105A88005B68002B2CDABB691B68002B28D1BB692B
:105A98005B6823F00042BB695A60BB695B680822F7
:105AA80093420AD30822FB699818BB695B680822ED
:105AB8009B1A1A46002100F0C9FFFEF77FFCBB695C
:105AC8005A680B4B1B681344094A1360B86900F005
