:020000040800F2
:100000000080002095270008E5270008E527000864
:10001000E5270008E5270008E527000800000000A4
:100020000000000000000000000000007532000821
:10003000E52700080000000099320008FD320008A2
:10004000E5270008E5270008E5270008E527000860
:10005000E5270008E5270008E5270008E527000850
:10006000E5270008E5270008E5270008E527000840
:10007000E5270008E5270008E5270008E527000830
:10008000E527000800000000E5270008E527000834
:10009000E527000869390008E5270008E52700087A
:1000A000E5270008E5270008E5270008E527000800
:1000B000E5270008E5270008E5270008E5270008F0
:1000C000E5270008E5270008E5270008E5270008E0
:1000D000E52700084934000815350008E135000817
:1000E000E5270008E5270008E5270008E5270008C0
:1000F000E5270008E5270008E527000800000000C4
:1001000000000000E527000800000000E5270008C7
:10011000E527000800000000511F0008E52700083F
:10012000E5270008E5270008E5270008E52700087F
:10013000E52700080000000000000000E527000897
:10014000E5270008E5270008000000000000000087
:10015000000000000000000000000000000000009F
:10016000000000000000000000000000E52700087B
:10017000E52700080000000000000000000000006B
:1001800000000000E527000800000000000000005B
:1001900000000000E527000800000000000000004B
:1001A0000000000000000000E5270008E527000827
:1001B000E5270008E5270008E52700080000000003
:1001C00000000000E527000800000000000000001B
:0801D000E5270008E5270008FF
:1001D8000348044B834202D0034B03B118477047CE
:1001E8000C0000200C000020000000000548064B11
:1001F8001B1AD90F01EBA301491002D0034B03B11D
:10020800184770470C0000200C0000200000000078
:1002180010B5064C237843B9FFF7DAFF044B13B146
:100228000448AFF300800123237010BD10000020A4
:10023800000000007C39000808B5044B1BB10449D4
:100248000448AFF30080BDE80840CFE70000000095
:10025800140000207C39000870B50F4B0F4DAB42DD
:10026800A3EB050607D0B610002455F8043B01346B
:100278009847A642F9D803F07DFB094D094B5E1B50
:10028800AB424FEAA60606D0002455F8043B0134D9
:100298009847A642F9D870BD943D0008943D0008DF
:1002A800943D0008983D0008830730B547D0541E98
:1002B800002A3ED0CAB2034601E0013C39D303F814
:1002C800012B9D07F9D1032C2CD9CDB205EB0525BF
:1002D8000F2C05EB054535D9A4F1100222F00F0CBF
:1002E80003F1100EE6444FEA121C1A46C2E9005503
:1002F800C2E9025510327245F8D10CF1010214F02E
:100308000C0F03EB021204F00F0C13D0ACF1040332
:1003180023F003030433134442F8045B9342FBD1F4
:100328000CF003042CB1C9B21C4403F8011BA3420E
:10033800FBD130BD64461346002CF4D1F9E70346DF
:100348001446C0E71A46A446E0E700BF844641EADF
:10035800000313F003036DD1403A41D351F8043B35
:1003680040F8043B51F8043B40F8043B51F8043B87
:1003780040F8043B51F8043B40F8043B51F8043B77
:1003880040F8043B51F8043B40F8043B51F8043B67
:1003980040F8043B51F8043B40F8043B51F8043B57
:1003A80040F8043B51F8043B40F8043B51F8043B47
:1003B80040F8043B51F8043B40F8043B51F8043B37
:1003C80040F8043B51F8043B40F8043B51F8043B27
:1003D80040F8043B51F8043B40F8043B403ABDD296
:1003E800303211D351F8043B40F8043B51F8043B38
:1003F80040F8043B51F8043B40F8043B51F8043BF7
:1004080040F8043B103AEDD20C3205D351F8043BC6
:1004180040F8043B043AF9D2043208D0D2071CBF92
:1004280011F8013B00F8013B01D30B8803806046BB
:10043800704700BF082A13D38B078DD010F0030331
:100448008AD0C3F10403D21ADB071CBF11F8013BA1
:1004580000F8013B80D331F8023B20F8023B7BE7F0
:10046800043AD9D3013A11F8013B00F8013BF9D21B
:100478000B7803704B7843708B78837060467047B5
:1004880010EE103A194923F000428A421BD9B2F102
:10049800FF4F02D330EE400A704700B583B068467C
:1004A80000F070F800F003000128DDED010A9DED71
:1004B800000A13D002280BD098B9012000F01AF8CE
:1004C80003B05DF804FBDFED0A0A002000F012B863
:1004D800012000F00FF8B1EE400AF1E700F01AFD34
:1004E800EEE700F017FDB1EE400AE9E7D80F493F03
:1004F8000000000010EE103A23F00043B3F1485F0B
:1005080004D2FDEEC07A17EE903A5BB360EE007A43
:100518009FED157ADFED155A9FED156ADFED156A27
:10052800E7EE875A9FED147AA5EEA76A20EE275AC0
:10053800E6EE276AA6EEA77A30B9DFED106AE7EE95
:10054800876AA6EE850A704727EE457AF6EE006AB6
:10055800A0EEA67ADFED0A6AD7EE270AE5EE260AAC
:1005680030EE600A704700BFD3C92E2F342FD7B2A0
:100578001BEF3836010D50B98988083CABAA2ABE52
:10058800ABAA2A3E70B510EE103A884A23F0004410
:10059800944286B0054671D9854A94421E4624D8AD
:1005A80023F00042002BDFED837A834922F00F020B
:1005B800B0EE407A40F3E0808A4270EE677A09BF75
:1005C8009FED7E7ADFED7E6ADFED7E6A77EEC77A91
:1005D80037EEE67A77EEC77A80ED007A77EEE67A3C
:1005E800C0ED017A012006B070BD774A944252D915
:1005F800B4F1FF4F48D2E215863AA4EBC25307EE96
:10060800903ABDEEE77ADFED716AB8EEC77A77EE19
:10061800C77A8DED037A67EEA67ABDEEE77AB8EE73
:10062800C77A77EEC77A8DED047A67EEA67AF5EE8B
:10063800407AF1EE10FACDED057A40F09880B5EEEB
:10064800407AF1EE10FA0CBF0123022360490191B0
:100658000221009103A8294600F0CCF8002EC2DA46
:1006680095ED007AD5ED017AB1EE477AF1EE677A29
:1006780085ED007AC5ED017A4042B4E7002285EDA8
:10068800000A42600020AEE770EE407AC0ED017AC1
:10069800C0ED007AF6E700F0A5F89FED4E7A9FEDE1
:1006A800456AF6EE007AE0EE077A9FED457AFDEEB0
:1006B800E77A17EE900AF8EEE76A1F28A6EEC60A50
:1006C80066EE877AB1EE666A20DC434A411E26F060
:1006D800004352F8212023F0FF03934216D030EE56
:1006E800677A30EE470A002E30EE670A85ED007A09
:1006F80085ED010ABFF677AFB1EE477AB1EE400A51
:1007080085ED007A85ED010A40426CE730EE677AA4
:10071800E21517EE103AC3F3C753C3EBD453082BB3
:10072800DFDD9FED267A9FED275AF0EE405AE6EE80
:10073800075A70EE657AE6EE077AD6EE857A35EED8
:10074800E77A17EE103AC3F3C753D21A192A10DD05
:100758009FED227A9FED225AB0EE650AA6EE070AAF
:1007680075EEC07AE6EE077AD6EE857AB7E7032308
:100778006CE7B0EE650AB4E78A4270EE277A09BFE3
:100788009FED0E7ADFED0E6ADFED0E6A77EE877A5F
:1007980037EEA67A77EEC77A80ED007A77EEA67AFA
:1007A800C0ED017A4FF0FF301DE700BFD80F493F79
:1007B800E3CB1640800FC93FD00FC93F00443537FF
:1007C8004344353708A3852E800F494300008043F2
:1007D800143A000884F9223F9439000800A3852EB2
:1007E80032318D2410EE103A23F0004300EE103A17
:1007F800704700BF2DE9F04F2DED048BDBB01C4690
:10080800944603930A46CD4B68991CF1040F53F89C
:100818002160824604F1FF38C0F24982BCF103032B
:1008280048BF0CF10403DB10029301334FEAC30EF7
:10083800ACEB0E030593029B16EB0800A3EB080331
:1008480016D401309FEDBE7A699C18441EA9002B6E
:10085800A4BF54F8235007EE905A03F10103ACBF2C
:10086800F8EEE77AF0EE477A8342E1EC017AEED1CE
:10087800002EC0F2B182039B1EA901EB830446AD92
:100888004FEA83094046F7180AEB8301B8F1000FD5
:10089800DFEDAB7A09DBA3465346F3EC016A3BED87
:1008A800017A8B42E6EE877AF7D10130B842E5EC5F
:1008B800017A04F10404E9D10DF1280B0BEB86034E
:1008C800CDE9062E043B9FEDA09ADFED9E8A0598A0
:1008D80004930AEB090446AF0BEB86090096CDF8A2
:1008E80020C05AAB03EB8603002E13ED140A4FEA1F
:1008F800860515DD7B195A4660EE097AB0EE407A16
:10090800FDEEE77A73ED016AF8EEE77ABB42A7EEEF
:10091800E87A37EEA60ABDEEC77AA2EC017AEBD1E7
:10092800019000F085FAF4EE007AB0EE408A20EEED
:10093800270A00F071FBF2EE007AA0EE678A0198B0
:100948000028FDEEC89AF8EEE97A38EE678A6CDD81
:1009580006F1FF3EC0F108035BF82E2042FA03FCC3
:100968000CFA03F3D21AC0F1070119EE903A4BF8CA
:100978002E200A416344002A09EE903A00F3F080E1
:10098800B5EE408AF1EE10FA40F09D80009B9E4241
:100998000ADD5D44002355F8041D4D4543EA010373
:1009A800F9D1002B40F0F280009B013B5BF823302B
:1009B800002B40F0E780049B012153F8042D0131FE
:1009C800002AFAD0731C31449C46029D039A05EB19
:1009D800030E0EF1804E699D32440EF1FF3E07EB87
:1009E80083061EAB05EB8E0E03EB8205DEED017A66
:1009F800F8EEE77AB8F1000F0EF1040EE5EC017A93
:100A0800DFED4F7A09DB2A465346F3EC016A32EDF3
:100A1800017AA342E6EE877AF7D10CF1010C614521
:100A2800E6EC017AE2DA0E465BE740F08F80731E4F
:100A38005BF82320D211002AA2DD19EE903A002E8D
:100A480003F1010309EE903A40F3D48159464FF07F
:100A5800000E51F8043B002B6AD0C3F5807341F8AF
:100A6800043C04E00B68C3F1FF0341F8043B0EF1BA
:100A7800010E7645F6DC01239E4600280ADD012892
:100A880078D0022806D1711E5BF8213003F03F0CA4
:100A98004BF821C0022A7FF473AFB7EE000A734601
:100AA80030EE488A002B3FF46BAF0992019000F0BA
:100AB800BFF938EE408A0198099AB5EE408AF1EEFE
:100AC80010FA3FF463AF9246DDE9062EDDF820C048
:100AD8000196AEEB0C00B0EE480A009E009200F0C2
:100AE800A7F9DFED186AB4EEE60AF1EE10FADDE9CF
:100AF8000023F0EE407AC0F250819FED137A0599F9
:100B080020EE077A0831BDEEC77A0591B8EEC77AAC
:100B18005C1CE7EE667ABDEEC77AFDEEE77A17EE63
:100B2800901A4BF8231017EE103A4BF8243046E091
:100B38000EF1010EB6458CDB9E469EE72C3D000863
:100B480000000000000080430000803BF6EE007AC1
:100B5800B4EEE78AF1EE10FA80F2988000220FE7EF
:100B68000133002E09EE903A3FF770AF00230128B9
:100B78009E4686D1711E5BF8213003F07F0C4BF83E
:100B880021C087E7731C9C4619461EE733469246E8
:100B9800DDE905125C1EA1F108005BF82410009E37
:100BA800059061B903F18043013B0BEB83030146D8
:100BB80053F8040D013C08390028F9D0059105982F
:100BC8000092B7EE000A00F033F9002C009AB0EE5C
:100BD800407AC0F20581601C46AD5FED256A810050
:100BE8000BEB800305EB800073ED017AF8EEE77AF2
:100BF8005B4567EE877A27EE267A60ED017AF3D1B6
:100C08000DF1C8080B1F46A8C718C646A4460025FC
:100C18009146002E73DB844ADFED847A3846002340
:100C280001E0AB4208DCF2EC016AB0EC017A013376
:100C38009E42E6EE877AF4DA0CF1FF3CBCF1FF3F06
:100C4800EEEC017A05F10105A7F10407E1D1689BF3
:100C5800022B4A4656DC002B2EDC0ED1DFED737AD0
:100C6800414431ED017A414577EE877AF9D153460F
:100C7800002B40F0AE80C2ED007A19EE903A03F0F6
:100C880007005BB0BDEC048BBDE8F08F19EE903A1D
:100C9800002E03F1010309EE903AC8BF02223FF784
:100CA800D5AEF7EE007A37EEC88A022268E600234E
:100CB8004FF0080E0293BBE59FED5C7A414471ED5D
:100CC800017A414537EE277AF9D1DDED327A53467C
:100CD80077EEC77A002B75D182ED007A64B133A91B
:100CE8000123B1EC017A01339C4277EE877AF8DA76
:100CF80053460BB1F1EE677AC2ED017ABDE7DFED3D
:100D08004B7A99E7689B032BB7D1002C7ED008EB70
:100D1800840595ED007AA0002B46294671ED017AED
:100D2800F0EE476A37EE277A414577EEC77A81EDCC
:100D3800007A77EEA67AC1ED017AEFD1012C65D061
:100D480095ED007A08F1040173ED017AF0EE476A37
:100D580037EE277A994277EEC77A83ED007A77EEF5
:100D6800A67AC3ED017AEFD1031DDFED307A434453
:100D780008F1080833ED017A984577EE877AF9D1BA
:100D88005346DDED326A9DED337A73B9C2ED006AE0
:100D980082ED017AC2ED027A6FE7FDEEC07A1C4659
:100DA80017EE901A4BF8231009E7F1EE666AB1EED8
:100DB800477AF1EE677AC2ED006A82ED017AC2EDF8
:100DC800027A5AE7B1EE477A82ED007A002C86D192
:100DD80090E7F1EE677A4EE7039B4FEA83096BE5EC
:100DE800689B022B0EDC002B13DC7FF446AFDFED93
:100DF8000F7A3CE7022A7FF4C3ADF7EE007A37EEAC
:100E0800C88ABDE5689B032B7FF437AFDFED077A0F
:100E1800B6E75346DDED327A13B9002313606BE76A
:100E28004FF00043136065E7383D000800000000FC
:100E380010EE103A33F000411A4627D0B1F1FF4FB7
:100E480021D213F0FF4F22D1DFED2B7A2B4A60EE2F
:100E5800277A904217EE903A33DB4CF2503CC3F3BA
:100E6800C75160451A46A1F1190116DDDFED247A54
:100E7800DFED246A002BB0EE677AB8BFF0EE667A31
:100E880027EE870A704730EE000A704770474CF229
:100E9800503C60454FEAD151E8DC0144FE29E5DCCD
:100EA800002915DC11F1160F19DB193122F0FF4268
:100EB80042EAC15207EE902A9FED130A27EE800AF4
:100EC8007047DFED127A07EE103A27EE270A7047CF
:100ED80022F0FF4242EAC15300EE103A7047DFEDBC
:100EE8000B7ADFED0B6A002BB0EE677AB8BFF0EE35
:100EF800667A27EE870A70470000004CB03CFFFF77
:100F0800CAF24971CAF249F1000000336042A20DE9
:100F18006042A28D10EE103A23F00043B3F1485F0F
:100F28002CD2FDEEC07A17EE903A002B60D060EE1E
:100F3800007A9FED317A9FED315ADFED315A9FEDFE
:100F4800316ADFED316AA7EE875A9FED307AE7EE16
:100F5800855AA7EEA56AA7EE867AE7EE876A67EE56
:100F6800A66A60EEC00AB6EE007AE7EEA60AB7EE09
:100F7800000AD7EE870A30EE600A704760EE007A02
:100F88009FED1D7A9FED1D5ADFED1D5A9FED1D6ADD
:100F9800DFED1D6A1E4AA7EE875A93429FED1B7A22
:100FA800E5EE275AA5EEA76AA6EE277AE7EE276AA6
:100FB80066EEA76AD5D9174A934214D803F17F433E
:100FC80007EE103AB7EE006A36EE476A60EEC00ADE
:100FD800F6EE005A97EEA57AE7EEA60A37EE607AA3
:100FE80036EE470A7047B6EE076AB5EE027AEDE7C5
:100FF800B7EE000A704700BF4ED747ADF6740F3101
:101008007CF293B4010DD037ABAA2A3D610BB6BA76
:101018009999993E0000483F10EE102AC2F3C75331
:101028007F3B162B22F0004129DC002B104618DBF1
:101038001A4919410A4221D0DFED197A70EE277A50
:10104800F5EEC07AF1EE10FA18DD002A04DA4FF452
:10105800000242FA03F3184420EA010300EE103AB2
:101068007047DFED0F7A70EE277AF5EEC07AF1EE71
:1010780010FA03DD002A08DB9FED0A0A7047B1F178
:10108800FF4FFBD330EE000A7047DFED077A0029E7
:10109800BFEE000A08BFB0EE670A7047FFFF7F0087
:1010A800CAF24971000000000000008080B500AF5E
:1010B80000F0BEF800F0E6F8FCE780B485B000AFB9
:1010C800786039604FF0500383F31188BFF36F8F56
:1010D800BFF34F8FFB6000BF00BE00BFFDE70000FD
:1010E80080B586B000AF114BDB6C104A43F00103AA
:1010F800D3640E4BDB6C03F001033B603B683B1D84
:1011080000221A605A609A60DA601A6120237B60B4
:101118000323BB600023FB603B1D19464FF0904042
:1011280000F004FD00BF1837BD4680BD0010024026
:1011380080B58EB000AF164BDB6C154A43F4803394
:10114800D364134BDB6C03F480337B607B68114BF7
:10115800114A1A600F4801F040F807F108033022DD
:1011680000211846FFF7A0F800237B610023FB61EC
:1011780007F1080310221946064801F0F5F8102176
:10118800044801F057F800BF3837BD4680BD00BF9E
:10119800001002402C0000200008005080B584B0E8
:1011A80000AF0023FB6030E0FB6807EE903AF8EEF2
:1011B800677A9FED1A7A27EE877ADFED196AC7EE0C
:1011C800267AC7ED027A97ED020AFFF759F9F0EE91
:1011D800407A9FED147A67EE877AB6EE007A77EE5A
:1011E800877AC7ED017AD7ED017A9FED0F7A67EE1E
:1011F800877AFCEEE77A17EE903A99B20B4AFB68C9
:1012080022F81310FB680133FB60FB683F2BCBD936
:1012180000BF00BF1037BD4680BD00BFDB0FC9400F
:101228000000804248E1FA3E00F07F45400000207F
:1012380080B582B000AF00F071FF114B1B6E104AF1
:1012480043F0010313660E4B1B6E03F001037B6032
:101258007B680B4B9B6D0A4A43F080539365084BA0
:101268009B6D03F080533B603B68FFF739FFFFF746
:101278005FFFFFF793FF00BF0837BD4680BD00BF83
:101288000010024080B500AF0A4B1B680A4A32F8CA
:10129800133000221021094801F038F8054B1B686B
:1012A800013303F03F03034A1360012000F06CFF91
:1012B80000BF80BDC0000020400000202C0000209E
:1012C80080B48BB000AFF860B9607A603B600023EF
:1012D800FB61FB6893F85C30FB76FB7E022B40F0E9
:1012E800E880BB68402B37D1FB681B68D3F8903087
:1012F80003F00F03002B07D1FB681B6E43F48072C9
:10130800FB681A660123DBE0FB681B68D3F89030A2
:1013180003F08073B3F1807F0AD1FB681B68D3F8B0
:10132800803003F40073B3F5007F01D10123FB6122
:10133800FB681B68D3F890301B0A03F00303FA69B3
:101348001344FB61FB68996CFA691346DB0013448C
:10135800DB000B447B6236E0FB681B68D3F89830EF
:1013680003F00F03002B07D1FB681B6E43F4807258
:10137800FB681A660123A3E0FB681B68D3F8983062
:1013880003F08073B3F1807F0AD1FB681B68D3F840
:10139800803003F48073B3F5807F01D10123FB61B2
:1013A800FB681B68D3F898301B0A03F00303FA693B
:1013B8001344FB61FB68D96CFA691346DB001344DC
:1013C800DB000B447B627B6A1B6803F080427B680E
:1013D8005A607B685B68002B07D17B6A1B689B0C93
:1013E800C3F30A027B681A6005E07B6A1B6823F076
:1013F80060427B681A607B6A1B6803F000527B6856
:101408009A607B6A1B6803F000427B681A617B6AFA
:1014180004337B627B6A1B689AB27B68DA617B6AF9
:101428001B681B0C03F00F027B68DA607B6A1B6881
:1014380003F480127B685A617B6A1B6803F400120C
:101448007B689A617B6A1B681B0E03F07F027B68CE
:101458001A627B6A1B68DA0F7B685A627B6A0433FC
:101468007B627B6A7B6100233B620AE07A693B6AA4
:101478001A4439683B6A0B4412781A703B6A013384
:101488003B627B68DB68114AD35C1A463B6A93422D
:10149800ECD3BB68402B05D1FB681B68FA69C3F81D
:1014A800942004E0FB681B68FA69C3F89C200023B9
:1014B80006E0FB681B6E43F00802FB681A6601230E
:1014C80018462C37BD465DF8047B7047643D00081C
:1014D80080B582B000AF78607B68002B01D1012312
:1014E80049E07B6893F83D30DBB2002B06D17B687E
:1014F800002283F83C20786800F041F87B680222DB
:1015080083F83D207B681A687B68043319461046C7
:1015180000F022FA7B68012283F848207B680122C8
:1015280083F83E207B68012283F83F207B680122F4
:1015380083F840207B68012283F841207B680122E0
:1015480083F842207B68012283F843207B680122CC
:1015580083F844207B68012283F845207B680122B8
:1015680083F846207B68012283F847207B680122A4
:1015780083F83D20002318460837BD4680BD80B457
:1015880083B000AF786000BF0C37BD465DF8047BC0
:101598007047000080B485B000AF78607B6893F82E
:1015A8003D30DBB2012B01D001234AE07B680222E7
:1015B80083F83D207B681B68DA687B681B6842F00B
:1015C8000102DA607B681B68214A934218D07B6865
:1015D8001B68B3F1804F13D07B681B681D4A934288
:1015E8000ED07B681B681C4A934209D07B681B6835
:1015F8001A4A934204D07B681B68194A934215D152
:101608007B681B689A68174B1340FB60FB68062BC6
:1016180015D0FB68B3F5803F11D07B681B681A684A
:101628007B681B6842F001021A6008E07B681B684F
:101638001A687B681B6842F001021A6000E000BF6C
:10164800002318461437BD465DF8047B704700BF79
:10165800002C014000040040000800400034014014
:10166800004001400700010080B584B000AF7860F9
:101678007B681B68DB68FB607B681B681B69BB6059
:10168800BB6803F00203002B20D0FB6803F00203C1
:10169800002B1BD07B681B686FF002021A617B6805
:1016A80001221A777B681B689B6903F00303002BF0
:1016B80003D0786800F031F905E0786800F023F984
:1016C800786800F034F97B6800221A77BB6803F069
:1016D8000403002B20D0FB6803F00403002B1BD06D
:1016E8007B681B686FF004021A617B6802221A7714
:1016F8007B681B689B6903F44073002B03D07868F0
:1017080000F00BF905E0786800F0FDF8786800F063
:101718000EF97B6800221A77BB6803F00803002BD8
:1017280020D0FB6803F00803002B1BD07B681B68E4
:101738006FF008021A617B6804221A777B681B68BD
:10174800DB6903F00303002B03D0786800F0E5F8A9
:1017580005E0786800F0D7F8786800F0E8F87B686A
:1017680000221A77BB6803F01003002B20D0FB6817
:1017780003F01003002B1BD07B681B686FF010026E
:101788001A617B6808221A777B681B68DB6903F497
:101798004073002B03D0786800F0BFF805E0786844
:1017A80000F0B1F8786800F0C2F87B6800221A7778
:1017B800BB6803F00103002B0CD0FB6803F00103A6
:1017C800002B07D07B681B686FF001021A617868EC
:1017D80000F0B0FBBB6803F08003002B04D1BB68AA
:1017E80003F40053002B0CD0FB6803F08003002B9C
:1017F80007D07B681B686FF402521A61786800F0A2
:1018080077FFBB6803F48073002B0CD0FB6803F0F0
:101818008003002B07D07B681B686FF480721A6105
:10182800786800F06FFFBB6803F04003002B0CD012
:10183800FB6803F04003002B07D07B681B686FF040
:1018480040021A61786800F07CF8BB6803F0200356
:10185800002B0CD0FB6803F02003002B07D07B681B
:101868001B686FF020021A61786800F037FFBB68C8
:1018780003F48013002B0CD0FB6803F48013002BB7
:1018880007D07B681B686FF480121A61786800F0D3
:1018980043FFBB6803F40013002B0CD0FB6803F470
:1018A8000013002B07D07B681B686FF400121A61C5
:1018B800786800F03BFFBB6803F48003002B0CD072
:1018C800FB6803F48003002B07D07B681B686FF468
:1018D80080021A61786800F033FFBB6803F40003E4
:1018E800002B0CD0FB6803F40003002B07D07B68A7
:1018F8001B686FF400021A61786800F02BFF00BFC4
:101908001037BD4680BD80B483B000AF786000BF9B
:101918000C37BD465DF8047B704780B483B000AFD8
:10192800786000BF0C37BD465DF8047B704780B413
:1019380083B000AF786000BF0C37BD465DF8047B0C
:10194800704780B483B000AF786000BF0C37BD46E5
:101958005DF8047B7047000080B485B000AF786004
:1019680039607B681B68FB607B683F4A93420FD0F5
:101978007B68B3F1804F0BD07B683C4A934207D019
:101988007B683B4A934203D07B683A4A934208D12A
:10199800FB6823F07003FB603B685B68FA681343DD
:1019A800FB607B68304A93421BD07B68B3F1804F61
:1019B80017D07B682D4A934213D07B682C4A9342F8
:1019C8000FD07B682B4A93420BD07B682A4A9342FC
:1019D80007D07B68294A934203D07B68284A934200
:1019E80008D1FB6823F44073FB603B68DB68FA6846
:1019F8001343FB60FB6823F080023B685B69134379
:101A0800FB603B689A687B68DA623B681A687B68A7
:101A18009A627B68144A93420FD07B68154A9342B6
:101A28000BD07B68144A934207D07B68134A9342D1
:101A380003D07B68124A934203D13B681A697B68DA
:101A48001A637B681B6843F004027B681A607B6832
:101A580001225A617B68FA681A6000BF1437BD46D4
:101A68005DF8047B704700BF002C01400004004073
:101A7800000800400034014000400140004401409B
:101A88000048014080B400AF034B1B681846BD46B0
:101A98005DF8047B704700BF0800002080B500AFE8
:101AA800FFF7F0FF0246064B9B681B0A03F007038B
:101AB8000449CB5C03F01F0322FA03F3184680BDE8
:101AC80000100240743D000880B483B000AF786015
:101AD80039607B680F221A60124B9B6803F003027F
:101AE8007B685A600F4B9B6803F0F0027B689A6032
:101AF8000C4B9B6803F4E0627B68DA60094B9B68D7
:101B0800DB0803F4E0627B681A61074B1B6803F08B
:101B18000F023B681A6000BF0C37BD465DF8047BB6
:101B2800704700BF001002400020024080B487B018
:101B380000AF7860396000237B6164E13B681A6814
:101B480001217B6901FA03F31340FB60FB68002B5A
:101B580000F056813B685B6803F00303012B05D056
:101B68003B685B6803F00303022B30D17B689B68FA
:101B78003B617B695B00032202FA03F3DB433A69AA
:101B880013403B613B68DA687B695B0002FA03F348
:101B98003A6913433B617B683A699A607B685B6882
:101BA8003B6101227B6902FA03F3DB433A69134084
:101BB8003B613B685B681B0903F001027B6902FA21
:101BC80003F33A6913433B617B683A695A603B689F
:101BD8005B6803F00303032B09D13B685B6803F0E0
:101BE8000303032B1BD13B689B68012B17D07B6831
:101BF800DB683B617B695B00032202FA03F3DB438A
:101C08003A6913403B613B689A687B695B0002FA5A
:101C180003F33A6913433B617B683A69DA603B68CE
:101C28005B6803F00303022B23D17B69DA087B6826
:101C3800083253F822303B617B6903F007039B00AD
:101C48000F2202FA03F3DB433A6913403B613B6816
:101C58001A697B6903F007039B0002FA03F33A69E8
:101C680013433B617B69DA087B680832396943F8BA
:101C780022107B681B683B617B695B00032202FAC8
:101C880003F3DB433A6913403B613B685B6803F04D
:101C980003027B695B0002FA03F33A6913433B6171
:101CA8007B683A691A603B685B6803F44033002B31
:101CB80000F0A6805B4B1B6E5A4A43F00103136683
:101CC800584B1B6E03F00103BB60BB68564A7B6927
:101CD8009B08023352F823303B617B6903F003030E
:101CE8009B000F2202FA03F3DB433A6913403B617E
:101CF8007B68B3F1904F1FD07B684C4A934219D050
:101D08007B684B4A934213D07B684A4A93420DD072
:101D18007B68494A934207D07B68484A934201D17D
:101D280005230AE0062308E0042306E0032304E071
:101D3800022302E0012300E000237A6902F0030293
:101D4800920093403A6913433B6137497B699B088A
:101D580002333A6941F82320394B9B683B61FB68A1
:101D6800DB433A6913403B613B685B6803F48013CB
:101D7800002B03D03A69FB6813433B61304A3B6947
:101D880093602F4BDB683B61FB68DB433A69134088
:101D98003B613B685B6803F40013002B03D03A698E
:101DA800FB6813433B61264A3B69D360244B5B685D
:101DB8003B61FB68DB433A6913403B613B685B6806
:101DC80003F40033002B03D03A69FB6813433B61EB
:101DD8001B4A3B6953601A4B1B683B61FB68DB433A
:101DE8003A6913403B613B685B6803F48033002B1E
:101DF80003D03A69FB6813433B61114A3B6913609E
:101E08007B6901337B613B681A687B6922FA03F3BB
:101E1800002B7FF493AE00BF00BF1C37BD465DF8B2
:101E2800047B704700100240000001400004004895
:101E380000080048000C0048001000480014004842
:101E48000004014080B58EB000AF78600022796848
:101E5800362000F03BF9362000F052F9304B9B6DEC
:101E68002F4A43F0100393652D4B9B6D03F010032D
:101E7800FB60FB6807F1100207F1140311461846CE
:101E8800FFF722FE3B6AFB62FB6A002B03D1FFF7D8
:101E980005FE786304E0FFF701FE03465B007B6301
:101EA8007B6B204AA2FB03239B0C013BBB621E4BAE
:101EB8001E4A1A601C4B40F2E732DA601A4ABB6AC3
:101EC8005360194B00221A61174B00229A6016487A
:101ED800FFF7FEFA034687F8333097F83330002BC4
:101EE80018D11148FFF756FB034687F8333097F8A7
:101EF8003330002B0ED17B680F2B08D8002279686D
:101F0800362000F0E3F80A4A7B68136002E00123F8
:101F180087F8333097F8333018463837BD4680BDD8
:101F28000010024083DE1B43C40000200010004064
:101F38000000002080B582B000AF786000F006F99C
:101F480000BF0837BD4680BD80B500AF0248FFF727
:101F58008BFB00BF80BD00BFC400002080B485B0EB
:101F680000AF78607B6803F00703FB600C4BDB680D
:101F7800BB60BA684FF6FF031340BB60FB681A02E8
:101F8800BB68134343F0BF6343F40033BB60044AA8
:101F9800BB68D36000BF1437BD465DF8047B70474B
:101FA80000ED00E080B400AF044BDB681B0A03F0CF
:101FB80007031846BD465DF8047B704700ED00E056
:101FC80080B483B000AF0346FB7197F90730002B4C
:101FD8000BDBFB7903F01F02074997F907305B0910
:101FE800012000FA02F241F8232000BF0C37BD4659
:101FF8005DF8047B704700BF00E100E080B483B067
:1020080000AF03463960FB7197F90730002B0ADBF4
:102018003B68DAB20C4997F907301201D2B20B4487
:1020280083F800230AE03B68DAB20849FB7903F039
:102038000F03043B1201D2B20B441A7600BF0C37CF
:10204800BD465DF8047B704700E100E000ED00E06C
:1020580080B489B000AFF860B9607A60FB6803F0BB
:102068000703FB61FB69C3F10703042B28BF0423A3
:10207800BB61FB690433062B02D9FB69033B00E013
:1020880000237B614FF0FF32BB6902FA03F3DA43A6
:10209800BB681A407B699A404FF0FF317B6901FAAF
:1020A80003F3D9437B680B40134318462437BD46D6
:1020B8005DF8047B704780B582B000AF78607868BF
:1020C800FFF74CFF00BF0837BD4680BD80B586B01E
:1020D80000AF0346B9607A60FB73FFF763FF78616E
:1020E8007A68B9687869FFF7B3FF024697F90F3045
:1020F80011461846FFF782FF00BF1837BD4680BD5E
:1021080080B582B000AF0346FB7197F907301846D7
:10211800FFF756FF00BF0837BD4680BD80B582B0C7
:1021280000AF0023FB710320FFF7C5FF0F20FFF767
:1021380089FE0346002B02D00123FB7101E000F069
:1021480045F8FB7918460837BD4680BD80B400AF16
:10215800054B1A68054B1B681344034A136000BFFC
:10216800BD465DF8047B7047100100200400002084
:1021780080B400AF034B1B681846BD465DF8047B6E
:10218800704700BF1001002080B584B000AF7860B0
:10219800FFF7EEFFB8607B68FB60FB68B3F1FF3FB9
:1021A80004D0094B1B68FA681344FB6000BFFFF7B3
:1021B800DFFF0246BB68D31AFA689A42F7D800BF15
:1021C80000BF1037BD4680BD0400002080B400AFBA
:1021D80000BFBD465DF8047B704780B582B000AF94
:1021E80078607B68002B01D1012314E07B681B79A0
:1021F800DBB2002B05D17B6800225A71786800F0A9
:102208000EF87B6802221A717B6800221A617B68CB
:1022180001221A71002318460837BD4680BD80B4D4
:1022280083B000AF786000BF0C37BD465DF8047B13
:102238007047000080B485B000AF786039607B6873
:10224800002B01D1012356E07B685B79012B01D17A
:10225800022350E07B6801225A717B6802221A71BE
:102268007B681B6819683B6803F0100301229A40D9
:102278007B681B680A431A60224B1B689B09224A29
:10228800A2FB03239B090133FB6002E0FB68013BCF
:10229800FB60FB68002BF9D13B68002B0FD17B68F2
:1022A8001B681B6803F03E03022B1DD17B681B686B
:1022B8005A687B681B6842F001025A6014E07B6828
:1022C8001B681B6803F478123B6803F010030221B3
:1022D80001FA03F39A4207D17B681B685A687B6846
:1022E8001B6842F002025A607B6801221A717B68FF
:1022F80000225A71002318461437BD465DF8047B46
:10230800704700BF08000020632D3E0580B487B0E9
:1023180000AFF860B9607A603B6000237B61FB68BE
:10232800002B01D1012318E0FB681B68DB6BFB68FD
:102338001B687B61BB68002B05D17A697B681344F5
:1023480008337B6104E07A697B68134414337B614A
:102358007B691A463B681360002318461C37BD4644
:102368005DF8047B7047000080B58AB000AFF86064
:10237800B9607A600023FB77FB68002B02D0BB684A
:10238800002B01D10123A1E1BB689B68042BFB68EA
:102398005B79012B01D1022398E1FB6801225A7174
:1023A800FB6802221A71BB689B68042B7AD1FFF77D
:1023B800DFFEB8617B68002B3DD118E0FFF7D8FE3F
:1023C8000246BB69D31A012B11D9FB681B685B6BEA
:1023D80003F40043002B0AD0FB681B6943F0080292
:1023E800FB681A61FB6803221A7103236EE1FB681C
:1023F8001B685B6B03F40043002BDFD1FB681B6891
:10240800BA68526A1A6420E0FFF7B2FE0246BB6956
:10241800D31A012B0FD9FB681B685B6B002B0ADAF8
:10242800FB681B6943F00802FB681A61FB6803221A
:102438001A7103234AE1FB681B685B6B002BE3DB23
:10244800FB681B68BA68526A5A64FB681B689A6C16
:102458007B6803F0100340F2FF3101FA03F3DB431A
:1024680002EA0301BB689A6A7B6803F010039A408A
:10247800FB681B680A439A64FB681B68DA6C7B6814
:1024880003F01003FF2101FA03F3DB4302EA03011F
:10249800BB68DA6A7B6803F010039A40FB681B6824
:1024A8000A43DA64BB68DB69012B1DD1FB681B6832
:1024B8009B6B7B627B6803F010031F2202FA03F315
:1024C800DB437A6A13407B62BB681B6A7B617B686B
:1024D80003F010037A6902FA03F37A6A13437B6202
:1024E800FB681B687A6A9A63FB681B68DB6B7B6214
:1024F8007B6803F01003072202FA03F3DB437A6ACE
:1025080013407B62BB689B69012B02D100233B62AD
:102518000FE0BB689B69022B02D101233B6208E0F4
:10252800BB685B69002B02D101233B6201E00023F9
:102538003B62BB689A68BB685B6913433A6A13439A
:102548007B617B6803F010034FF4807202FA03F397
:10255800DB437A6A13407B62BB681B79012B02D18B
:102568004FF4807300E000237A6913437B617B6832
:1025780003F010034FF4007202FA03F3DB437A6AA4
:1025880013407B62BB685B79012B02D14FF4007367
:1025980000E000237A6913437B617B6A23F440439C
:1025A8007B62BB681B68022B14D1FFF76BFA38619A
:1025B8003B69484A934204D97B6A43F400437B62EF
:1025C8000FE03B69444A93420AD97B6A43F480434B
:1025D8007B6206E0BB681B687A6A13437B6200E093
:1025E80000BF7B6803F010037A6902FA03F37A6A82
:1025F80013437B62FB681B687A6ADA63FB681B68B3
:1026080019687B6803F010034FF4804202FA03F361
:10261800DA43FB681B680A401A60FB681B681B6882
:102628007B627B6803F0100340F6FE7202FA03F344
:10263800DB437A6A13407B62BB68DB687B617B683B
:1026480003F010037A6902FA03F37A6A13437B6290
:10265800FB681B687A6A1A60FB681B6819687B68E4
:1026680003F01003C02202FA03F3DA43FB681B6885
:102678000A401A60BB68DB689B0803F00F037B61A4
:10268800BB681B699B081B0203F470637A691343D8
:102698007B61FB681B681A6E7B6803F0100340F6C9
:1026A8000F7101FA03F3DB4302EA03017B6803F0CD
:1026B80010037A699A40FB681B680A431A66FB682C
:1026C80001221A71FB6800225A71FB7F18462837CD
:1026D800BD4680BD0068890900B4C40480B483B0D5
:1026E80000AF786000BF0C37BD465DF8047B7047CB
:1026F80080B483B000AF786000BF0C37BD465DF88A
:10270800047B704780B483B000AF786000BF0C379B
:10271800BD465DF8047B704780B483B000AF786035
:1027280000BF0C37BD465DF8047B704780B483B0AA
:1027380000AF786000BF0C37BD465DF8047B70477A
:1027480080B483B000AF786000BF0C37BD465DF839
:10275800047B704780B483B000AF786000BF0C374B
:10276800BD465DF8047B704780B400AF064BD3F8D4
:102778008830054A43F47003C2F8883000BFBD466C
:102788005DF8047B704700BF00ED00E00D4885460A
:10279800FFF7EAFF0C480D490D4A002302E0D45820
:1027A800C4500433C4188C42F9D30A4A0A4C002393
:1027B80001E013600432A242FBD3FDF74DFDFEF7A2
:1027C80075FCFEE700800020000000200C000020BF
:1027D8009C3D00081000002068090020FEE780B535
:1027E80090B000AFF860B9607A603B60FB68BB638B
:1027F800BB6B002B08D0BB68002B03D1BB6B9B6C59
:10280800002B01D1012300E00023002B0BD14FF056
:10281800500383F31188BFF36F8FBFF34F8F7B6231
:1028280000BF00BFFDE7BB6B002B08D03B68022B45
:1028380003D1BB6B5B6C012B01D1012300E00023AA
:10284800002B0BD14FF0500383F31188BFF36F8F28
:10285800BFF34F8F3B6200BF00BFFDE700F06CFD88
:10286800EFF311824FF0500383F31188BFF36F8F9A
:10287800BFF34F8FFA61BB61FB697B63BB6B1A6C5B
:10288800BB6B5B6C9A4202D33B68022B47D1BB6B94
:1028980093F84D3087F83330BB6B1B6CFB623A689A
:1028A800B968B86B00F0ECF897F93330B3F1FF3F33
:1028B80012D1BB6B9B6A002B2ED0BB6B28331846FA
:1028C80000F00AFB0346002B26D07B68002B23D0A0
:1028D8007B6801221A601FE000F03CF9B86297F9A2
:1028E8003330BA6A9A4217D997F933307F2B0BD114
:1028F8004FF0500383F31188BFF36F8FBFF34F8FEF
:102908007B6100BF00BFFDE797F833300133DBB2CE
:102918005AB2BB6B83F84D200123FB6301E000230F
:10292800FB637B6B3B613B6983F3118800BFFB6BE7
:1029380018464037BD4680BD80B58EB000AF786080
:1029480039607B683B633B6B002B05D03B6B9B6C12
:10295800002B01D1012300E00023002B0BD14FF005
:10296800500383F31188BFF36F8FBFF34F8FFB6161
:1029780000BF00BFFDE73B6B002B09D03B6B1B681A
:10298800002B03D13B6B9B68002B01D1012300E096
:102998000023002B0BD14FF0500383F31188BFF3B2
:1029A8006F8FBFF34F8FBB6100BF00BFFDE700F023
:1029B800C3FCEFF311824FF0500383F31188BFF388
:1029C8006F8FBFF34F8F7A613B617B69FB623B6B13
:1029D8001B6CBB623B6B5B6CBA6A9A4243D23B6B23
:1029E80093F84D3087F82730BB6A5A1C3B6B1A6442
:1029F80097F92730B3F1FF3F12D13B6B9B6A002B4D
:102A08002ED03B6B2833184600F066FA0346002B9D
:102A180026D03B68002B23D03B6801221A601FE0B8
:102A280000F098F8386297F927303A6A9A4217D92D
:102A380097F927307F2B0BD14FF0500383F3118880
:102A4800BFF36F8FBFF34F8FFB6000BF00BFFDE781
:102A580097F827300133DBB25AB23B6B83F84D202D
:102A680001237B6301E000237B63FB6ABB60BB68D7
:102A780083F3118800BF7B6B18463837BD4680BD8D
:102A880080B586B000AFF860B9607A6000237B61DA
:102A9800FB681B6C3B61FB689B6C002B0DD1FB68D2
:102AA8001B68002B4DD1FB689B68184600F010FB93
:102AB8007861FB6800229A6043E07B68002B19D19B
:102AC800FB685868FB689B6C1A46B968FDF73EFCC2
:102AD800FB685A68FB689B6C1A44FB685A60FB6881
:102AE8005A68FB689B689A422BD3FB681A68FB6894
:102AF8005A6026E0FB68D868FB689B6C1A46B96880
:102B0800FDF724FCFB68DA68FB689B6C5B421A449F
:102B1800FB68DA60FB68DA68FB681B689A4207D2D0
:102B2800FB689A68FB689B6C5B421A44FB68DA6036
:102B38007B68022B05D13B69002B02D03B69013B26
:102B48003B613B695A1CFB681A647B691846183755
:102B5800BD4680BD80B400AF034B1B681846BD4618
:102B68005DF8047B704700BF28020020B0B58CB028
:102B780000AF0023FB62864B1B68002B40F0F980F6
:102B8800844BD3E90023541C43F10005C7E90845E9
:102B98008049D7E90823C1E90023D7E9082313436B
:102BA80021D17D4B1B681B68002B0BD04FF05003C5
:102BB80083F31188BFF36F8FBFF34F8F3B6000BF64
:102BC80000BFFDE7744B1B68FB61744B1B68724ABE
:102BD8001360724AFB691360714B1B680133704ABA
:102BE800136000F055FA6F4BD3E90023D7E90801C9
:102BF800904271EB0303C0F0B580674B1B681B68FC
:102C0800002B07D167494FF0FF324FF0FF33C1E97E
:102C18000023A7E0604B1B681B691B69BB61BB698C
:102C2800D3E90223C7E90423D7E90801D7E9042334
:102C3800904271EB030305D25A49D7E90423C1E94D
:102C480000238FE0BB69DB69FB60BB691B69BA695C
:102C58005269DA60BB695B69BA6912699A60FB6894
:102C68005A68BB6908339A4203D1BB695A69FB6841
:102C78005A60BB690022DA61FB681B685A1EFB6850
:102C88001A60BB695B6B002B1ED0BB695B6BBB60BA
:102C9800BB699B6ABA69D26ADA60BB69DB6ABA69DE
:102CA800926A9A60BB685A68BB6920339A4203D11A
:102CB800BB69DA6ABB685A60BB6900225A63BB68A1
:102CC8001B685A1EBB681A60BB699A6B364B1B6837
:102CD8009A4203D9BB699B6B334A1360BB699A6BF1
:102CE800324913465B001344DB000B4404331B6872
:102CF8007B60BB697A681A617B68DA68BB695A616C
:102D08007B68DB68BA6908329A60BB6903F108021C
:102D18007B68DA60BB699A6B13465B001344DB007F
:102D2800224A1A44BB69DA61BB699A6B1F49134688
:102D38005B001344DB000B441B68BA69926B591C97
:102D48001A4813465B001344DB0003441960BB694F
:102D58009A6B174B1B689B6B9A427FF64EAF012309
:102D6800FB624AE7134B1B68002B0BD00123FB6265
:102D780008E0114BD3E90023501C43F100010E4B2E
:102D8800C3E90001FB6A18463037BD46B0BD00BF35
:102D98005802002030020020080200200C02002007
:102DA8004C020020500200203802002018010020A8
:102DB80014010020480200204002002080B586B09F
:102DC80000AF404B1B68002B03D03F4B01221A6019
:102DD80073E03D4B00221A603C4B1B68DB6B3B6188
:102DE8004FF0A533FB60394B1B681A68374B1B68DB
:102DF800DB6B9A4216D93B691B68FA689A4211D173
:102E08003B6904331B68FA689A420BD13B69083363
:102E18001B68FA689A4205D13B690C331B68FA684B
:102E28009A4209D0294B1B684033BB60274B1B686B
:102E3800B9681846FEF741F9254B1B687B6111E01C
:102E48007B69002B0BD14FF0500383F31188BFF33C
:102E58006F8FBFF34F8F3B6000BF00BFFDE77B69FB
:102E6800013B7B611B497A6913465B001344DB0015
:102E78000B441B68002BE3D07A6913465B001344AC
:102E8800DB00144A13447B607B685B689A687B6844
:102E98005A607B685A687B6808339A4203D17B681A
:102EA8001A697B685A607B685B681B69074A13600C
:102EB800074A7B691360054B1B6800BF1837BD467E
:102EC80080BD00BF580200204802002014010020E5
:102ED800380200201801002080B48BB000AF786061
:102EE8007B681B691B693B623B6A002B0BD14FF067
:102EF800500383F31188BFF36F8FBFF34F8FFB60CD
:102F080000BF00BFFDE73B6A5B6BFB613B6A9B6AE6
:102F18003A6AD26ADA603B6ADB6A3A6A926A9A600B
:102F2800FB695A683B6A20339A4203D13B6ADA6AE2
:102F3800FB695A603B6A00225A63FB691B685A1E88
:102F4800FB691A604C4B1B68002B62D13B6ADB693A
:102F58007B613B6A1B693A6A5269DA603B6A5B6962
:102F68003A6A12699A607B695A683B6A08339A42DE
:102F780003D13B6A5A697B695A603B6A0022DA616D
:102F88007B691B685A1E7B691A603B6A9A6B3B4BCC
:102F98001B689A4203D93B6A9B6B384A13603B6AA9
:102FA8009A6B374913465B001344DB000B44043328
:102FB8001B683B613B6A3A691A613B69DA683B6A9C
:102FC8005A613B69DB683A6A08329A603B6A03F1E6
:102FD80008023B69DA603B6A9A6B13465B0013444C
:102FE800DB00274A1A443B6ADA613B6A9A6B244938
:102FF80013465B001344DB000B441B683A6A926B70
:10300800591C1F4813465B001344DB000344196036
:103018001BE01C4B5B68BB613B6ABA699A62BB697F
:10302800DA683B6ADA62BB69DB683A6A20329A601E
:103038003B6A03F12002BB69DA603B6A114A5A63B2
:10304800104B1B6801330F4A13603B6A9A6B0E4B97
:103058001B689B6B9A4205D901237B620B4B0122AB
:103068001A6001E000237B627B6A18462C37BD4654
:103078005DF8047B704700BF58020020380200202A
:10308800180100201002002014010020480200202E
:1030980080B400AF0C4B1B681B68002B07D10B4991
:1030A8004FF0FF324FF0FF33C1E9002307E0064B32
:1030B8001B681B69D3E900230449C1E9002300BF49
:1030C800BD465DF8047B70470802002050020020CE
:1030D8002DE9B04388B000AF78607B68BB610023FE
:1030E800FB617B68002B00F08B80484B1B68BA693A
:1030F8009A420BD04FF0500383F31188BFF36F8FC0
:10310800BFF34F8F3B6100BF00BFFDE7BB695B6D3D
:10311800002B0BD14FF0500383F31188BFF36F8F4F
:10312800BFF34F8FFB6000BF00BFFDE7BB695B6D5E
:103138005A1EBB695A65BB699A6BBB691B6D9A427B
:103148005ED0BB695B6D002B5AD1BB69083318464A
:1031580000F062F8BB691A6DBB699A63BB699B6B27
:1031680000221C4615460023D4F10A0863EB050922
:10317800BB69C3E90889BB699A6B254B1B689A42EE
:1031880003D9BB699B6B224A1360BB699A6B2149BF
:1031980013465B001344DB000B4404331B687B615C
:1031A800BB697A691A617B69DA68BB695A617B69AC
:1031B800DB68BA6908329A60BB6903F108027B6967
:1031C800DA60BB699A6B13465B001344DB00114A53
:1031D8001A44BB69DA61BB699A6B0E4913465B00F6
:1031E8001344DB000B441B68BA69926B591C0948ED
:1031F80013465B001344DB00034419600123FB61A1
:10320800FB6918462037BD46BDE8B083140100208D
:10321800380200201801002080B485B000AF786023
:103228007B685B69FB607B689B687A68D268DA6058
:103238007B68DB687A6892689A60FB685B687A6882
:103248009A4203D17B68DA68FB685A607B6800227F
:103258005A61FB681B685A1EFB681A60FB681B688A
:1032680018461437BD465DF8047B7047064B19684D
:103278000868B0E8F04F80F30988BFF36F8F4FF00C
:10328800000080F3118870471401002000BF00BFC0
:10329800EFF30980BFF36F8F144B1A681EF0100FFD
:1032A80008BF20ED108A20E9F04F10602DE90900D1
:1032B8004FF0500080F31188BFF34F8FBFF36F8F2B
:1032C800FFF77CFD4FF0000080F3118809BC1968F6
:1032D8000868B0E8F04F1EF0100F08BFB0EC108A75
:1032E80080F30988BFF36F8F704700001401002036
:1032F80000BF00BF80B582B000AF4FF0500383F32A
:103308001188BFF36F8FBFF34F8F7B6000BFFFF74C
:103318002DFC0346002B03D0064B4FF080521A6059
:1033280000233B603B6883F3118800BF00BF083768
:10333800BD4680BD04ED00E080B485B000AFEFF37A
:103348000583FB60FB680F2B15D9184AFB681344EB
:103358001B78FB72164B1B78FA7A9A420BD24FF005
:10336800500383F31188BFF36F8FBFF34F8F7B60D8
:1033780000BF00BFFDE70F4B1B6803F4E0620E4B74
:103388001B689A420BD94FF0500383F31188BFF39F
:103398006F8FBFF34F8F3B6000BF00BFFDE700BFDB
:1033A8001437BD465DF8047B704700BFF0E300E0CA
:1033B8005C0200200CED00E06002002080B584B0C3
:1033C80000AF786039600023FB6014E00F4AFB68A7
:1033D80052F82330BB60BB689B687A689A4207D171
:1033E800BB68DB683A689A4202D1B86800F012F804
:1033F800FB680133FB60064B1B68FA689A42E5DB01
:1034080000BF00BF1037BD4680BD00BF640200206A
:103418006402002080B584B000AF7860FEF7A8FE93
:10342800F8607B68FA681A617B681B7E23F00203E8
:10343800DAB27B681A7600BF1037BD4680BD00003F
:1034480080B582B000AF2A4BDB693B603B6803F074
:103458002003002B09D0264B586A264B1B685A1CA0
:1034680024490A60C1B2244AD1543B6803F400637A
:10347800002B39D0214B1B68002B23D0204B1B6815
:10348800002B1FD01F4B1B78DBB203F00103002B6E
:1034980018D000237B600BE0184B1A687B68134434
:1034A80015497A680A4412781A707B6801337B6080
:1034B800104B1B687A689A42EED3114B1B680D4A71
:1034C80012681A60104B1B68002B06D00E4B1B6845
:1034D800084A1268114608489847064B00221A60A5
:1034E800034B4FF400621A6200BF0837BD4680BD27
:1034F8000038014068040020680200206C040020A5
:1035080070040020980800207404002080B582B060
:1035180000AF2A4BDB693B603B6803F02003002BBC
:1035280009D0264B586A264B1B685A1C24490A6046
:10353800C1B2244AD1543B6803F40063002B39D04C
:10354800214B1B68002B23D0204B1B68002B1FD05E
:103558001F4B1B78DBB203F00203002B18D00023AB
:103568007B600BE0184B1A687B68134415497A682E
:103578000A4412781A707B6801337B60104B1B6811
:103588007A689A42EED3114B1B680D4A12681A608A
:10359800104B1B68002B06D00E4B1B68084A12689C
:1035A800114608489847064B00221A60034B4FF40F
:1035B80000621A6200BF0837BD4680BD0044004063
:1035C80078060020780400207C0600208006002071
:1035D800980800208406002080B582B000AF2A4BEE
:1035E800DB693B603B6803F02003002B09D0264BC6
:1035F800586A264B1B685A1C24490A60C1B2244ADF
:10360800D1543B6803F40063002B39D0214B1B686D
:10361800002B23D0204B1B68002B1FD01F4B1B787F
:10362800DBB203F00403002B18D000237B600BE00F
:10363800184B1A687B68134415497A680A4412784B
:103648001A707B6801337B60104B1B687A689A425A
:10365800EED3114B1B680D4A12681A60104B1B6899
:10366800002B06D00E4B1B68084A12681146084802
:103678009847064B00221A60034B4FF400621A6207
:1036880000BF0837BD4680BD0048004088080020BC
:10369800880600208C080020900800209808002048
:1036A8009408002080B483B000AF78607B68064A35
:1036B800934201D1054B00E0002318460C37BD4664
:1036C8005DF8047B704700BF006400409C08002040
:1036D80080B590B002AF78607868FFF7E3FF786351
:1036E80000233B637B6B1B681B6D03F00103002BFE
:1036F8003BD07B6B1B6801221A652BE0BB6819461F
:103708007868FFF75BFEFB68B3F1804F03D1BB68B5
:1037180043F08043BB607B6B93F87B30002B11D068
:10372800B9687B694C4AD25C4C483B6AB3F5001FC8
:103738000CBF01230023DBB200930346786800F036
:1037480093F807E0B9687B69434AD25C434B7868D1
:1037580000F0C6F8786B414B07F108024021FDF7ED
:10376800AFFD0346002BC9D071E07B6B1B681B6D56
:1037780003F08003002B17D07B6B1B6880221A652F
:103788007B6B1B6F07F1300211461846FFF7D4F820
:103798003B6B002B5BD0324B4FF080521A60BFF36B
:1037A8004F8FBFF36F8F52E07B6B1B681B6D03F469
:1037B8000013002B1ED02B4B1B8801339AB2294BC8
:1037C8001A807B6B1B684FF400121A657B6B1B6FAA
:1037D80007F1300211461846FFF7AEF83B6B002B95
:1037E80035D01F4B4FF080521A60BFF34F8FBFF395
:1037F8006F8F2CE07B6B1B681B6D03F48003002B21
:103808000BD07B6B1B684FF480021A65154B5B88E5
:1038180001339AB2134B5A8019E07B6B1B681B6DFE
:1038280003F40023002B12D07B6B1B684FF400229B
:103838001A657B6B1B689A697B6B1B6822F0010217
:103848009A61084B9B8801339AB2064B9A8000BF55
:103858003837BD4680BD00BF7C3D000828090020E0
:1038680004ED00E01809002080B59AB000AFF860B8
:10387800B9603B601346FB71F868FFF713FF786681
:10388800BB68BB61FB79FB6197F8703087F8203023
:10389800FA7907F11803093339681846FCF756FD19
:1038A80000237B617B6E586E07F1140207F1180143
:1038B8000023FEF794FF7B69002B0AD07B69002B5D
:1038C80007D0064B4FF080521A60BFF34F8FBFF3FB
:1038D8006F8F00BF6837BD4680BD00BF04ED00E0B4
:1038E80080B58EB000AFF860B9603B601346FB71DD
:1038F800F868FFF7D7FE78634FF000024FF0000337
:10390800C7E90A23FA7907F1280339681846FCF74A
:103918001DFDD7E90A23C7E90823BB68BB61FB790A
:10392800FB6100237B617B6B586E07F1140207F182
:1039380018010023FEF753FF7B69002B0AD07B692F
:10394800002B07D0054B4FF080521A60BFF34F8F02
:10395800BFF36F8F00BF3837BD4680BD04ED00E070
:1039680080B500AF0248FFF7B3FE00BF80BD00BFBF
:1039780000640040F8B500BFF8BC08BC9E4670471C
:0C398800F8B500BFF8BC08BC9E467047B4
:10399400000FC93F000F494000CB9640000FC940BB
:1039A4000053FB4000CB164100ED2F41000F49416D
:1039B4000031624100537B41003A8A4100CB964179
:1039C400005CA34100EDAF41007EBC41000FC94142
:1039D40000A0D5410031E24100C2EE410053FB4159
:1039E40000F20342003A0A420083104200CB16421E
:1039F40000141D42005C234200A5294200ED2F4221
:103A040000363642007E3C4200C74242000F494223
:103A1400A2000000F9000000830000006E00000016
:103A24004E000000440000001500000029000000C2
:103A3400FC0000002700000057000000D100000037
:103A4400F500000034000000DD000000C0000000AC
:103A5400DB000000620000009500000099000000F7
:103A64003C00000043000000900000004100000002
:103A7400FE0000005100000063000000AB000000E5
:103A8400DE000000BB000000C50000006100000073
:103A9400B7000000240000006E0000003A0000009F
:103AA400420000004D000000D2000000E0000000D1
:103AB40006000000490000002E000000EA0000009B
:103AC40009000000D1000000920000001C0000006A
:103AD400FE0000001D000000EB0000001C000000C0
:103AE400B100000029000000A70000003E00000013
:103AF400E80000008200000035000000F50000002E
:103B04002E000000BB000000440000008400000000
:103B1400E90000009C000000700000002600000086
:103B2400B40000005F0000007E00000041000000BF
:103B34003900000091000000D600000039000000A8
:103B4400830000005300000039000000F40000006E
:103B54009C000000840000005F0000008B00000057
:103B6400BD000000F9000000280000003B00000038
:103B74001F000000F800000097000000FF00000094
:103B8400DE00000005000000980000000F000000A7
:103B9400EF0000002F000000110000008B00000067
:103BA4005A0000000A0000006D0000001F00000021
:103BB4006D000000360000007E000000CF00000011
:103BC40027000000CB00000009000000B70000003F
:103BD4004F000000460000003F00000066000000A7
:103BE4009E0000005F000000EA0000002D000000BD
:103BF4007500000027000000BA000000C7000000A4
:103C0400EB000000E5000000F10000007B00000074
:103C14003D0000000700000039000000F70000002C
:103C24008A0000005200000092000000EA00000038
:103C34006B000000FB0000005F000000B10000000A
:103C44001F0000008D0000005D000000080000005F
:103C54005600000003000000300000004600000091
:103C6400FC0000007B0000006B000000AB000000C3
:103C7400F0000000CF000000BC00000020000000A5
:103C84009A000000F4000000360000001D0000004F
:103C9400A9000000E30000009100000061000000A2
:103CA4005E000000E60000001B00000008000000A9
:103CB4006500000099000000850000005F0000001E
:103CC40014000000A0000000680000004000000094
:103CD4008D000000FF000000D800000080000000FC
:103CE4004D000000730000002700000031000000B8
:103CF4000600000006000000150000005600000049
:103D0400CA00000073000000A8000000C900000001
:103D140060000000E20000007B000000C000000022
:103D24008C0000006B00000004000000070000008D
:103D3400090000000000C93F0000F0390000DA3734
:103D44000000A2330000842E0000502B0000C22784
:103D54000000D0220000C41F0000C61B000044174E
:103D64000001020304050607080C10141820304053
:103D74000000000001020304000102030405060719
:083D8400080C10141820304057
:083D8C00C8C5FF7F0100000023
:043D940041020008E0
:043D98001902000804
:0C3D9C0010000000010000000024F400F2
:040000050800279533
:00000001FF
