:020000040800F2
:10000000008000201D5500086D5500086D55000842
:100010006D5500086D5500086D5500080000000082
:10002000000000000000000000000000FD5F00086C
:100030006D55000800000000216000088560000880
:100040006D5500086D5500086D5500086D55000888
:100050006D5500086D5500086D5500086D55000878
:100060006D5500086D5500086D5500086D55000868
:100070006D550008751700086D5500086D5500088E
:100080006D550008000000006D5500086D55000812
:100090006D550008F16600086D5500086D550008A3
:1000A0006D5500086D5500086D5500086D55000828
:1000B0006D5500086D5500086D5500086D55000818
:1000C0006D5500086D5500086D5500086D55000808
:1000D0006D550008D16100089D6200086963000841
:1000E0006D5500086D5500086D5500086D550008E8
:1000F0006D5500086D5500086D55000800000000A2
:10010000000000006D550008000000006D5500085B
:100110006D55000800000000214A00086D550008D8
:100120006D5500086D5500086D5500086D550008A7
:100130006D55000800000000000000006D5500082B
:100140006D5500086D55000800000000000000001B
:10015000000000000000000000000000000000009F
:100160000000000000000000000000006D550008C5
:100170006D550008000000000000000000000000B5
:10018000000000006D5500080000000000000000A5
:10019000000000006D550008000000000000000095
:1001A00000000000000000006D5500086D550008BB
:1001B0006D5500086D5500086D55000800000000E1
:1001C000000000006D550008000000000000000065
:0801D0006D5500086D55000893
:1001D8000348044B834202D0034B03B118477047CE
:1001E8000C0000200C000020000000000548064B11
:1001F8001B1AD90F01EBA301491002D0034B03B11D
:10020800184770470C0000200C0000200000000078
:1002180010B5064C237843B9FFF7DAFF044B13B146
:100228000448AFF300800123237010BD10000020A4
:10023800000000000467000808B5044B1BB104491E
:100248000448AFF30080BDE80840CFE70000000095
:10025800140000200467000870B50F4B0F4DAB4227
:10026800A3EB050607D0B610002455F8043B01346B
:100278009847A642F9D806F041FA094D094B5E1B8A
:10028800AB424FEAA60606D0002455F8043B0134D9
:100298009847A642F9D870BD3C6B00083C6B000833
:1002A8003C6B0008406B0008830730B547D0541EEC
:1002B800002A3ED0CAB2034601E0013C39D303F814
:1002C800012B9D07F9D1032C2CD9CDB205EB0525BF
:1002D8000F2C05EB054535D9A4F1100222F00F0CBF
:1002E80003F1100EE6444FEA121C1A46C2E9005503
:1002F800C2E9025510327245F8D10CF1010214F02E
:100308000C0F03EB021204F00F0C13D0ACF1040332
:1003180023F003030433134442F8045B9342FBD1F4
:100328000CF003042CB1C9B21C4403F8011BA3420E
:10033800FBD130BD64461346002CF4D1F9E70346DF
:100348001446C0E71A46A446E0E700BF844641EADF
:10035800000313F003036DD1403A41D351F8043B35
:1003680040F8043B51F8043B40F8043B51F8043B87
:1003780040F8043B51F8043B40F8043B51F8043B77
:1003880040F8043B51F8043B40F8043B51F8043B67
:1003980040F8043B51F8043B40F8043B51F8043B57
:1003A80040F8043B51F8043B40F8043B51F8043B47
:1003B80040F8043B51F8043B40F8043B51F8043B37
:1003C80040F8043B51F8043B40F8043B51F8043B27
:1003D80040F8043B51F8043B40F8043B403ABDD296
:1003E800303211D351F8043B40F8043B51F8043B38
:1003F80040F8043B51F8043B40F8043B51F8043BF7
:1004080040F8043B103AEDD20C3205D351F8043BC6
:1004180040F8043B043AF9D2043208D0D2071CBF92
:1004280011F8013B00F8013B01D30B8803806046BB
:10043800704700BF082A13D38B078DD010F0030331
:100448008AD0C3F10403D21ADB071CBF11F8013BA1
:1004580000F8013B80D331F8023B20F8023B7BE7F0
:10046800043AD9D3013A11F8013B00F8013BF9D21B
:100478000B7803704B7843708B78837060467047B5
:1004880010EE103A194923F000428A421BD9B2F102
:10049800FF4F02D330EE400A704700B583B068467C
:1004A80000F070F800F003000128DDED010A9DED71
:1004B800000A13D002280BD098B9012000F01AF8CE
:1004C80003B05DF804FBDFED0A0A002000F012B863
:1004D800012000F00FF8B1EE400AF1E700F01AFD34
:1004E800EEE700F017FDB1EE400AE9E7D80F493F03
:1004F8000000000010EE103A23F00043B3F1485F0B
:1005080004D2FDEEC07A17EE903A5BB360EE007A43
:100518009FED157ADFED155A9FED156ADFED156A27
:10052800E7EE875A9FED147AA5EEA76A20EE275AC0
:10053800E6EE276AA6EEA77A30B9DFED106AE7EE95
:10054800876AA6EE850A704727EE457AF6EE006AB6
:10055800A0EEA67ADFED0A6AD7EE270AE5EE260AAC
:1005680030EE600A704700BFD3C92E2F342FD7B2A0
:100578001BEF3836010D50B98988083CABAA2ABE52
:10058800ABAA2A3E70B510EE103A884A23F0004410
:10059800944286B0054671D9854A94421E4624D8AD
:1005A80023F00042002BDFED837A834922F00F020B
:1005B800B0EE407A40F3E0808A4270EE677A09BF75
:1005C8009FED7E7ADFED7E6ADFED7E6A77EEC77A91
:1005D80037EEE67A77EEC77A80ED007A77EEE67A3C
:1005E800C0ED017A012006B070BD774A944252D915
:1005F800B4F1FF4F48D2E215863AA4EBC25307EE96
:10060800903ABDEEE77ADFED716AB8EEC77A77EE19
:10061800C77A8DED037A67EEA67ABDEEE77AB8EE73
:10062800C77A77EEC77A8DED047A67EEA67AF5EE8B
:10063800407AF1EE10FACDED057A40F09880B5EEEB
:10064800407AF1EE10FA0CBF0123022360490191B0
:100658000221009103A8294600F0CCF8002EC2DA46
:1006680095ED007AD5ED017AB1EE477AF1EE677A29
:1006780085ED007AC5ED017A4042B4E7002285EDA8
:10068800000A42600020AEE770EE407AC0ED017AC1
:10069800C0ED007AF6E700F0A5F89FED4E7A9FEDE1
:1006A800456AF6EE007AE0EE077A9FED457AFDEEB0
:1006B800E77A17EE900AF8EEE76A1F28A6EEC60A50
:1006C80066EE877AB1EE666A20DC434A411E26F060
:1006D800004352F8212023F0FF03934216D030EE56
:1006E800677A30EE470A002E30EE670A85ED007A09
:1006F80085ED010ABFF677AFB1EE477AB1EE400A51
:1007080085ED007A85ED010A40426CE730EE677AA4
:10071800E21517EE103AC3F3C753C3EBD453082BB3
:10072800DFDD9FED267A9FED275AF0EE405AE6EE80
:10073800075A70EE657AE6EE077AD6EE857A35EED8
:10074800E77A17EE103AC3F3C753D21A192A10DD05
:100758009FED227A9FED225AB0EE650AA6EE070AAF
:1007680075EEC07AE6EE077AD6EE857AB7E7032308
:100778006CE7B0EE650AB4E78A4270EE277A09BFE3
:100788009FED0E7ADFED0E6ADFED0E6A77EE877A5F
:1007980037EEA67A77EEC77A80ED007A77EEA67AFA
:1007A800C0ED017A4FF0FF301DE700BFD80F493F79
:1007B800E3CB1640800FC93FD00FC93F00443537FF
:1007C8004344353708A3852E800F494300008043F2
:1007D800AC67000884F9223F2C67000800A3852E27
:1007E80032318D2410EE103A23F0004300EE103A17
:1007F800704700BF2DE9F04F2DED048BDBB01C4690
:10080800944603930A46CD4B68991CF1040F53F89C
:100818002160824604F1FF38C0F24982BCF103032B
:1008280048BF0CF10403DB10029301334FEAC30EF7
:10083800ACEB0E030593029B16EB0800A3EB080331
:1008480016D401309FEDBE7A699C18441EA9002B6E
:10085800A4BF54F8235007EE905A03F10103ACBF2C
:10086800F8EEE77AF0EE477A8342E1EC017AEED1CE
:10087800002EC0F2B182039B1EA901EB830446AD92
:100888004FEA83094046F7180AEB8301B8F1000FD5
:10089800DFEDAB7A09DBA3465346F3EC016A3BED87
:1008A800017A8B42E6EE877AF7D10130B842E5EC5F
:1008B800017A04F10404E9D10DF1280B0BEB86034E
:1008C800CDE9062E043B9FEDA09ADFED9E8A0598A0
:1008D80004930AEB090446AF0BEB86090096CDF8A2
:1008E80020C05AAB03EB8603002E13ED140A4FEA1F
:1008F800860515DD7B195A4660EE097AB0EE407A16
:10090800FDEEE77A73ED016AF8EEE77ABB42A7EEEF
:10091800E87A37EEA60ABDEEC77AA2EC017AEBD1E7
:10092800019000F085FAF4EE007AB0EE408A20EEED
:10093800270A00F071FBF2EE007AA0EE678A0198B0
:100948000028FDEEC89AF8EEE97A38EE678A6CDD81
:1009580006F1FF3EC0F108035BF82E2042FA03FCC3
:100968000CFA03F3D21AC0F1070119EE903A4BF8CA
:100978002E200A416344002A09EE903A00F3F080E1
:10098800B5EE408AF1EE10FA40F09D80009B9E4241
:100998000ADD5D44002355F8041D4D4543EA010373
:1009A800F9D1002B40F0F280009B013B5BF823302B
:1009B800002B40F0E780049B012153F8042D0131FE
:1009C800002AFAD0731C31449C46029D039A05EB19
:1009D800030E0EF1804E699D32440EF1FF3E07EB87
:1009E80083061EAB05EB8E0E03EB8205DEED017A66
:1009F800F8EEE77AB8F1000F0EF1040EE5EC017A93
:100A0800DFED4F7A09DB2A465346F3EC016A32EDF3
:100A1800017AA342E6EE877AF7D10CF1010C614521
:100A2800E6EC017AE2DA0E465BE740F08F80731E4F
:100A38005BF82320D211002AA2DD19EE903A002E8D
:100A480003F1010309EE903A40F3D48159464FF07F
:100A5800000E51F8043B002B6AD0C3F5807341F8AF
:100A6800043C04E00B68C3F1FF0341F8043B0EF1BA
:100A7800010E7645F6DC01239E4600280ADD012892
:100A880078D0022806D1711E5BF8213003F03F0CA4
:100A98004BF821C0022A7FF473AFB7EE000A734601
:100AA80030EE488A002B3FF46BAF0992019000F0BA
:100AB800BFF938EE408A0198099AB5EE408AF1EEFE
:100AC80010FA3FF463AF9246DDE9062EDDF820C048
:100AD8000196AEEB0C00B0EE480A009E009200F0C2
:100AE800A7F9DFED186AB4EEE60AF1EE10FADDE9CF
:100AF8000023F0EE407AC0F250819FED137A0599F9
:100B080020EE077A0831BDEEC77A0591B8EEC77AAC
:100B18005C1CE7EE667ABDEEC77AFDEEE77A17EE63
:100B2800901A4BF8231017EE103A4BF8243046E091
:100B38000EF1010EB6458CDB9E469EE7C46A00089E
:100B480000000000000080430000803BF6EE007AC1
:100B5800B4EEE78AF1EE10FA80F2988000220FE7EF
:100B68000133002E09EE903A3FF770AF00230128B9
:100B78009E4686D1711E5BF8213003F07F0C4BF83E
:100B880021C087E7731C9C4619461EE733469246E8
:100B9800DDE905125C1EA1F108005BF82410009E37
:100BA800059061B903F18043013B0BEB83030146D8
:100BB80053F8040D013C08390028F9D0059105982F
:100BC8000092B7EE000A00F033F9002C009AB0EE5C
:100BD800407AC0F20581601C46AD5FED256A810050
:100BE8000BEB800305EB800073ED017AF8EEE77AF2
:100BF8005B4567EE877A27EE267A60ED017AF3D1B6
:100C08000DF1C8080B1F46A8C718C646A4460025FC
:100C18009146002E73DB844ADFED847A3846002340
:100C280001E0AB4208DCF2EC016AB0EC017A013376
:100C38009E42E6EE877AF4DA0CF1FF3CBCF1FF3F06
:100C4800EEEC017A05F10105A7F10407E1D1689BF3
:100C5800022B4A4656DC002B2EDC0ED1DFED737AD0
:100C6800414431ED017A414577EE877AF9D153460F
:100C7800002B40F0AE80C2ED007A19EE903A03F0F6
:100C880007005BB0BDEC048BBDE8F08F19EE903A1D
:100C9800002E03F1010309EE903AC8BF02223FF784
:100CA800D5AEF7EE007A37EEC88A022268E600234E
:100CB8004FF0080E0293BBE59FED5C7A414471ED5D
:100CC800017A414537EE277AF9D1DDED327A53467C
:100CD80077EEC77A002B75D182ED007A64B133A91B
:100CE8000123B1EC017A01339C4277EE877AF8DA76
:100CF80053460BB1F1EE677AC2ED017ABDE7DFED3D
:100D08004B7A99E7689B032BB7D1002C7ED008EB70
:100D1800840595ED007AA0002B46294671ED017AED
:100D2800F0EE476A37EE277A414577EEC77A81EDCC
:100D3800007A77EEA67AC1ED017AEFD1012C65D061
:100D480095ED007A08F1040173ED017AF0EE476A37
:100D580037EE277A994277EEC77A83ED007A77EEF5
:100D6800A67AC3ED017AEFD1031DDFED307A434453
:100D780008F1080833ED017A984577EE877AF9D1BA
:100D88005346DDED326A9DED337A73B9C2ED006AE0
:100D980082ED017AC2ED027A6FE7FDEEC07A1C4659
:100DA80017EE901A4BF8231009E7F1EE666AB1EED8
:100DB800477AF1EE677AC2ED006A82ED017AC2EDF8
:100DC800027A5AE7B1EE477A82ED007A002C86D192
:100DD80090E7F1EE677A4EE7039B4FEA83096BE5EC
:100DE800689B022B0EDC002B13DC7FF446AFDFED93
:100DF8000F7A3CE7022A7FF4C3ADF7EE007A37EEAC
:100E0800C88ABDE5689B032B7FF437AFDFED077A0F
:100E1800B6E75346DDED327A13B9002313606BE76A
:100E28004FF00043136065E7D06A00080000000037
:100E380010EE103A33F000411A4627D0B1F1FF4FB7
:100E480021D213F0FF4F22D1DFED2B7A2B4A60EE2F
:100E5800277A904217EE903A33DB4CF2503CC3F3BA
:100E6800C75160451A46A1F1190116DDDFED247A54
:100E7800DFED246A002BB0EE677AB8BFF0EE667A31
:100E880027EE870A704730EE000A704770474CF229
:100E9800503C60454FEAD151E8DC0144FE29E5DCCD
:100EA800002915DC11F1160F19DB193122F0FF4268
:100EB80042EAC15207EE902A9FED130A27EE800AF4
:100EC8007047DFED127A07EE103A27EE270A7047CF
:100ED80022F0FF4242EAC15300EE103A7047DFEDBC
:100EE8000B7ADFED0B6A002BB0EE677AB8BFF0EE35
:100EF800667A27EE870A70470000004CB03CFFFF77
:100F0800CAF24971CAF249F1000000336042A20DE9
:100F18006042A28D10EE103A23F00043B3F1485F0F
:100F28002CD2FDEEC07A17EE903A002B60D060EE1E
:100F3800007A9FED317A9FED315ADFED315A9FEDFE
:100F4800316ADFED316AA7EE875A9FED307AE7EE16
:100F5800855AA7EEA56AA7EE867AE7EE876A67EE56
:100F6800A66A60EEC00AB6EE007AE7EEA60AB7EE09
:100F7800000AD7EE870A30EE600A704760EE007A02
:100F88009FED1D7A9FED1D5ADFED1D5A9FED1D6ADD
:100F9800DFED1D6A1E4AA7EE875A93429FED1B7A22
:100FA800E5EE275AA5EEA76AA6EE277AE7EE276AA6
:100FB80066EEA76AD5D9174A934214D803F17F433E
:100FC80007EE103AB7EE006A36EE476A60EEC00ADE
:100FD800F6EE005A97EEA57AE7EEA60A37EE607AA3
:100FE80036EE470A7047B6EE076AB5EE027AEDE7C5
:100FF800B7EE000A704700BF4ED747ADF6740F3101
:101008007CF293B4010DD037ABAA2A3D610BB6BA76
:101018009999993E0000483F10EE102AC2F3C75331
:101028007F3B162B22F0004129DC002B104618DBF1
:101038001A4919410A4221D0DFED197A70EE277A50
:10104800F5EEC07AF1EE10FA18DD002A04DA4FF452
:10105800000242FA03F3184420EA010300EE103AB2
:101068007047DFED0F7A70EE277AF5EEC07AF1EE71
:1010780010FA03DD002A08DB9FED0A0A7047B1F178
:10108800FF4FFBD330EE000A7047DFED077A0029E7
:10109800BFEE000A08BFB0EE670A7047FFFF7F0087
:1010A800CAF24971000000000000008080B500AF5E
:1010B80000F01AF800F05EF8052003F019FE00BFF2
:1010C800F8E780B485B000AF786039604FF050031E
:1010D80083F31188BFF36F8FBFF34F8FFB6000BF9F
:1010E80000BE00BFFDE7000080B584B002AF03F08A
:1010F800C9FD00F069F800F0A9F800F0D7F800F091
:1011080023F900F0B9F900F0C9FA7F21134800F07B
:10111800E1FE124802F0A6FB002300934FF480631F
:101128000F4A00210F4803F039FE0F4B7B60D7EDC3
:10113800017A9FED0E7A67EE877AC7ED007AD7EDD0
:10114800007AFCEEE77A17EE900A00F03DF90848BD
:1011580000F084FF00BF0837BD4680BD2C0000208A
:1011680058010020980000200000C8410000804479
:101178000C01002080B584B000AF0121104802F0B6
:101188002DFC0346002B16D10D4802F0FFFC034648
:10119800FB81FB89184600F0C9F987ED020AD7EDF3
:1011A800027A9FED087A67EE877AC7ED017A97EDA4
:1011B800010A00F0E3F900BF1037BD4680BD00BF4B
:1011C8002C0000200000804480B594B000AF07F1E7
:1011D8001803382200211846FFF766F83B1D002245
:1011E8001A605A609A60DA601A610223BB614FF490
:1011F80080737B624023BB6200237B6307F1180383
:10120800184601F005FA0F237B600123BB60002319
:10121800FB6000233B6100237B613B1D00211846D6
:1012280001F008FD01F0A4FE0346074AA2FB0323D0
:101238009B09184603F0FDFC042003F007FD00BFDE
:101248005037BD4680BD00BFD34D621080B586B013
:1012580000AF154BDB6C144A43F00103D364124B07
:10126800DB6C03F001033B603B683B1D00221A6006
:101278005A609A60DA601A610323BB600023FB603E
:1012880010237B603B1D19464FF0904003F062F934
:1012980001237B603B1D19464FF0904003F05AF93B
:1012A80000BF1837BD4680BD0010024080B582B02F
:1012B80000AF224B9B6C214A43F0040393641F4BFD
:1012C8009B6C03F004037B607B681C4B9B6C1B4A84
:1012D80043F001039364194B9B6C03F001033B60DB
:1012E8003B68174B174A1A60154B06225A60144B75
:1012F80010229A60124B0022DA60114B80221A6188
:101308000F4B4FF480725A610D4B4FF480629A6113
:101318000B4B2022DA610A4B4FF400521A6208483C
:1013280000F036FB002200210D2003F05AFC0D20AE
:1013380003F071FC00BF0837BD4680BD00100240B5
:10134800AC0000203000024080B58EB000AF1A4BD0
:10135800DB6C194A43F48033D364174BDB6C03F41A
:1013680080337B607B68154B154A1A60134803F07D
:10137800E8FC124B134A9A60124B104A9A6207F122
:101388000803302200211846FEF78EFF1E237B61DA
:101398000023FB6100233B6101233B6200237B6246
:1013A80007F1080300221946044803F0E9FD00BFCD
:1013B8003837BD4680BD00BF0010024098000020AD
:1013C80000080050AC00002080B58AB000AF7860FB
:1013D800254B9B6D244A43F010039365224B9B6D6C
:1013E80003F01003FB60FB6863233B623B6A013335
:1013F8001E4AB2FBF3F3FB617B68002B04D0FA6949
:101408007B68B2FBF3F301E04FF4FA637B627B6A1B
:10141800012B01D802237B62154B164A1A60144A25
:101428003B6A5360124B00229A607B6A013B104A68
:10143800D3600F4B00229A610D4800F0ADFD07F113
:10144800100300221A605A609A6020233B6100232F
:10145800BB6107F110031946054803F081FF00BF7F
:101468002837BD4680BD00BF001002400024F400AC
:101478000C0100200010004080B58AB000AF284B56
:10148800DB6C274A43F40053D364254BDB6C03F42D
:1014980000537B607B68234B4FF0A0421A60214BBE
:1014A80000225A601F4B00229A601E4B0022DA600D
:1014B8001C4B00225A611B4B04229A61194B0022D3
:1014C8001A77184B01225A77164B01221A62154BCC
:1014D800002283F82420134B0022DA62114B0022E9
:1014E80083F838200F4B4FF48052DA630D4802F02E
:1014F8002BF807F10803202200211846FEF7D4FE36
:10150800094BBB600623FB6002233B6107F108031C
:101518001946044802F048FB00BF2837BD4680BD85
:10152800001002402C0000200200300480B485B076
:1015380000AF0346FB80FB8807EE903AB8EE677A67
:10154800DFED0B6AC7EE267AC7ED037AD7ED037A8B
:101558009FED087A67EE877A9FED077A77EE877AAC
:10156800B0EE670A1437BD465DF8047B704700BFCC
:1015780000F07F45000048420000000090B48CB0A5
:1015880000AF87ED010AD7ED017A9FED3F7AF4EEBF
:10159800C77AF1EE10FA01D53C4B7B603C4B07F162
:1015A8000C040FCB84E80F006323FB624FF4FA634B
:1015B800BB6200237B622CE07B6A5B0030333B44D8
:1015C80033F8243C0133334AB2FBF3F33B623B6A02
:1015D80007EE903AF8EE676A97ED017AC6EE877AD9
:1015E800FCEEE77A17EE903AFB61FB69012B0DD907
:1015F800FB69B3F5803F09D27B6A5B0030333B441B
:1016080033F8243CFB62FB69BB6205E07B6A01336B
:101618007B627B6A072BCFD91F4B1B681B6A03F0C1
:10162800113323F08853002B0FD11B4B1B681A6A08
:1016380044F244431340002B07D1174B1B681A6828
:10164800154B1B6822F001021A60134B1B68FA6ADB
:101658009A62114B1B68BA6A013ADA62BB6A013BAB
:101668000D4AD3600C4B1B6800225A620A4B1B6858
:101678001A68094B1B6842F001021A6000BF303734
:10168800BD4690BC704700BFCDCCCC3DCDCCCC3D49
:101698001C6700080024F4000C01002080B586B007
:1016A80000AF2B4BFB6000237B6147E07B6907EEB3
:1016B800903AB8EE677ADFED276AC7EE267A97ED9B
:1016C800037A67EE277AC7ED027A97ED020AFEF7EA
:1016D800D7FE87ED010AD7ED017A9FED1F7A67EEF5
:1016E800877A9FED1E7A77EE877AC7ED047AD7ED71
:1016F800047AF5EEC07AF1EE10FA02D54FF0000345
:101708003B61D7ED047A9FED167AF4EEC77AF1EED5
:1017180010FA01DD134B3B61D7ED047AB6EE007A7F
:1017280077EE877AFCEEE77A17EE903A99B20E4A8E
:101738007B6922F813107B6901337B617B69B3F500
:10174800806FB3D300BF00BF1837BD4680BD00BF50
:10175800DB0FC9400000804400E0FF440000004562
:1017680000F07F4500F07F455801002080B500AFAC
:10177800024800F030FA00BF80BD00BFAC00002076
:1017880080B48BB000AFF860B9607A603B6000232A
:10179800FB61FB6893F85C30FB76FB7E022B40F024
:1017A800E880BB68402B37D1FB681B68D3F89030C2
:1017B80003F00F03002B07D1FB681B6E43F4807204
:1017C800FB681A660123DBE0FB681B68D3F89030DE
:1017D80003F08073B3F1807F0AD1FB681B68D3F8EC
:1017E800803003F40073B3F5007F01D10123FB615E
:1017F800FB681B68D3F890301B0A03F00303FA69EF
:101808001344FB61FB68996CFA691346DB001344C7
:10181800DB000B447B6236E0FB681B68D3F898302A
:1018280003F00F03002B07D1FB681B6E43F4807293
:10183800FB681A660123A3E0FB681B68D3F898309D
:1018480003F08073B3F1807F0AD1FB681B68D3F87B
:10185800803003F48073B3F5807F01D10123FB61ED
:10186800FB681B68D3F898301B0A03F00303FA6976
:101878001344FB61FB68D96CFA691346DB00134417
:10188800DB000B447B627B6A1B6803F080427B6849
:101898005A607B685B68002B07D17B6A1B689B0CCE
:1018A800C3F30A027B681A6005E07B6A1B6823F0B1
:1018B80060427B681A607B6A1B6803F000527B6891
:1018C8009A607B6A1B6803F000427B681A617B6A36
:1018D80004337B627B6A1B689AB27B68DA617B6A35
:1018E8001B681B0C03F00F027B68DA607B6A1B68BD
:1018F80003F480127B685A617B6A1B6803F4001248
:101908007B689A617B6A1B681B0E03F07F027B6809
:101918001A627B6A1B68DA0F7B685A627B6A043337
:101928007B627B6A7B6100233B620AE07A693B6ADF
:101938001A4439683B6A0B4412781A703B6A0133BF
:101948003B627B68DB68114AD35C1A463B6A934268
:10195800ECD3BB68402B05D1FB681B68FA69C3F858
:10196800942004E0FB681B68FA69C3F89C200023F4
:1019780006E0FB681B6E43F00802FB681A66012349
:1019880018462C37BD465DF8047B7047FC6A000892
:1019980080B584B000AF78607B68002B01D101234B
:1019A8008EE07B681B681A46474B9A420FD87B68C3
:1019B8001B681A46454B1344454AA2FB03231B09DF
:1019C8009A007B685A647B68424A1A640EE07B6816
:1019D8001B681A46404B13443D4AA2FB03231B09CC
:1019E8009A007B685A647B683C4A1A647B680222C6
:1019F80083F825207B681B681B68FB60FB6823F461
:101A0800FF4323F07003FB607B689A687B68DB68A0
:101A18001A437B681B691A437B685B691A437B68B6
:101A28009B691A437B68DB691A437B681B6A13430B
:101A3800FA681343FB607B681B68FA681A60786869
:101A480000F0B6F97B689B68B3F5804F02D17B68DC
:101A580000225A607B685A687B689B6C02F07F02A0
:101A68001A607B68DB6C7A68126D5A607B685B6809
:101A7800002B10D07B685B68042B0CD8786800F0CA
:101A8800D5F97B685B6D00221A607B689B6D7A686C
:101A9800D26D5A6008E07B6800225A657B68002294
:101AA8009A657B680022DA657B680022DA637B68C6
:101AB800012283F825207B68002283F82420002354
:101AC80018461037BD4680BD07040240F8FFFDBF29
:101AD800CDCCCCCC00000240F8FBFDBF0004024096
:101AE80080B586B000AFF860B9607A603B600023CB
:101AF800FB75FB6893F82430012B01D1022366E0C3
:101B0800FB68012283F82420FB6893F82530DBB2B8
:101B1800012B55D1FB68022283F82520FB6800229F
:101B2800DA63FB681B681A68FB681B6822F001020D
:101B38001A603B687A68B968F86800F0FBF8FB68D7
:101B48001B6B002B08D0FB681B681A68FB681B68B6
:101B580042F00E021A600FE0FB681B681A68FB6807
:101B68001B6822F004021A60FB681B681A68FB688D
:101B78001B6842F00A021A60FB689B6C1B6803F43E
:101B88008033002B07D0FB689B6C1A68FB689B6C42
:101B980042F480721A60FB685B6D002B07D0FB680B
:101BA8005B6D1A68FB685B6D42F480721A60FB68B3
:101BB8001B681A68FB681B6842F001021A6005E09E
:101BC800FB68002283F824200223FB75FB7D18465E
:101BD8001837BD4680BD80B584B000AF78607B689B
:101BE8001B6C1B68FB607B681B681B68BB607B68A1
:101BF8005B6C03F01F0304229A40FB681340002B20
:101C080026D0BB6803F00403002B21D07B681B6837
:101C18001B6803F02003002B07D17B681B681A6838
:101C28007B681B6822F004021A607B685B6C03F017
:101C38001F027B681B6C042101FA02F25A607B6860
:101C48001B6B002B71D07B681B6B786898476CE026
:101C58007B685B6C03F01F0302229A40FB68134009
:101C6800002B2ED0BB6803F00203002B29D07B6821
:101C78001B681B6803F02003002B0BD17B681B68D3
:101C88001A687B681B6822F00A021A607B680122C6
:101C980083F825207B685B6C03F01F027B681B6C54
:101CA800022101FA02F25A607B68002283F824209C
:101CB8007B68DB6A002B38D07B68DB6A78689847DA
:101CC80033E07B685B6C03F01F0308229A40FB68D3
:101CD8001340002B2AD0BB6803F00803002B25D043
:101CE8007B681B681A687B681B6822F00E021A6002
:101CF8007B685B6C03F01F027B681B6C012101FA97
:101D080002F25A607B680122DA637B68012283F859
:101D180025207B68002283F824207B685B6B002BDE
:101D280004D07B685B6B7868984700BF00BF1037AA
:101D3800BD4680BD80B485B000AFF860B9607A60F8
:101D48003B60FB68DB6CFA68126D5A60FB685B6D80
:101D5800002B04D0FB689B6DFA68D26D5A60FB6853
:101D68005B6C03F01F02FB681B6C012101FA02F295
:101D78005A60FB681B683A685A60FB689B68102BBE
:101D880008D1FB681B687A689A60FB681B68BA68A8
:101D9800DA6007E0FB681B68BA689A60FB681B6832
:101DA8007A68DA6000BF1437BD465DF8047B704777
:101DB80080B487B000AF78607B681B681A46164B02
:101DC8009A4202D8154B7B6101E0154B7B617B6918
:101DD8003B617B681B68DBB2083B124AA2FB03230A
:101DE8001B09FB607B685B6C9B089A003B6913448A
:101DF8001A467B689A647B680B4ADA64FB6803F0CE
:101E08001F0301229A407B681A6500BF1C37BD4634
:101E18005DF8047B704700BF0704024000080240D9
:101E280020080240CDCCCCCC8008024080B485B0DC
:101E380000AF78607B685B6803F07F03FB60FA683B
:101E48000B4B13449B001A467B685A657B68094A0A
:101E58009A65FB68013B03F01F0301229A407B68E7
:101E6800DA6500BF1437BD465DF8047B704700BFD4
:101E78003F8200104009024080B483B000AF786010
:101E880039607B689B6823F0404323F03F033A683E
:101E980002F08042134343F000427B689A6000BF1F
:101EA8000C37BD465DF8047B704780B483B000AF43
:101EB80078607B689B6803F00043B3F1004F01D161
:101EC800012300E0002318460C37BD465DF8047B6B
:101ED8007047000080B584B000AF78603960002397
:101EE800BB607B6893F85830012B01D102234DE089
:101EF8007B68012283F85820786802F0CBFA034601
:101F0800FB73FB7B002B36D17B68DB6D23F4885396
:101F180023F0020343F002027B68DA657B681B68E2
:101F280039681846FFF7A8FF14E0BB680133BB60A7
:101F3800BB68184A93420DD97B68DB6D23F0120306
:101F480043F010027B68DA657B68002283F858202A
:101F580001231BE07B681B681846FFF7A6FF0346B2
:101F6800002BE2D17B68DB6D23F0030343F0010211
:101F78007B68DA6505E07B68DB6D43F010027B68FF
:101F8800DA657B68002283F85820FB7B18461037F7
:101F9800BD4680BD01DE040080B582B000AF786028
:101FA8007B68002B01D1012349E07B6893F83D3021
:101FB800DBB2002B06D17B68002283F83C207868CE
:101FC80000F041F87B68022283F83D207B681A689C
:101FD8007B6804331946104600F084FA7B680122B6
:101FE80083F848207B68012283F83E207B68012221
:101FF80083F83F207B68012283F840207B68012218
:1020080083F841207B68012283F842207B68012203
:1020180083F843207B68012283F844207B680122EF
:1020280083F845207B68012283F846207B680122DB
:1020380083F847207B68012283F83D200023184657
:102048000837BD4680BD80B483B000AF786000BF5C
:102058000C37BD465DF8047B7047000080B485B03E
:1020680000AF78607B6893F83D30DBB2012B01D07C
:10207800012342E07B68022283F83D207B681B68CD
:10208800214A934218D07B681B68B3F1804F13D064
:102098007B681B681D4A93420ED07B681B681C4AEC
:1020A800934209D07B681B681A4A934204D07B6824
:1020B8001B68194A934215D17B681B689A68174BAD
:1020C8001340FB60FB68062B15D0FB68B3F5803F17
:1020D80011D07B681B681A687B681B6842F0010294
:1020E8001A6008E07B681B681A687B681B6842F006
:1020F80001021A6000E000BF002318461437BD46ED
:102108005DF8047B704700BF002C014000040040CC
:102118000008004000340140004001400700010071
:1021280080B485B000AF78607B6893F83D30DBB24F
:10213800012B01D001234AE07B68022283F83D206D
:102148007B681B68DA687B681B6842F00102DA600A
:102158007B681B68214A934218D07B681B68B3F1DF
:10216800804F13D07B681B681D4A93420ED07B6852
:102178001B681C4A934209D07B681B681A4A934221
:1021880004D07B681B68194A934215D17B681B6889
:102198009A68174B1340FB60FB68062B15D0FB6849
:1021A800B3F5803F11D07B681B681A687B681B6891
:1021B80042F001021A6008E07B681B681A687B68B5
:1021C8001B6842F001021A6000E000BF00231846B5
:1021D8001437BD465DF8047B704700BF002C0140F2
:1021E8000004004000080040003401400040014065
:1021F8000700010080B584B000AF78607B681B6879
:10220800DB68FB607B681B681B69BB60BB6803F00D
:102218000203002B20D0FB6803F00203002B1BD025
:102228007B681B686FF002021A617B6801221A77CB
:102238007B681B689B6903F00303002B03D0786855
:1022480000F031F905E0786800F023F9786800F0CB
:1022580034F97B6800221A77BB6803F00403002B6B
:1022680020D0FB6803F00403002B1BD07B681B689D
:102278006FF004021A617B6802221A777B681B6878
:102288009B6903F44073002B03D0786800F00BF9C6
:1022980005E0786800F0FDF8786800F00EF97B68D2
:1022A80000221A77BB6803F00803002B20D0FB68D4
:1022B80003F00803002B1BD07B681B686FF0080233
:1022C8001A617B6804221A777B681B68DB6903F054
:1022D8000303002B03D0786800F0E5F805E0786880
:1022E80000F0D7F8786800F0E8F87B6800221A77E1
:1022F800BB6803F01003002B20D0FB6803F0100329
:10230800002B1BD07B681B686FF010021A617B687A
:1023180008221A777B681B68DB6903F44073002B7B
:1023280003D0786800F0BFF805E0786800F0B1F8ED
:10233800786800F0C2F87B6800221A77BB6803F05F
:102348000103002B0CD0FB6803F00103002B07D01E
:102358007B681B686FF001021A61786802F052FB13
:10236800BB6803F08003002B04D1BB6803F400535F
:10237800002B0CD0FB6803F08003002B07D07B6890
:102388001B686FF402521A61786803F075F8BB682D
:1023980003F48073002B0CD0FB6803F08003002B40
:1023A80007D07B681B686FF480721A61786803F045
:1023B8006DF8BB6803F04003002B0CD0FB6803F0FA
:1023C8004003002B07D07B681B686FF040021A613E
:1023D800786800F07CF8BB6803F02003002B0CD071
:1023E800FB6803F02003002B07D07B681B686FF0A5
:1023F80020021A61786803F035F8BB6803F480138B
:10240800002B0CD0FB6803F48013002B07D07B68EB
:102418001B686FF480121A61786803F041F8BB6892
:1024280003F40013002B0CD0FB6803F40013002BFB
:1024380007D07B681B686FF400121A61786803F094
:1024480039F8BB6803F48003002B0CD0FB6803F455
:102458008003002B07D07B681B686FF480021A6129
:10246800786803F031F8BB6803F40003002B0CD044
:10247800FB6803F40003002B07D07B681B686FF42C
:1024880000021A61786803F029F800BF1037BD46CA
:1024980080BD80B483B000AF786000BF0C37BD4604
:1024A8005DF8047B704780B483B000AF786000BFEC
:1024B8000C37BD465DF8047B704780B483B000AF2D
:1024C800786000BF0C37BD465DF8047B704780B468
:1024D80083B000AF786000BF0C37BD465DF8047B61
:1024E8007047000080B485B000AF786039607B68C1
:1024F8001B68FB607B683F4A93420FD07B68B3F14F
:10250800804F0BD07B683C4A934207D07B683B4A9C
:10251800934203D07B683A4A934208D1FB6823F080
:102528007003FB603B685B68FA681343FB607B6879
:10253800304A93421BD07B68B3F1804F17D07B6839
:102548002D4A934213D07B682C4A93420FD07B6864
:102558002B4A93420BD07B682A4A934207D07B6868
:10256800294A934203D07B68284A934208D1FB68E2
:1025780023F44073FB603B68DB68FA681343FB6035
:10258800FB6823F080023B685B691343FB603B6890
:102598009A687B68DA623B681A687B689A627B682B
:1025A800144A93420FD07B68154A93420BD07B683C
:1025B800144A934207D07B68134A934203D07B683E
:1025C800124A934203D13B681A697B681A637B6895
:1025D8001B6843F004027B681A607B6801225A6119
:1025E8007B68FA681A6000BF1437BD465DF8047B43
:1025F800704700BF002C0140000400400008004064
:1026080000340140004001400044014000480140BE
:1026180080B588B000AF78607B68002B01D10123BA
:10262800FEE27B681B6803F00103002B75D0974B13
:102638009B6803F00C03BB61944BDB6803F0030356
:102648007B61BB690C2B02D17B69032B02D0BB6970
:10265800082B0BD18D4B1B6803F40033002B5BD088
:102668007B685B68002B57D10123D9E27B685B68E4
:10267800B3F5803F06D1854B1B68844A43F4803309
:1026880013601DE07B685B68B3F5A02F0CD17F4B0E
:102698001B687E4A43F4802313607C4B1B687B4A8B
:1026A80043F4803313600BE0784B1B68774A23F4BC
:1026B80080331360754B1B68744A23F480231360BE
:1026C8007B685B68002B13D002F006FB386108E0DA
:1026D80002F002FB02463B69D31A642B01D903239B
:1026E8009EE26A4B1B6803F40033002BF0D014E021
:1026F80002F0F2FA386108E002F0EEFA02463B69AD
:10270800D31A642B01D903238AE2604B1B6803F4B4
:102718000033002BF0D100E000BF7B681B6803F09A
:102728000203002B75D0594B9B6803F00C03BB6167
:10273800564BDB6803F003037B61BB690C2B02D1AA
:102748007B69022B02D0BB69042B1FD14F4B1B683E
:1027580003F48063002B05D07B68DB68002B01D174
:1027680001235DE2494B5B6823F0FE427B681B69ED
:102778001B06464913434B60454B1B68184602F03D
:10278800C9F80346002B43D0012349E27B68DB6884
:10279800002B23D03D4B1B683C4A43F480731360E5
:1027A80002F09AFA386108E002F096FA02463B69AC
:1027B800D31A022B01D9032332E2344B1B6803F4EA
:1027C8008063002BF0D0314B5B6823F0FE427B68BE
:1027D8001B691B062D4913434B601AE02B4B1B68E2
:1027E8002A4A23F48073136002F076FA386108E00D
:1027F80002F072FA02463B69D31A022B01D903236D
:102808000EE2224B1B6803F48063002BF0D100E03A
:1028180000BF7B681B6803F00803002B41D07B686E
:102828005B69002B1CD0194BD3F89430174A43F03E
:102838000103C2F8943002F04FFA386108E002F060
:102848004BFA02463B69D31A022B01D90323E7E16D
:102858000E4BD3F8943003F00203002BEFD020E0A6
:102868000A4BD3F89430094A23F00103C2F8943094
:1028780002F032FA38610DE002F02EFA02463B69A6
:10288800D31A022B06D90323CAE100BF0010024065
:10289800000000208C4BD3F8943003F00203002B87
:1028A800EAD17B681B6803F00403002B00F0A680C4
:1028B8000023FB77844B9B6D03F08053002B01D1E1
:1028C800012300E00023002B0DD07F4B9B6D7E4A37
:1028D80043F0805393657C4B9B6D03F08053FB6002
:1028E800FB680123FB77794B1B6803F48073002B8B
:1028F80018D1764B1B68754A43F48073136002F055
:10290800EBF9386108E002F0E7F902463B69D31AAF
:10291800022B01D9032383E16C4B1B6803F48073FA
:10292800002BF0D07B689B68012B08D1664BD3F84D
:102938009030654A43F00103C2F8903024E07B6888
:102948009B68052B10D1604BD3F890305E4A43F05A
:102958000403C2F890305C4BD3F890305A4A43F0E5
:102968000103C2F890300FE0574BD3F89030564A25
:1029780023F00103C2F89030534BD3F89030524AF9
:1029880023F00403C2F890307B689B68002B16D0B4
:1029980002F0A2F938610AE002F09EF902463B69AA
:1029A800D31A41F28832934201D9032338E1464BC6
:1029B800D3F8903003F00203002BEDD015E002F0BD
:1029C8008BF938610AE002F087F902463B69D31AAD
:1029D80041F28832934201D9032321E13A4BD3F8DB
:1029E800903003F00203002BEDD1FB7F012B05D1C2
:1029F800354B9B6D344A23F0805393657B681B6885
:102A080003F02003002B3CD07B689B69002B1CD073
:102A18002D4BD3F898302C4A43F00103C2F8983074
:102A280002F05AF9386108E002F056F902463B69AB
:102A3800D31A022B01D90323F2E0234BD3F89830A1
:102A480003F00203002BEFD01BE01F4BD3F89830A4
:102A58001D4A23F00103C2F8983002F03DF93861AD
:102A680008E002F039F902463B69D31A022B01D972
:102A78000323D5E0144BD3F8983003F00203002B5E
:102A8800EFD17B68DB69002B00F0C9800E4B9B6897
:102A980003F00C030C2B00F083807B68DB69022BAE
:102AA8005ED1094B1B68084A23F08073136002F05B
:102AB80013F938610CE002F00FF902463B69D31AAA
:102AC800022B05D90323ABE0001002400070004040
:102AD800554B1B6803F00073002BECD1524BDA689E
:102AE800524B13407A68116A7A68526A013A1201A5
:102AF80011437A68926A120211437A68126B52087B
:102B0800013A520511437A68526B5208013A52064B
:102B180011437A68D26AD2060A4343491343CB6009
:102B2800414B1B68404A43F0807313603E4BDB689F
:102B38003D4A43F08073D36002F0CEF8386108E074
:102B480002F0CAF802463B69D31A022B01D90323C3
:102B580066E0354B1B6803F00073002BF0D05EE095
:102B6800314B1B68304A23F08073136002F0B4F8CD
:102B7800386108E002F0B0F802463B69D31A022B2C
:102B880001D903234CE0284B1B6803F00073002B8A
:102B9800F0D1254BDA682449254B1340CB603EE041
:102BA8007B68DB69012B01D1012339E01E4BDB680F
:102BB8007B617B6903F003027B681B6A9A422CD114
:102BC8007B6903F0F0027B685B6A013B1B019A4258
:102BD80023D17B6903F4FE427B689B6A1B029A42FD
:102BE8001BD17B6903F078427B68DB6ADB069A427B
:102BF80013D17B6903F4C0027B681B6B5B08013B44
:102C08005B059A4209D17B6903F0C0627B685B6B04
:102C18005B08013B5B069A4201D0012300E00023D8
:102C280018462037BD4680BD001002400C809F0129
:102C3800FCFFEEFE80B586B000AF786039600023F7
:102C48007B617B68002B01D101231EE1914B1B683E
:102C580003F00F033A689A4210D98E4B1B6823F091
:102C68000F028C493B6813430B608A4B1B6803F0C7
:102C78000F033A689A4201D0012306E17B681B687A
:102C880003F00103002B73D07B685B68032B29D109
:102C9800814B1B6803F00073002B01D10123F4E082
:102CA80000F0BAF938613B697C4A93423FD97A4BC4
:102CB8009B6803F0F003002B09D07B681B6803F0C6
:102CC8000203002B33D07B689B68002B2FD1724BFB
:102CD8009B6823F0F003704A43F0800393608023DD
:102CE8007B6124E07B685B68022B07D16A4B1B6819
:102CF80003F40033002B09D10123C6E0664B1B689F
:102D080003F48063002B01D10123BEE000F0CEF86C
:102D180038613B69614A934209D95F4B9B6823F04C
:102D2800F0035D4A43F08003936080237B615A4B34
:102D38009B6823F003027B685B68574913438B60E9
:102D480001F0CAFFF8600AE001F0C6FF0246FB681E
:102D5800D31A41F28832934201D9032395E04E4BAE
:102D68009B6803F00C027B685B689B009A42EBD17E
:102D78007B681B6803F00203002B23D07B681B6869
:102D880003F00403002B05D0434B9B68424A43F4ED
:102D9800E06393607B681B6803F00803002B07D08F
:102DA8003D4B9B6823F47C533B4A43F4E0639360B8
:102DB800394B9B6823F0F0027B689B6836491343C4
:102DC8008B6008E07B69802B05D1334B9B68324AC6
:102DD80023F0F00393602F4B1B6803F00F033A684E
:102DE8009A421DD22B4B1B6823F00F0229493B68DE
:102DF80013430B6001F070FFF8600AE001F06CFF0C
:102E08000246FB68D31A41F28832934201D9032360
:102E18003BE0204B1B6803F00F033A689A42EDD160
:102E28007B681B6803F00403002B08D01A4B9B68CF
:102E380023F4E0627B68DB68174913438B607B6887
:102E48001B6803F00803002B09D0134B9B6823F47D
:102E580060527B681B69DB000F4913438B6000F0ED
:102E680025F802460C4B9B681B0903F00F030C491D
:102E7800CB5C03F01F0322FA03F30A4A13600A4BE0
:102E88001B68184601F046FD034618461837BD462C
:102E980080BD00BF002002400010024000B4C404FE
:102EA8000C6B0008080000200000002080B487B0E8
:102EB80000AF2C4B9B6803F00C03042B02D12A4B68
:102EC8003B6147E0274B9B6803F00C03082B02D1BA
:102ED800264B3B613EE0234B9B6803F00C030C2B15
:102EE80036D1204BDB6803F00303FB601D4BDB6826
:102EF8001B0903F00F030133BB60FB68032B0CD1E4
:102F08001A4ABB68B2FBF3F3164AD268120A02F0F7
:102F18007F0202FB03F37B610CE0134ABB68B2FB40
:102F2800F3F3104AD268120A02F07F0202FB03F39D
:102F38007B6100BF0B4BDB685B0E03F003030133BF
:102F48005B007B607A697B68B2FBF3F33B6101E06D
:102F580000233B613B6918461C37BD465DF8047B7E
:102F6800704700BF001002400024F40040787D0143
:102F780080B400AF034B1B681846BD465DF8047B60
:102F8800704700BF0800002080B500AFFFF7F0FFD2
:102F98000246064B9B681B0A03F007030449CB5CF7
:102FA80003F01F0322FA03F3184680BD0010024005
:102FB8001C6B000880B483B000AF786039607B6810
:102FC8000F221A60124B9B6803F003027B685A6059
:102FD8000F4B9B6803F0F0027B689A600C4B9B6870
:102FE80003F4E0627B68DA60094B9B68DB0803F452
:102FF800E0627B681A61074B1B6803F00F023B68AD
:103008001A6000BF0C37BD465DF8047B704700BFEF
:10301800001002400020024080B487B000AF1E4B71
:10302800DB6803F003033B611B4BDB681B0903F000
:103038000F030133FB603B69032B0CD1174AFB6874
:10304800B2FBF3F3144AD268120A02F07F0202FBC1
:1030580003F37B610CE0124AFB68B2FBF3F30E4A00
:10306800D268120A02F07F0202FB03F37B6100BF01
:10307800094BDB685B0E03F0030301335B00BB60A5
:103088007A69BB68B2FBF3F37B607B6818461C3730
:10309800BD465DF8047B70470010024040787D0112
:1030A8000024F40080B483B000AF786039607B6896
:1030B8009B6823F47C123B681A437B689A6000BFC4
:1030C8000C37BD465DF8047B704780B483B000AF11
:1030D800786039607B689B6823F0E0723B681A432C
:1030E8007B689A6000BF0C37BD465DF8047B70476B
:1030F80080B483B000AF78607B689B6803F0E073AE
:1031080018460C37BD465DF8047B704780B487B01D
:1031180000AFF860B9607A603B60FB6860331A46BC
:10312800BB689B0013447B617B691A68084B13409A
:103138007A6802F0F8413A680A43134343F00042C0
:103148007B691A6000BF1C37BD465DF8047B704779
:1031580000F0FF0380B485B000AF786039607B6809
:1031680060331A463B689B001344FB60FB681B688E
:1031780003F0F84318461437BD465DF8047B7047E2
:1031880080B487B000AFF860B9607A60FB686033DC
:103198001A46BB689B0013447B617B691B6823F05C
:1031A80000427B681A437B691A6000BF1C37BD4622
:1031B8005DF8047B704780B487B000AFF860B960F1
:1031C8007A60FB6860331A46BB689B0013447B61D6
:1031D8007B691B6823F080727B681A437B691A60DD
:1031E80000BF1C37BD465DF8047B704780B487B0CC
:1031F80000AFF860B9607A60FB6860331A46BB6854
:103208009B0013447B617B691B6823F000727B6819
:103218001A437B691A6000BF1C37BD465DF8047B02
:10322800704780B483B000AF786039607B685B69B1
:1032380023F000423B681A437B685A6100BF0C3791
:10324800BD465DF8047B704780B483B000AF7860FA
:103258007B68DB6803F44063002B01D1012300E0A5
:10326800002318460C37BD465DF8047B704780B4D0
:1032780087B000AFF860B9607A60FB6830331A46EF
:10328800BB681B0A9B0003F00C0313447B617B693A
:103298001A68BB6803F01F031F2101FA03F3DB431D
:1032A8001A407B689B0E03F01F01BB6803F01F03E5
:1032B80001FA03F31A437B691A6000BF1C37BD4645
:1032C8005DF8047B704780B487B000AFF860B960E0
:1032D8007A60FB6814331A46BB685B0E9B0003F0E8
:1032E800040313447B617B691A68BB681B0D03F0F8
:1032F8001F03072101FA03F3DB431A40BB681B0DC8
:1033080003F01F03796801FA03F31A437B691A6013
:1033180000BF1C37BD465DF8047B704780B485B09C
:1033280000AFF860B9607A60FB68D3F8B020BB687A
:10333800C3F31203DB431A407B6803F01803084900
:10334800D940BB680B40C3F312031A43FB68C3F8A8
:10335800B02000BF1437BD465DF8047B704700BF3E
:10336800FFFF070080B483B000AF78607B689B687C
:1033780003F01F0318460C37BD465DF8047B704701
:1033880080B483B000AF78607B689B6803F46043C7
:1033980018460C37BD465DF8047B704780B483B08F
:1033A80000AF78607B689B6823F0204323F03F03DD
:1033B8007A68936000BF0C37BD465DF8047B7047A0
:1033C80080B483B000AF78607B689B6803F00053DB
:1033D800B3F1005F01D1012300E0002318460C3748
:1033E800BD465DF8047B704780B483B000AF786059
:1033F8007B689B6823F0104323F03F0343F080521F
:103408007B689A6000BF0C37BD465DF8047B704747
:1034180080B483B000AF78607B689B6803F080530A
:10342800B3F1805F01D1012300E0002318460C3777
:10343800BD465DF8047B704780B483B000AF786008
:103448007B689B6823F0004323F03F0343F00102AD
:103458007B689A6000BF0C37BD465DF8047B7047F7
:1034680080B483B000AF78607B689B6823F000432A
:1034780023F03F0343F002027B689A6000BF0C37D9
:10348800BD465DF8047B704780B483B000AF7860B8
:103498007B689B6803F00103012B01D1012300E045
:1034A800002318460C37BD465DF8047B704780B48E
:1034B80083B000AF78607B689B6803F00203022B3F
:1034C80001D1012300E0002318460C37BD465DF802
:1034D800047B704780B483B000AF78607B689B68DA
:1034E80023F0004323F03F0343F004027B689A6013
:1034F80000BF0C37BD465DF8047B704780B483B0CD
:1035080000AF78607B689B6803F00403042B01D14B
:10351800012300E0002318460C37BD465DF8047B04
:10352800704780B483B000AF78607B689B6803F015
:103538000803082B01D1012300E0002318460C37AB
:10354800BD465DF8047B704790B589B000AF7860E0
:103558000023FB770023FB607B68002B01D101234C
:1035680067E17B685B69002B7B68DB6D002B09D109
:10357800786800F06DF97B6800221A667B68002283
:1035880083F858207B681B681846FFF719FF034625
:10359800002B04D07B681B681846FFF7FFFE7B688A
:1035A8001B681846FFF734FF0346002B15D17B68CC
:1035B8001B681846FFF718FFA04B1B689B09A04A19
:1035C800A2FB03239B0901335B00FB6002E0FB685D
:1035D800013BFB60FB68002BF9D17B681B68184630
:1035E800FFF716FF0346002B0DD17B68DB6D43F018
:1035F80010027B68DA657B681B6E43F001027B680A
:103608001A660123FB777B681B681846FFF776FF6D
:1036180078617B68DB6D03F01003002B40F00081BC
:103628007B69002B40F0FC807B68DB6D23F48173A1
:1036380043F002027B68DA657B681B681846FFF76F
:1036480023FF0346002B11D14FF0A040FFF71CFFCA
:1036580004467C48FFF718FF03462343002B05D197
:103668007B685B6819467848FFF71CFD7B685B7FC1
:103678005A037B68DB6B1A437B68DB681A437B68F9
:103688009B681A437B6893F824301B041343BB617F
:103698007B6893F82430012B06D17B689B6A013B39
:1036A8005B04BA691343BB617B68DB6A002B09D0F2
:1036B8007B68DB6A03F478727B681B6B1343BA6917
:1036C8001343BB617B681B68DA68604B13407A68F8
:1036D8001268B9690B43D3607B681B681B6923F0C8
:1036E80040617B685A6B7B681B680A431A617B6878
:1036F8001B681846FFF715FF38617B69002B6DD1F1
:103708003B69002B6AD17B681B7F9A037B6893F81F
:1037180038305B001343BB617B681B68DB6823F4AC
:10372800804323F002037A681268B9690B43D360B7
:103738007B681B69002B17D07B681B681A697B683C
:103748001B6842F480321A617B681B68D3F8C0306A
:1037580023F47F5323F03F037A6811697A6812686B
:103768000B43C2F8C03013E07B681B681A697B689A
:103778001B6822F480321A617B681B68D3F8C0305A
:103788007A68126823F47F5323F03F03C2F8C030ED
:103798007B6893F84030012B18D17B681B681B6944
:1037A80023F4FF6323F004037A68516C7A68926CFF
:1037B80011437A68D26C11437A68126D0A431A432E
:1037C8007B681B6842F001021A6107E07B681B688E
:1037D8001A697B681B6822F001021A617B685B69C1
:1037E800012B0CD17B681B681B6B23F00F017B68D6
:1037F8001B6A5A1E7B681B680A431A6307E07B68CA
:103808001B681A6B7B681B6822F00F021A637B68BF
:10381800DB6D23F0030343F001027B68DA6507E000
:103828007B68DB6D43F010027B68DA650123FB7768
:10383800FB7F18462437BD4690BD00BF0800002016
:10384800632D3E0500010050000300500740F0FFC3
:1038580080B483B000AF786000BF0C37BD465DF818
:10386800047B704780B586B000AF78605948FFF791
:1038780079FD38617B681B681846FFF73FFE0346F1
:10388800002B40F09F807B6893F85830012B01D1C2
:1038980002239AE07B68012283F85820786800F0B8
:1038A80073FD0346FB75FB7D002B40F086807B682B
:1038B800DB6D23F4706323F0010343F480727B68AB
:1038C800DA657B681B68444A934202D07B681B68B0
:1038D80001E04FF0A0437A681268934202D03B6936
:1038E800002B05D17B68DB6D23F480127B68DA65D9
:1038F8007B68DB6D03F48053B3F5805F06D17B688A
:103908001B6E23F006027B681A6602E07B680022C1
:103918001A667B681B681C221A607B68002283F881
:1039280058207B681B682C4A934202D07B681B682E
:1039380001E04FF0A0437A681268934208D03B69CF
:10394800002B05D03B69052B02D03B69092B14D10C
:103958007B681B68DB6803F00073002B07D07B686B
:10396800DB6D23F4405343F480527B68DA657B684F
:103978001B681846FFF7AEFD26E07B68DB6D43F455
:1039880080127B68DA657B681B68134A934202D011
:103998007B681B6801E04FF0A043FB60FB68DB68B5
:1039A80003F00073002B0FD07B68DB6D23F44053CA
:1039B80043F480527B68DA6506E07B68002283F86E
:1039C800582001E00223FB75FB7D18461837BD46D9
:1039D80080BD00BF000300500001005080B588B0D2
:1039E80000AF786039606748FFF7BCFC78617B6896
:1039F8009B69082B02D10823FB612AE07B69002B15
:103A080005D07B69052B02D07B69092B11D17B6816
:103A18001B68DB6803F00103002B07D07B68DB6DB4
:103A280043F020027B68DA650123A6E00423FB61EA
:103A38000FE05448FFF7A4FC0346002B07D07B682F
:103A4800DB6D43F020027B68DA65012395E00423EF
:103A5800FB6101F041F9386121E03B68B3F1FF3FB8
:103A68001DD001F039F902463B69D31A3A689A42E7
:103A780002D33B68002B12D17B681B681A68FB696C
:103A88001340002B0BD17B68DB6D43F004027B688D
:103A9800DA657B68002283F8582003236DE07B6891
:103AA8001B681A68FB691340002BD6D07B68DB6D56
:103AB80043F400727B68DA657B681B681846FFF779
:103AC800C3FB0346002B1CD07B685B7F002B18D1FF
:103AD8007B681B681B6803F00803082B11D17B68FF
:103AE800DB6D23F480727B68DA657B68DB6D03F439
:103AF8008053002B05D17B68DB6D43F001027B68A6
:103B0800DA657B681B68204A934202D07B681B6891
:103B180001E04FF0A0437A681268934208D07B69AD
:103B2800002B05D07B69052B02D07B69092B04D1BA
:103B38007B681B68DB68BB610DE07B681B68124A09
:103B4800934202D07B681B6801E04FF0A043FB6002
:103B5800FB68DB68BB61FB69082B04D17B681B68C9
:103B680008221A6008E0BB6903F48043002B03D1E4
:103B78007B681B680C221A60002318462037BD4654
:103B880080BD00BF000300500001005080B483B026
:103B980000AF78607B681B681B6C18460C37BD4605
:103BA8005DF8047B7047000080B5B6B000AF786060
:103BB8003960002387F8D7300023FB607B6893F8CF
:103BC8005830012B01D10223C8E37B68012283F816
:103BD80058207B681B681846FFF790FC0346002BAB
:103BE80040F0AD837B6818683B6859683B681B6880
:103BF8001A46FFF73CFB7B681B681846FFF77EFCFC
:103C0800C7F8D0007B681B681846FFF78AFCC7F81E
:103C1800CC00D7F8D030002B40F0D981D7F8CC3081
:103C2800002B40F0D4813B689B68B3F1004F0FD163
:103C38007B6818683B681B6800221946FFF743FB3E
:103C48007B681B684FF000411846FFF7EAFA0EE060
:103C58007B6818683B6819683B689B681A46FFF7D9
:103C680032FB7B681B6800211846FFF7DAFA3B68CD
:103C78005A697B681B68DB68DB0803F003035B0099
:103C880002FA03F3C7F8C8303B681B69042B22D03B
:103C98007B6818683B6819693B681A68D7F8C830A8
:103CA800FFF734FA7B6818683B6819693B689B69B9
:103CB8001A46FFF780FA7B6818683B6819693B6801
:103CC8001B7F012B02D14FF0007300E000231A463E
:103CD800FFF78CFA7BE17B681B6800211846FFF729
:103CE80039FA0346C3F31203002B0AD17B681B6819
:103CF80000211846FFF72EFA03469B0E03F01F0219
:103D08001EE07B681B6800211846FFF723FA03466C
:103D1800C7F8BC30D7F8BC3093FAA3F3C7F8C03063
:103D2800D7F8C030C7F8B830D7F8B830002B01D171
:103D3800202304E0D7F8B830B3FA83F3DBB21A468D
:103D48003B681B68C3F31203002B05D13B681B6853
:103D58009B0E03F01F0318E03B681B68C7F8B030E0
:103D6800D7F8B03093FAA3F3C7F8AC30D7F8AC3033
:103D7800C7F8B430D7F8B430002B01D1202304E0C1
:103D8800D7F8B430B3FA83F3DBB29A4206D17B6832
:103D98001B68002200211846FFF7F2F97B681B68B0
:103DA80001211846FFF7D6F90346C3F31203002B87
:103DB8000AD17B681B6801211846FFF7CBF9034637
:103DC8009B0E03F01F021EE07B681B68012118464A
:103DD800FFF7C0F90346C7F8A430D7F8A43093FA20
:103DE800A3F3C7F8A030D7F8A030C7F8A830D7F8A1
:103DF800A830002B01D1202304E0D7F8A830B3FA6B
:103E080083F3DBB21A463B681B68C3F31203002B2B
:103E180005D13B681B689B0E03F01F0318E03B6845
:103E28001B68C7F89830D7F8983093FAA3F3C7F807
:103E38009430D7F89430C7F89C30D7F89C30002BD2
:103E480001D1202304E0D7F89C30B3FA83F3DBB226
:103E58009A4206D17B681B68002201211846FFF7A9
:103E68008FF97B681B6802211846FFF773F9034630
:103E7800C3F31203002B0AD17B681B680221184682
:103E8800FFF768F903469B0E03F01F021EE07B68EC
:103E98001B6802211846FFF75DF90346C7F88C3006
:103EA800D7F88C3093FAA3F3C7F88830D7F888305E
:103EB800C7F89030D7F89030002B01D1202304E0C8
:103EC800D7F89030B3FA83F3DBB21A463B681B6825
:103ED800C3F31203002B05D13B681B689B0E03F04C
:103EE8001F0316E03B681B68C7F88030D7F880309E
:103EF80093FAA3F3FB67FB6FC7F88430D7F88430D5
:103F0800002B01D1202304E0D7F88430B3FA83F3DF
:103F1800DBB29A4206D17B681B6800220221184650
:103F2800FFF72EF97B681B6803211846FFF712F983
:103F38000346C3F31203002B0AD17B681B680321D5
:103F48001846FFF707F903469B0E03F01F0217E018
:103F58007B681B6803211846FFF7FCF803467B675C
:103F68007B6F93FAA3F33B673B6FBB67BB6F002B79
:103F780001D1202303E0BB6FB3FA83F3DBB21A4607
:103F88003B681B68C3F31203002B05D13B681B6811
:103F98009B0E03F01F0311E03B681B68BB66BB6EFA
:103FA80093FAA3F37B667B6EFB66FB6E002B01D155
:103FB800202303E0FB6EB3FA83F3DBB29A4206D107
:103FC8007B681B68002203211846FFF7D9F87B6835
:103FD8001B681846FFF758FA0346002B40F040814B
:103FE8007B6818683B6819683B68DB681A46FFF706
:103FF80095F93B68DB688F4A934240F031817B68D2
:1040080018683B681B68C3F31203002B0BD13B688D
:104018001B689B0E013303F01F03092B94BF012378
:104028000023DBB219E03B681B68FB65FB6D93FA64
:10403800A3F3BB65BB6D3B663B6E002B01D1202310
:1040480003E03B6EB3FA83F3DBB2013303F01F03E3
:10405800092B94BF01230023DBB2002B79D03B68E6
:104068001B68C3F31203002B07D13B681B689B0E28
:1040780001339B0603F0F84215E03B681B683B657B
:104088003B6D93FAA3F3FB64FB6C7B657B6D002BA4
:1040980001D1202303E07B6DB3FA83F3DBB2013354
:1040A8009B0603F0F8423B681B68C3F31203002B1E
:1040B80009D13B681B689B0E013303F01F030121E4
:1040C80001FA03F317E03B681B687B647B6C93FA87
:1040D800A3F33B643B6CBB64BB6C002B01D1202376
:1040E80003E0BB6CB3FA83F3DBB2013303F01F03C5
:1040F800012101FA03F342EA03013B681B68C3F399
:104108001203002B0AD13B681B689B0E013303F096
:104118001F0213465B0013441B0518E03B681B682D
:10412800BB63BB6B93FAA3F37B637B6BFB63FB6B98
:10413800002B01D1202303E0FB6BB3FA83F3DBB23E
:10414800013303F01F0213465B0013441B050B43A6
:1041580081E03B681B68C3F31203002B07D13B685F
:104168001B689B0E01339B0603F0F84215E03B6881
:104178001B68FB62FB6A93FAA3F3BB62BB6A3B63EF
:104188003B6B002B01D1202303E03B6BB3FA83F395
:10419800DBB201339B0603F0F8423B681B68C3F3AC
:1041A8001203002B09D13B681B689B0E013303F0F7
:1041B8001F03012101FA03F317E03B681B683B6208
:1041C8003B6A93FAA3F3FB61FB697B627B6A002B72
:1041D80001D1202303E07B6AB3FA83F3DBB2013316
:1041E80003F01F03012101FA03F342EA03013B68CC
:1041F8001B68C3F31203002B0DD13B681B689B0E91
:10420800013303F01F0213465B0013441E3B1B05DA
:1042180043F000731EE03B681B687B617B6993FA7F
:10422800A3F33B613B69BB61BB69002B04D120232D
:1042380006E000BF00007F40BB69B3FA83F3DBB23E
:10424800013303F01F0213465B0013441E3B1B059A
:1042580043F000730B433A6892681946FFF733F846
:104268003B681A683F4B1340002B71D03E48FEF75D
:104278003FFFC7F8C4003B681B683C4A934204D020
:104288003B681B683A4A934227D1D7F8C43003F4F5
:104298000003002B21D17B681B68B3F1A04F57D1D5
:1042A800D7F8C43043F4000319462F48FEF70DFF32
:1042B800304B1B689B09304AA2FB03239B095A1CFD
:1042C80013465B0013449B00FB6002E0FB68013B64
:1042D800FB60FB68002BF9D13AE03B681B68274A72
:1042E800934213D1D7F8C43003F08073002B0DD15B
:1042F8007B681B68224A93422AD0D7F8C43043F01F
:10430800807319461848FEF7E0FE21E03B681B68F9
:104318001C4A93421CD1D7F8C43003F48003002B05
:1043280016D17B681B68164A934211D0D7F8C4305F
:1043380043F4800319460C48FEF7C7FE08E07B6883
:10434800DB6D43F020027B68DA65012387F8D730FC
:104358007B68002283F8582097F8D7301846D8375A
:10436800BD4680BD0000088000030050000021C346
:104378001000C09008000020632D3E05000052C7C1
:1043880000010050000084CB80B584B000AF786095
:104398000023BB607B681B681846FFF775F8034667
:1043A800002B69D17B681B689A68364B1340002B39
:1043B8000DD07B68DB6D43F010027B68DA657B68A3
:1043C8001B6E43F001027B681A66012355E07B6887
:1043D8001B681846FFF730F82B48FEF789FE03469E
:1043E80003F40003002B13D0284B1B689B09284AB1
:1043F800A2FB03239B095A1C13465B0013449B0032
:10440800BB6002E0BB68013BBB60BB68002BF9D115
:1044180000F062FCF86028E07B681B681846FFF72C
:1044280033F80346002B04D17B681B681846FFF756
:1044380003F800F051FC0246FB68D31A022B14D98A
:104448007B681B681B6803F00103012B0DD07B6898
:10445800DB6D43F010027B68DA657B681B6E43F006
:1044680001027B681A66012307E07B681B681B68EA
:1044780003F00103012BCFD1002318461037BD46A6
:1044880080BD00BF3F0000800003005008000020EE
:10449800632D3E0580B584B000AF78607B681B68EB
:1044A8001846FFF704F8F8607B681B681846FEF7A3
:1044B800EBFF0346002B47D0FB68002B44D17B68F9
:1044C8001B689B6803F00D03012B0CD17B681B68EC
:1044D8001846FEF7C5FF7B681B6803221A6000F0C8
:1044E800FBFBB86029E07B68DB6D43F010027B685A
:1044F800DA657B681B6E43F001027B681A6601234C
:1045080023E000F0E9FB0246BB68D31A022B14D95A
:104518007B681B689B6803F00103002B0DD07B6848
:10452800DB6D43F010027B68DA657B681B6E43F035
:1045380001027B681A66012307E07B681B689B6899
:1045480003F00103002BDCD1002318461037BD46C9
:1045580080BD000080B487B000AF78603960002368
:104568007B6164E13B681A6801217B6901FA03F306
:104578001340FB60FB68002B00F056813B685B68CA
:1045880003F00303012B05D03B685B6803F00303CA
:10459800022B30D17B689B683B617B695B000322FF
:1045A80002FA03F3DB433A6913403B613B68DA687C
:1045B8007B695B0002FA03F33A6913433B617B684A
:1045C8003A699A607B685B683B6101227B6902FA01
:1045D80003F3DB433A6913403B613B685B681B09A3
:1045E80003F001027B6902FA03F33A6913433B6162
:1045F8007B683A695A603B685B6803F00303032BE6
:1046080009D13B685B6803F00303032B1BD13B68AC
:104618009B68012B17D07B68DB683B617B695B007B
:10462800032202FA03F3DB433A6913403B613B6818
:104638009A687B695B0002FA03F33A6913433B61AA
:104648007B683A69DA603B685B6803F00303022B16
:1046580023D17B69DA087B68083253F822303B6142
:104668007B6903F007039B000F2202FA03F3DB4385
:104678003A6913403B613B681A697B6903F0070399
:104688009B0002FA03F33A6913433B617B69DA083A
:104698007B680832396943F822107B681B683B61E4
:1046A8007B695B00032202FA03F3DB433A69134098
:1046B8003B613B685B6803F003027B695B0002FABD
:1046C80003F33A6913433B617B683A691A603B68B4
:1046D8005B6803F44033002B00F0A6805B4B1B6E35
:1046E8005A4A43F001031366584B1B6E03F001034B
:1046F800BB60BB68564A7B699B08023352F823307B
:104708003B617B6903F003039B000F2202FA03F36A
:10471800DB433A6913403B617B68B3F1904F1FD08C
:104728007B684C4A934219D07B684B4A934213D01A
:104738007B684A4A93420DD07B68494A934207D026
:104748007B68484A934201D105230AE0062308E022
:10475800042306E0032304E0022302E0012300E02F
:1047680000237A6902F00302920093403A691343E6
:104778003B6137497B699B0802333A6941F823203A
:10478800394B9B683B61FB68DB433A6913403B61EB
:104798003B685B6803F48013002B03D03A69FB681D
:1047A80013433B61304A3B6993602F4BDB683B61A5
:1047B800FB68DB433A6913403B613B685B6803F481
:1047C8000013002B03D03A69FB6813433B61264A68
:1047D8003B69D360244B5B683B61FB68DB433A6908
:1047E80013403B613B685B6803F40033002B03D044
:1047F8003A69FB6813433B611B4A3B6953601A4B98
:104808001B683B61FB68DB433A6913403B613B68CB
:104818005B6803F48033002B03D03A69FB681343C9
:104828003B61114A3B6913607B6901337B613B68DB
:104838001A687B6922FA03F3002B7FF493AE00BF5A
:1048480000BF1C37BD465DF8047B7047001002406E
:10485800000001400004004800080048000C00481F
:1048680000100048001400480004014080B483B0E0
:1048780000AF786000BF0C37BD465DF8047B704719
:1048880080B483B000AF786000BF0C37BD465DF8D8
:10489800047B704780B483B000AF786000BF0C37EA
:1048A800BD465DF8047B704780B584B000AF786082
:1048B8007B689B6AFB60F868FFF7D8FFFB680122FA
:1048C8001A7100BF1037BD4680BD80B584B000AFF7
:1048D80078607B689B6AFB60F868FFF7D1FF00BFD0
:1048E8001037BD4680BD80B584B000AF78607B6866
:1048F8009B6AFB60FB681B6943F00402FB681A6152
:10490800F868FFF7C7FFFB6801221A7100BF10376C
:10491800BD4680BD80B58EB000AF78600022796852
:10492800362000F05EF9362000F075F9304B9B6DAB
:104938002F4A43F0100393652D4B9B6D03F0100332
:10494800FB60FB6807F1100207F1140311461846D3
:10495800FEF730FB3B6AFB62FB6A002B03D1FEF7D4
:1049680013FB786304E0FEF70FFB03465B007B63F1
:104978007B6B204AA2FB03239B0C013BBB621E4BB3
:104988001E4A1A601C4B40F2E732DA601A4ABB6AC8
:104998005360194B00221A61174B00229A6016487F
:1049A800FDF7FAFA034687F8333097F83330002BCF
:1049B80018D11148FDF7B4FB034687F8333097F850
:1049C8003330002B0ED17B680F2B08D80022796872
:1049D800362000F006F90A4A7B68136002E00123DA
:1049E80087F8333097F8333018463837BD4680BDDE
:1049F8000010024083DE1B435809002000100040CD
:104A08000000002080B582B000AF786000F052F955
:104A180000BF0837BD4680BD80B500AF0248FDF72E
:104A2800E9FB00BF80BD00BF5809002080B485B0F5
:104A380000AF78607B6803F00703FB600C4BDB6812
:104A4800BB60BA684FF6FF031340BB60FB681A02ED
:104A5800BB68134343F0BF6343F40033BB60044AAD
:104A6800BB68D36000BF1437BD465DF8047B704750
:104A780000ED00E080B400AF044BDB681B0A03F0D4
:104A880007031846BD465DF8047B704700ED00E05B
:104A980080B483B000AF0346FB7197F90730002B51
:104AA8000BDBFB7903F01F02074997F907305B0915
:104AB800012000FA02F241F8232000BF0C37BD465E
:104AC8005DF8047B704700BF00E100E080B483B06C
:104AD80000AF03463960FB7197F90730002B0ADBFA
:104AE8003B68DAB20C4997F907301201D2B20B448D
:104AF80083F800230AE03B68DAB20849FB7903F03F
:104B08000F03043B1201D2B20B441A7600BF0C37D4
:104B1800BD465DF8047B704700E100E000ED00E071
:104B280080B489B000AFF860B9607A60FB6803F0C0
:104B38000703FB61FB69C3F10703042B28BF0423A8
:104B4800BB61FB690433062B02D9FB69033B00E018
:104B580000237B614FF0FF32BB6902FA03F3DA43AB
:104B6800BB681A407B699A404FF0FF317B6901FAB4
:104B780003F3D9437B680B40134318462437BD46DB
:104B88005DF8047B7047000080B582B000AF7860A4
:104B98007B68013BB3F1807F01D301230FE00A4A10
:104BA8007B68013B53600F214FF0FF30FFF78EFF0A
:104BB800054B00229A60044B07221A60002318460E
:104BC8000837BD4680BD00BF10E000E080B582B068
:104BD80000AF78607868FFF729FF00BF0837BD4647
:104BE80080BD80B586B000AF0346B9607A60FB73BC
:104BF800FFF740FF78617A68B9687869FFF790FF36
:104C0800024697F90F3011461846FFF75FFF00BFBD
:104C18001837BD4680BD80B582B000AF0346FB7132
:104C280097F907301846FFF733FF00BF0837BD462E
:104C380080BD80B582B000AF78607868FFF7A4FFC8
:104C4800034618460837BD4680BD000080B483B0CF
:104C580000AF78607B68042B06D1094B1B68084AB3
:104C680043F00403136005E0054B1B68044A23F076
:104C78000403136000BF0C37BD465DF8047B704722
:104C880010E000E080B582B000AF0023FB71032084
:104C9800FFF79CFF0F20FFF73DFE0346002B02D0D5
:104CA8000123FB7101E000F045F8FB79184608374D
:104CB800BD4680BD80B400AF054B1A68054B1B6824
:104CC8001344034A136000BFBD465DF8047B704778
:104CD800A40900200400002080B400AF034B1B6827
:104CE8001846BD465DF8047B704700BFA409002044
:104CF80080B584B000AF7860FFF7EEFFB8607B68DE
:104D0800FB60FB68B3F1FF3F04D0094B1B68FA68EE
:104D18001344FB6000BFFFF7DFFF0246BB68D31AEE
:104D2800FA689A42F7D800BF00BF1037BD4680BD69
:104D38000400002080B400AF00BFBD465DF8047BCE
:104D4800704780B582B000AF78607B68002B01D1D6
:104D5800012314E07B681B79DBB2002B05D17B684B
:104D680000225A71786800F00EF87B6802221A71E6
:104D78007B6800221A617B6801221A710023184699
:104D88000837BD4680BD80B483B000AF786000BFEF
:104D98000C37BD465DF8047B7047000080B588B0CD
:104DA80000AFF860B9607A603B60FB68002B01D106
:104DB8000123B2E0FB685B79012B01D10223ACE04F
:104DC800FB6801225A71FB6802221A71BB68002B2A
:104DD80029D1FB689B68534ADA62FB689B68524A90
:104DE8001A63FB689B68514A5A63FB681B681A6818
:104DF800FB681B6842F480521A60BB6A002B03D020
:104E0800BB6A042B05D009E0FB681B680833BB614B
:104E180033E0FB681B680C33BB612EE0FB681B6842
:104E28001033BB6129E0FB68DB68414ADA62FB6842
:104E3800DB68404A1A63FB68DB683F4A5A63FB68D1
:104E48001B681A68FB681B6842F080521A60BB6ACC
:104E5800002B03D0BB6A042B05D009E0FB681B6854
:104E68001433BB6109E0FB681B681833BB6104E0BD
:104E7800FB681B681C33BB6100BFBB68002B11D1EA
:104E8800FB681B681A68FB681B6842F400521A60CA
:104E9800FB68986879683B68BA69FCF721FE0346A5
:104EA800FB7710E0FB681B681A68FB681B6842F018
:104EB80000521A60FB68D86879683B68BA69FCF7E1
:104EC8000FFE0346FB77FB6800225A71FB7F002B1D
:104ED8001CD1FB681B681968BB6803F0100301222A
:104EE8009A40FB681B680A431A60144B1B689B09AD
:104EF800134AA2FB03239B0901337B6102E07B6910
:104F0800013B7B617B69002BF9D105E0FB681B69DC
:104F180043F00402FB681A61FB7F18462037BD4640
:104F280080BD00BFFD5200081F5300083B53000816
:104F3800B1480008D3480008EF48000808000020DE
:104F4800632D3E0580B483B000AF786000BF0C3796
:104F5800BD465DF8047B704780B483B000AF7860CD
:104F680000BF0C37BD465DF8047B704780B483B042
:104F780000AF786000BF0C37BD465DF8047B704712
:104F880080B58AB000AFF860B9607A600023FB771B
:104F9800FB68002B02D0BB68002B01D10123A1E1E3
:104FA800BB689B68042BFB685B79012B01D102234A
:104FB80098E1FB6801225A71FB6802221A71BB68EA
:104FC8009B68042B7AD1FFF787FEB8617B68002BBA
:104FD8003DD118E0FFF780FE0246BB69D31A012BCA
:104FE80011D9FB681B685B6B03F40043002B0AD0E4
:104FF800FB681B6943F00802FB681A61FB6803221F
:105008001A7103236EE1FB681B685B6B03F40043B2
:10501800002BDFD1FB681B68BA68526A1A6420E06B
:10502800FFF75AFE0246BB69D31A012B0FD9FB685A
:105038001B685B6B002B0ADAFB681B6943F00802EC
:10504800FB681A61FB6803221A7103234AE1FB68B3
:105058001B685B6B002BE3DBFB681B68BA68526A52
:105068005A64FB681B689A6C7B6803F0100340F273
:10507800FF3101FA03F3DB4302EA0301BB689A6AD2
:105088007B6803F010039A40FB681B680A439A6424
:10509800FB681B68DA6C7B6803F01003FF2101FAD8
:1050A80003F3DB4302EA0301BB68DA6A7B6803F0B7
:1050B80010039A40FB681B680A43DA64BB68DB6923
:1050C800012B1DD1FB681B689B6B7B627B6803F01F
:1050D80010031F2202FA03F3DB437A6A13407B6250
:1050E800BB681B6A7B617B6803F010037A6902FA6C
:1050F80003F37A6A13437B62FB681B687A6A9A63D4
:10510800FB681B68DB6B7B627B6803F0100307227C
:1051180002FA03F3DB437A6A13407B62BB689B693C
:10512800012B02D100233B620FE0BB689B69022B75
:1051380002D101233B6208E0BB685B69002B02D106
:1051480001233B6201E000233B62BB689A68BB68AD
:105158005B6913433A6A13437B617B6803F010036E
:105168004FF4807202FA03F3DB437A6A13407B62DE
:10517800BB681B79012B02D14FF4807300E0002338
:105188007A6913437B617B6803F010034FF4007264
:1051980002FA03F3DB437A6A13407B62BB685B79EC
:1051A800012B02D14FF4007300E000237A69134306
:1051B8007B617B6A23F440437B62BB681B68022BDC
:1051C80014D1FDF7D5FE38613B69484A934204D9AA
:1051D8007B6A43F400437B620FE03B69444A934295
:1051E8000AD97B6A43F480437B6206E0BB681B688C
:1051F8007A6A13437B6200E000BF7B6803F0100308
:105208007A6902FA03F37A6A13437B62FB681B68C4
:105218007A6ADA63FB681B6819687B6803F0100315
:105228004FF4804202FA03F3DA43FB681B680A4032
:105238001A60FB681B681B687B627B6803F01003BD
:1052480040F6FE7202FA03F3DB437A6A13407B628C
:10525800BB68DB687B617B6803F010037A6902FA3C
:1052680003F37A6A13437B62FB681B687A6A1A60E5
:10527800FB681B6819687B6803F01003C02202FAF8
:1052880003F3DA43FB681B680A401A60BB68DB68F3
:105298009B0803F00F037B61BB681B699B081B021B
:1052A80003F470637A6913437B61FB681B681A6EA9
:1052B8007B6803F0100340F60F7101FA03F3DB4338
:1052C80002EA03017B6803F010037A699A40FB68DD
:1052D8001B680A431A66FB6801221A71FB680022E0
:1052E8005A71FB7F18462837BD4680BD006889097A
:1052F80000B4C40480B584B000AF78607B689B6A52
:10530800FB60F868FFF71EFEFB6801221A7100BFF8
:105318001037BD4680BD80B584B000AF78607B682B
:105328009B6AFB60F868FFF717FE00BF1037BD46A1
:1053380080BD80B584B000AF78607B689B6AFB60F5
:10534800FB681B6943F00402FB681A61F868FFF701
:105358000DFEFB6801221A7100BF1037BD4680BDE3
:1053680080B485B000AF786039607B6893F83C30D2
:10537800012B01D1022365E07B68012283F83C20E0
:105388007B68022283F83D207B681B685B68FB60B2
:105398007B681B689B68BB607B681B682C4A9342D0
:1053A80004D07B681B682B4A934208D1FB6823F41E
:1053B8007003FB603B685B68FA681343FB60FB683B
:1053C80023F0007323F07003FB603B681B68FA68E6
:1053D8001343FB607B681B68FA685A607B681B682C
:1053E8001B4A934218D07B681B68B3F1804F13D0D7
:1053F8007B681B68184A93420ED07B681B68174A63
:10540800934209D07B681B68124A934204D07B6898
:105418001B68134A93420CD1BB6823F08003BB601E
:105428003B689B68BA681343BB607B681B68BA68B3
:105438009A607B68012283F83D207B68002283F80C
:105448003C20002318461437BD465DF8047B70479E
:10545800002C0140003401400004004000080040D6
:105468000040014080B483B000AF786000BF0C37C3
:10547800BD465DF8047B704780B483B000AF7860A8
:1054880000BF0C37BD465DF8047B704780B483B01D
:1054980000AF786000BF0C37BD465DF8047B7047ED
:1054A80080B483B000AF786000BF0C37BD465DF8AC
:1054B800047B704780B483B000AF786000BF0C37BE
:1054C800BD465DF8047B704780B483B000AF786058
:1054D80000BF0C37BD465DF8047B704780B483B0CD
:1054E80000AF786000BF0C37BD465DF8047B70479D
:1054F80080B400AF064BD3F88830054A43F47003F4
:10550800C2F8883000BFBD465DF8047B704700BF15
:1055180000ED00E00D488546FFF7EAFF0C480D490D
:105528000D4A002302E0D458C4500433C4188C42F6
:10553800F9D30A4A0A4C002301E013600432A2425C
:10554800FBD3FAF789FEFBF7B1FDFEE700800020E8
:10555800000000200C000020446B00081000002010
:1055680000120020FEE780B590B000AFF860B96087
:105578007A603B60FB68BB63BB6B002B08D0BB68E1
:10558800002B03D1BB6B9B6C002B01D1012300E0E6
:105598000023002B0BD14FF0500383F31188BFF386
:1055A8006F8FBFF34F8F7B6200BF00BFFDE7BB6B00
:1055B800002B08D03B68022B03D1BB6B5B6C012B23
:1055C80001D1012300E00023002B0BD14FF0500341
:1055D80083F31188BFF36F8FBFF34F8F3B6200BF18
:1055E80000BFFDE700F06CFDEFF311824FF05003B0
:1055F80083F31188BFF36F8FBFF34F8FFA61BB61DD
:10560800FB697B63BB6B1A6CBB6B5B6C9A4202D306
:105618003B68022B47D1BB6B93F84D3087F833308A
:10562800BB6B1B6CFB623A68B968B86B00F0ECF8AE
:1056380097F93330B3F1FF3F12D1BB6B9B6A002B54
:105648002ED0BB6B2833184600F00AFB0346002B0C
:1056580026D07B68002B23D07B6801221A601FE0CC
:1056680000F03CF9B86297F93330BA6A9A4217D910
:1056780097F933307F2B0BD14FF0500383F3118808
:10568800BFF36F8FBFF34F8F7B6100BF00BFFDE794
:1056980097F833300133DBB25AB2BB6B83F84D2035
:1056A8000123FB6301E00023FB637B6B3B613B69E8
:1056B80083F3118800BFFB6B18464037BD4680BD99
:1056C80080B58EB000AF786039607B683B633B6B18
:1056D800002B05D03B6B9B6C002B01D1012300E014
:1056E8000023002B0BD14FF0500383F31188BFF335
:1056F8006F8FBFF34F8FFB6100BF00BFFDE73B6BB0
:10570800002B09D03B6B1B68002B03D13B6B9B68BC
:10571800002B01D1012300E00023002B0BD14FF017
:10572800500383F31188BFF36F8FBFF34F8FBB61B3
:1057380000BF00BFFDE700F0C3FCEFF311824FF09C
:10574800500383F31188BFF36F8FBFF34F8F7A61D4
:105758003B617B69FB623B6B1B6CBB623B6B5B6CAD
:10576800BA6A9A4243D23B6B93F84D3087F8273098
:10577800BB6A5A1C3B6B1A6497F92730B3F1FF3F99
:1057880012D13B6B9B6A002B2ED03B6B28331846FB
:1057980000F066FA0346002B26D03B68002B23D086
:1057A8003B6801221A601FE000F098F8386297F908
:1057B80027303A6A9A4217D997F927307F2B0BD1AD
:1057C8004FF0500383F31188BFF36F8FBFF34F8FF0
:1057D800FB6000BF00BFFDE797F827300133DBB25D
:1057E8005AB23B6B83F84D2001237B6301E0002311
:1057F8007B63FB6ABB60BB6883F3118800BF7B6B6C
:1058080018463837BD4680BD80B586B000AFF86011
:10581800B9607A6000237B61FB681B6C3B61FB68A5
:105828009B6C002B0DD1FB681B68002B4DD1FB68CE
:105838009B68184600F010FB7861FB6800229A60AC
:1058480043E07B68002B19D1FB685868FB689B6CA8
:105858001A46B968FAF77AFDFB685A68FB689B6CC8
:105868001A44FB685A60FB685A68FB689B689A424E
:105878002BD3FB681A68FB685A6026E0FB68D86877
:10588800FB689B6C1A46B968FAF760FDFB68DA6832
:10589800FB689B6C5B421A44FB68DA60FB68DA6859
:1058A800FB681B689A4207D2FB689A68FB689B6C86
:1058B8005B421A44FB68DA607B68022B05D13B69BE
:1058C800002B02D03B69013B3B613B695A1CFB68DA
:1058D8001A647B6918461837BD4680BD80B400AF8E
:1058E800034B1B681846BD465DF8047B704700BF34
:1058F800C00A0020B0B58CB000AF0023FB62864B15
:105908001B68002B40F0F980844BD3E90023541C1A
:1059180043F10005C7E908458049D7E90823C1E9EB
:105928000023D7E90823134321D17D4B1B681B684B
:10593800002B0BD04FF0500383F31188BFF36F8F08
:10594800BFF34F8F3B6000BF00BFFDE7744B1B6880
:10595800FB61744B1B68724A1360724AFB691360DF
:10596800714B1B680133704A136000F055FA6F4B96
:10597800D3E90023D7E90801904271EB0303C0F093
:10598800B580674B1B681B68002B07D167494FF030
:10599800FF324FF0FF33C1E90023A7E0604B1B68DB
:1059A8001B691B69BB61BB69D3E90223C7E90423EF
:1059B800D7E90801D7E90423904271EB030305D224
:1059C8005A49D7E90423C1E900238FE0BB69DB69A1
:1059D800FB60BB691B69BA695269DA60BB695B69BC
:1059E800BA6912699A60FB685A68BB6908339A42B7
:1059F80003D1BB695A69FB685A60BB690022DA6146
:105A0800FB681B685A1EFB681A60BB695B6B002B3E
:105A18001ED0BB695B6BBB60BB699B6ABA69D26A03
:105A2800DA60BB69DB6ABA69926A9A60BB685A68CD
:105A3800BB6920339A4203D1BB69DA6ABB685A60F2
:105A4800BB6900225A63BB681B685A1EBB681A6090
:105A5800BB699A6B364B1B689A4203D9BB699B6B2F
:105A6800334A1360BB699A6B324913465B0013448F
:105A7800DB000B4404331B687B60BB697A681A61DE
:105A88007B68DA68BB695A617B68DB68BA69083287
:105A98009A60BB6903F108027B68DA60BB699A6B9C
:105AA80013465B001344DB00224A1A44BB69DA61DF
:105AB800BB699A6B1F4913465B001344DB000B4418
:105AC8001B68BA69926B591C1A4813465B00134449
